:0400000080310B2818
:100008007E1480318A314C2280317E100900803183
:100018000D28DB30840089308500D7308600003019
:10002800870009308931BA218031DA01DB01DC012E
:10003800A03084000030850037308931B421803108
:10004800203084000130850040308931B42180316E
:100058007E10200083312C2B4130F1008830F200D3
:100068008C31322480310A308931D2218031BC3040
:10007800F1008830F2008C31322480313D308931F2
:10008800D221803100308A31D22280318C31112442
:1000980080310A308931D2218031EE30F100883048
:1000A800F2008C31322480313D308931D2218031C7
:1000B80001308A31D22280318C31112480310A30CA
:1000C8008931D2218031A030F1008830F2008C31A2
:1000D800322480313D308931D221803102308A3159
:1000E800D22280318C31112480310A308931D221D9
:1000F8008031B330F1008830F2008C313224803105
:100108003D308931D221803103308A31D222803189
:100118008731742780310A308931D22180318A3081
:10012800F1008830F2008C31322480313D30893141
:10013800D221803104308A31D22280318C3111248D
:1001480080310A308931D2218031F430F100883091
:10015800F2008C31322480313D308931D221803116
:1001680005308A31D22280318731742780310A30B4
:100178008931D2218031AA30F1008830F2008C31E7
:10018800322480313D308931D221803106308A31A4
:10019800D22280318C31112480310A308931D22128
:1001A8008031C330F1008830F2008C313224803144
:1001B8003D308931D221803107308A31D2228031D5
:1001C8008C31112480310A308931D2218031953027
:1001D800F1008830F2008C31322480313D30893191
:1001E800D221803108308A31D22280318C311124D9
:1001F80080310A308931D22180312930F100003034
:10020800F2000530FC007C08F3000A308D3104252B
:100218008031CA30F1008830F2008C3132248031CC
:100228003D308931D22180310530FC007C08F10055
:1002380029308E310B2680310A308931D221803124
:100248002930F1000030F2000530FC007C08F30092
:100258000B308D3104258031D030F1008830F20028
:100268008C31322480313D308931D22180310530C2
:10027800FC007C08F10029308E310B2680310A30D1
:100288008931D2218031D630F1008830F2008C31AA
:10029800322480313D308931D22180310C308A318D
:1002A800D22280318B31B42380310A308931D22176
:1002B8008031DC30F1008830F2008C31322480311A
:1002C8003D308931D22180310D308A31D2228031BE
:1002D8008B31B42380310A308931D2218031E23028
:1002E800F1008830F2008C31322480313D30893180
:1002F800D22180310E308A31D22280318B31B42321
:1003080080310A308931D2218031E830F1008830DB
:10031800F2008C31322480313D308931D221803154
:100328000F308A31D22280318B31B42380310A30A8
:100338008931D22180312930F1000030F2000530B6
:10034800FC007C08F30010308D31042580319D308D
:10035800F1008830F2008C31322480313D3089310F
:10036800D22180310530FC007C08F10029308E3123
:100378000B2680310A308931D22180312A30F100B0
:100388008830F2008C31322480310A308931D22110
:10039800803108002000B40003302F06031DD52942
:1003A800D6292B2B07302E020318DB29DC29DD295F
:1003B8002B2B3408B0003008B9003908063E8600F7
:1003C8000130870001080339003A031DEC29ED29A3
:1003D800662A4030B0003008B8003908053E86006B
:1003E800013087000108B0003808053E860001305A
:1003F8008700300881003808063E860001308700F3
:1004080001153808063E8600013087000108FC39CE
:10041800023881003908023E860001308700010851
:10042800B0003808033E860001308700300881009C
:100438003908043E86000130870001080F39B000F2
:100448003808043E860001308700B00E01083006E7
:100458000F39300681002030B0003808860001309E
:100468008700300881003808073EF0000130F100AD
:10047800DC30F2000030F3000430F4000030F50006
:100488008D31522581310B302000B0003008A70093
:1004980039088600013087000130423FA800033048
:1004A800B1003108A9003908043E860001308700F0
:1004B80001080F39B2003208AA0040308E314026B8
:1004C8008131032B3908063E860001308700010878
:1004D8000339013A031D712A722A032BB301922AA8
:1004E80033353907B0003008073E860001308700F1
:1004F800403FB500413FB600043035020318852A55
:10050800862A8E2A3608B0003535DD3E86008701FA
:10051800300881000130B0003008B3072100290CF1
:10052800890C0F3920003302031C9B2A9C2A742A49
:100538004030B0003008B7003908053E8600013069
:1005480087000108B0003708053E860001308700A3
:10055800300881003708063E860001308700011503
:100568003708063E8600013087000108FC3902384A
:1005780081003908023E8600013087000108B0007A
:100588003708033E860001308700300881003908AB
:10059800043E86000130870001080F39B000370893
:1005A800043E860001308700B00E010830060F397E
:1005B800300681002030B0003708860001308700FF
:1005C800300881000730B0003008A70039088600DD
:1005D800013087000130423FA8000330B1003108E4
:1005E800A9003908043E86000130870001080F3948
:1005F800B2003208AA0040308E31402681312100F5
:10060800291C072B082B2B2B20003908053E8600B8
:1006180001308700010821002B06031D142B152B20
:100628002B2BAC30F0000030F10020003408F20031
:100638000130F3002E08B000B1013008F400310891
:10064800F5008D315225813121002910A9140800A7
:100658007A30210099008E110E1223008C018D0131
:100668008E0121008D1320008D1321008E1410306F
:100678008931AE2183318A312E2283310030200026
:10068800B1000030B0002530AF008030AE008731B7
:10069800152783318D31AB25833173308931A821FA
:1006A8008331D730FC000030FD008B31D3238331F8
:1006B80000308F31202783318031302083318D31D4
:1006C8007E25833120008E150530F1008830F20038
:1006D8008C31322483310A308931D2218331912BF4
:1006E8008C31762483310730F1008930F2008C3167
:1006F800322483318D317E258331103020008E06DF
:1007080007302000D4001730D3006A30890B8A2BB9
:10071800D30B8A2BD40B8A2B000020005A0803190C
:10072800962B972B742B0E160330D3005308C60054
:10073800DC30D4005408C7000230D5005508C80082
:1007480001308531512583318C3176248331200065
:100758008E118D317E25833108302000D300530857
:10076800A700A801A80A0330D4005408A900033040
:10077800D5005508AA0040308E31402683318A3191
:100788009322833173082000D9007208D8007108B9
:10079800D7007008D6005908031DDE2B5808031D22
:1007A800DE2B5708031DDE2B97305602031CDD2B6A
:1007B800DE2BE72B21005D18E22BE52B20008D179F
:1007C800E72B20008D13003020008E180130F80030
:1007D800D230863150268331003A0319F42BF52B99
:1007E800A82B21005D092000D30053082100DD005B
:1007F80003302000D3005308C600DC30D40054086E
:10080800C7000230D5005508C80001308531512590
:100818008331A82B80310B282000A3002308FC007B
:100828007C08A20021002008031D1B2C1C2C1D2C59
:10083800C02C20002208033E8600013087000108F2
:100848008A313D228431FC007C082000A100210867
:10085800210021020318312C322C982C2000220868
:10086800033E86000130870001088A315D22843109
:10087800003A0319402C412C982C20002208033EF2
:1008880086000130870001082100220503194D2C3C
:100898004E2C732C2408FC007C08CC00CC30F700CC
:1008A8000030F80000308E3175268431CC308A3122
:1008B800202284318B31F223843120002008FC006F
:1008C8007C08F80023088E31E32684310030F700D5
:1008D8008830F80000308E3175268431BD2C23080D
:1008E800FC007C08CC00CC30F7000030F800003069
:1008F8008E3175268431CC308A31202284318B3177
:10090800F223843120002008FC007C08F80023082A
:100918008E31E32684310030F7008830F80000304B
:100928008E3175268431BD2C21002008FC007C08FE
:10093800CC00CC30F7000030F80000308E3175263E
:100948008431CC308A31202284318B31F2238431B6
:1009580020002008FC007C08F80023088E31E326DC
:1009680084310030F7008830F80000308E31752669
:1009780084318B311423843108002000A901A31F7E
:10098800C62CC72CD42CA009A109A209A309A00A26
:100998000319A10A0319A20A0319A30AA901A90A9A
:1009A800A71FD72CD82CE72CA409A509A609A709A5
:1009B800A40A0319A50A0319A60A0319A70A0130EC
:1009C800FC007C08A9060030AD000030AC00003007
:1009D800AB000030AA0023082204210420040319D4
:1009E800F62CF72C382DA801A80A052D0130A035C2
:1009F800A10DA20DA30D890BFB2C0130FC007C0876
:100A0800A807A31F082D092DFA2C0130AA35AB0D14
:100A1800AC0DAD0D890B0A2D23082702031D1E2DD1
:100A280022082602031D1E2D21082502031D1E2D46
:100A380020082402031C212D222D2B2D2008A4027E
:100A48002108A53B2208A63B2308A73B2A1401300E
:100A5800A336A20CA10CA00C890B2C2D0130A802E6
:100A6800031D372D382D092D290803193C2D3D2D3F
:100A7800482DAA09AB09AC09AD09AA0A0319AB0AA2
:100A88000319AC0A0319AD0A2D08A3002C08A2000B
:100A98002B08A1002A08A00008002000D10040303F
:100AA800C9004908D2005208063E86000130870076
:100AB800011521002A082000C9005208053E8600B9
:100AC80001308700490881005208063E860001303F
:100AD80087000108FC390138810021002A0820001C
:100AE800C90049082100AB002914A91001302000D1
:100AF800C90049082100AA074730F0000130F10079
:100B080020004708F2000030F3004808C900CA0175
:100B18004935F4004A0DF5008D3152258531200004
:100B28004835073EC9004908A7005108CA004A08C5
:100B3800A8000330CB004B08A9004608CC004C089D
:100B4800AA0040308E31402685318A319322853182
:100B5800703070072000CD008230713DCE00033028
:100B6800723DCF000030733DD000BD2D8C3176240E
:100B780085318A3193228531200050087302031D84
:100B8800CF2D4F087202031DCF2D4E087102031D91
:100B9800CF2D4D0870020318D22DD32DD82D21004A
:100BA800A91CD72DD82DBA2D2100A91CDC2DDD2D8F
:100BB800DD2D080021000E138E1220000E138E1654
:100BC8000330FD000830FC007730890BE92DFC0B61
:100BD800E92DFD0BE92D00001A30FC00F830890BD7
:100BE800F32DFC0BF32D00320F30FC007C08F700CE
:100BF80005308A31E822853103308C31DF24853194
:100C080000308C31BB248531F4011D308A318022BB
:100C18008531F4011C308A31802285313F30FC0057
:100C28007C08F40001308A31802285310330FC00D1
:100C38007C08F40002308A318022853120308D31E1
:100C4800D925853105308931EE2185314C308931FE
:100C5800E42185317030FC007C08F40007308A31CB
:100C6800802285318931C02185318931C921853179
:100C78000C30FC007C08F40000308A318022853179
:100C88008A31A822853100308A31D2228531FC0090
:100C98007C082000DB0008002000A200A001220838
:100CA800043E860087010108031D5B2E5C2E842EFE
:100CB80078080319602E612E842E8A31932286319A
:100CC8002000220886008701403FF900413FFA00D2
:100CD800423FFB00433FFC0073087C02031D7E2E4D
:100CE80072087B02031D7E2E71087A02031D7E2E78
:100CF800700879020318812E822E842EA001A00A82
:100D08002008F9007908A100210803198C2E8D2EDE
:100D1800AC2EA030F9008630FA000130FB0000301C
:100D2800FC008A31932286317008F9077108FA3D70
:100D38007208FB3D7308FC3D2000220886008701ED
:100D48007908C03F7A08C13F7B08C23F7C08C33F8F
:100D58007808F9002208043E860087017908810096
:100D680021080800F601F11FBA2EBB2EC22EF00989
:100D7800F109F00A0319F10AF601F60AF31FC52E64
:100D8800C62ECF2EF209F309F20A0319F30A01302D
:100D9800F4007408F606F701F801700871040319E5
:100DA800D62ED72E062FF501F50AE32E0130F035A1
:100DB800F10D890BDB2E0130F4007408F507F11FE3
:100DC800E62EE72EDA2E0130F735F80D890BE82EDE
:100DD80071087302031DF22E70087202031CF52EAF
:100DE800F62EFB2E7008F2027108F33B77140130DF
:100DF800F136F00C890BFC2E0130F502031D052F8E
:100E0800062FE72E760803190A2F0B2F102FF70944
:100E1800F809F70A0319F80A7808F1007708F000CA
:100E2800080020002E08B2002F08B3003008B400D4
:100E38003108B5000630B235B30DB40DB50D890BC8
:100E48001F2F3508A3003408A2003308A100320878
:100E5800A0000030B6002430B700F430B8000030ED
:100E6800B9003108F3003008F2002F08F1002E080D
:100E7800F000FF30F700FF30F600FF30F500BE301D
:100E8800F4008731CD27873170082000B607710834
:100E9800B73D7208B83D7308B93D3908A70038084E
:100EA800A6003708A5003608A4008431C12487317C
:100EB80020002108BB002008BA003A0823009B0044
:100EC8001E1522009D131D1523008D121E129D173D
:100ED80021000E168D1623009E111D169E16080061
:100EE8002000A7006430270203187B2F7C2F902F47
:100EF8000A3027020318812F822F872F0130A5007F
:100F08000030A6008B2F0A30A5000030A600260866
:100F1800A4002508A300942F6430A3000030A40087
:100F28002308A0002008A8000A30F5000030F600C9
:100F38002808A0002008F00027088D3129258731CE
:100F48002000A100A2012108F7002208F8008F3133
:100F5800AD2787317508303E8931D22187310A3073
:100F6800F0000030F10020002808A000A1012008AE
:100F7800F2002108F3008631B62687317008200078
:100F8800A2002208A8002808031DCB2FCC2F982FD9
:100F980008000030FB000030FA000030F900003093
:100FA800F800701CD82FD92FE12F7408F80775089E
:100FB800F93D7608FA3D7708FB3D0130F435F50D2B
:100FC800F60DF70D890BE22F0130F336F20CF10C18
:100FD800F00C890BE92F7308720471047004031D67
:100FE800F62FF72FD52F7B08F3007A08F20079083F
:100FF800F1007808F0000800E93470349D346B344F
:10100800C534773461346934743469346E34673480
:10101800203466346F347234203463346F346E3461
:1010280066346934673475347234613474346934BD
:101038006F346E3420346D346534733473346134F2
:10104800673465342E342E342E3400343D343D3428
:101058003D343D3445344E34443420344F344634E2
:101068002034443445345434413449344C345334B2
:101078003D343D343D343D3400343D343D343D341D
:101088005334543441345234543420344F34463475
:101098002034443445345434413449344C34533482
:1010A8003D343D343D3400345234463432343434E3
:1010B800203464346934733463346F346E346E347A
:1010C8006534633474346534643421340034303422
:1010D80031343234333434343534363437343834C4
:1010E8003934413442344334443445344634523438
:1010F800463432343434203463346F346E346E34CE
:10110800653463347434653464340034533445349A
:101118005434553450345F34523445345434523492
:1011280000344F3442345334453452345634453401
:101138005F3454345834003445344E345F345234B8
:1011480058344134443444345234003452344634EC
:101158005F345334453454345534503400345334A4
:1011680045345434553450345F34413457340034A2
:1011780043344F344E3446344934473400345334BE
:10118800543441345434553453340034523458347C
:101198005F34503430340034523458345F3450346F
:1011A80031340034523458345F34503432340034DB
:1011B800523458345F345034333400345234583451
:1011C8005F34503434340034523458345F3450343B
:1011D8003534003445344E345F34413441340034BE
:1011E800523446345F34433448340034F9343634A6
:1011F800CD34AC34E7344634413449344C340034CB
:0A1208004F344B340034233400341B
:1013460006308A31D22289310800F90079088931BC
:10135600E42189310800F30073088E31AB26893108
:101366000800640080010131890BB5290034FE00B4
:1013760012001E00FE0BBB290034FF30F700770871
:10138600F400E2308A31802289310800FF30F7000C
:101396007708F400E1308A31802289310800F000B4
:1013A60023009E1CD729D829D32970089A00080043
:1013B6000034FC34B034E834F534013401340234FA
:1013C600FF34F8007808F7007708F40005308A3112
:1013D600802289310800F8007808FE3E0339F700BC
:1013E6007708F40003308A318022893108000330FF
:1013F6008A31D2228931033A0319022A042A01309A
:10140600052A00300800F000700824009100200032
:10141600911D0E2A0F2A0A2A91112400110808008C
:1014260020008E12FF308A3106228A31F1007108BF
:101436002000DC008E165C080800F7007708F10033
:101446000030F2000530F6007608F30010308C31DB
:1014560098248A3108002400951240309400210017
:101466000D168E130D1324001508F0390238950059
:1014760095160800F000F101442A0314F10D03103B
:10148600F00C023070020318492A4A2A402A7108D1
:1014960008002000111C502A512A5C2A0030210025
:1014A600A5070030A63D0130A73D0030A83D20002D
:1014B60011100800F200210020082105F000720832
:1014C6002105F1007108700603196A2A6C2A013099
:1014D6006D2A003008008A3113228A31893607398D
:1014E600F2007208F30006307302031C7B2A7C2A82
:1014F6007E2A00307F2A01300800F60020008E1276
:10150600760820388A3106228A31F50075082000CF
:10151600DC0074088A3106228A3120008E16080003
:1015260020001608F4001708F500F601F70121005F
:1015360025087404F00026087504F10027087604CF
:10154600F20028087704F300080000308A31D2221E
:101556008A310238F7007708F40000308A31802299
:101566008A311A30F700F830890BB72AF70BB72AF9
:1015760000320800F80078080319C22AC32ACC2AC8
:101586003F30F7007708F40001308A3180228A3133
:10159600D12AF40101308A3180228A310800F20012
:1015A60020008E1272088A3106228A31F1007108F3
:1015B6002000DC00FF308A3106228A31F1007108F2
:1015C600F30020008E1673080800FB000F30770525
:1015D600F8007B080F39F9000330F935FF3E031D8B
:1015E600F02A79357804FA007A08F40004308A3152
:1015F60080228A310800F9007908F1000130F200F2
:101606007708F8007808F30061308D3104258A31B7
:101616004030F8007808F40007308A3180228A3199
:10162600080000308A31D2228B310138F700770862
:10163600F40000308A3180228B317030F700770851
:10164600F40007308A3180228B3120000E17080003
:101656001D308A31D2228B310438F7007708F40026
:101666001D308A3180228B311C308A31D2228B3157
:101676003F38F7007708F4001C308A3180228B311E
:1016860008002000BE003E08BB003B08BD003A082B
:10169600BB003B08AE003D08043E860001308700D3
:1016A600010E0F39BC003C08AF003E088131CE2147
:1016B6008B31080060308A31D2228B31F8007808ED
:1016C600F90021307902031C692B6A2B772B8931AB
:1016D600C0218B310B30F8006230890B702BF80B70
:1016E600702B00320030782B790808002000A60005
:1016F6002608A5002508A7002708053EFC0001309E
:10170600FD008B31D3238B3120002708043E860051
:101716000130870001088F3120278B312000DA0144
:10172600DA0A0800F80020005B08F339F7007708AA
:10173600DB007808031DA02BA12BA22BAB2B780373
:10174600031DA62BA72BA92BDB15AB2BDB155B15D6
:101756005B08F7007708F40000308A3180228B316D
:101766000800F2007208F1000430F136890BB82B3C
:1017760071086B3E840088300318013E850000081E
:101786008931D2218B3172080F396B3E8400883043
:101796000318013E850000088931D2218B310800EB
:1017A600CC30F0000030F1007D08F3007C08F20038
:1017B6000530F4000030F5008D3152258B312100C3
:1017C60020082000A00020082100CC00CC30F70023
:1017D6000030F80001308E3175268B31080020006C
:1017E6000E1300308A31D2228B31FE39F70077088A
:1017F600F40000308A3180228B3102308A31D222C5
:101806008B310138F7007708F40002308A318022E4
:101816008B31AD30890B0D2C00000800F400083028
:10182600F1007108F5002A2CF41B1A2C1B2C202C15
:101836003030F2000030F300242C3130F20000305A
:10184600F30072088931D2218C310310F40D013076
:10185600F502750A031D302C312C172C0800643054
:10186600F3007308F400432C7108840072088500A5
:1018760000088931D2218C310130F1070030F23D68
:101886007108840072088500120003194B2C4C2C39
:10189600532C0130F402740A031D522C532C372C9E
:1018A60008002000A6002608FD007D08A5002030BF
:1018B600FD0025088600013087007D088100210093
:1018C6002008FD0020002508023E86000130870022
:1018D6007D0881002408FD007D08A00026088431CB
:1018E60010248C3108008F2C8B315D238C31200025
:1018F600C4004408C5004508C4004408F700203069
:101906008A31FE228C3120004508C4004408BF00FD
:1019160020308F3163278C318A316E228C31003A28
:10192600031D962C972C772C0800F50020008E12AC
:10193600750820388A3106228C31F400740820009C
:10194600DC00B32C710884007208850000088A3117
:1019560006228C310130F1070030F23D0130F302EE
:101966007308031DB72CB82CA52C20008E16080072
:10197600F80006308A31D2228C31F7007708F90058
:101986007908D739F7007708F90002307806031D81
:10199600CD2CCE2CD02CF916D62C7803031DD42CA6
:1019A600D52CD62CF9157908F7007708F4000630FF
:1019B6008A3180228C310800FA0006308A31D22220
:1019C6008C31F839F7007708F80004307A020318EA
:1019D600ED2CEE2CF32C7A08F7007708F900F72C9B
:1019E6000330F7007708F9007935F7007708F8042F
:1019F6007808F7007708F40006308A3180228C31A7
:101A06000800F50020008E1275088A3106228D31F5
:101A1600F40074082000DC001F2DFF308A310622F6
:101A26008D31F40071088600720887007408810001
:101A36000130F1070030F23D0130F302730A031D55
:101A4600252D262D102D20008E160800F200F401FB
:101A5600700803192F2D302D502DF301F30A392D5F
:101A66000310F00D0130F1007108F307F01F3C2D53
:101A76003D2D332D0310F40D70087202031C442D06
:101A8600452D482D7008F20274140310F00C013035
:101A9600F302031D4F2D502D3D2D740808007308C9
:101AA600FA007208F9007108F8007008F700712D45
:101AB600790886007A0887000108F6007608FB0098
:101AC6000130F9070030FA3D77088600780887006C
:101AD6007B0881000130F7070030F83D0130F40241
:101AE6000030F53B740A031D7C2D750A031D7C2D01
:101AF6007D2D5B2D08008931FA218D31003A031DB9
:101B0600852D862DAA2D5830F1008830F2008C31B3
:101B160032248D310A308931D2218D318931FA2131
:101B26008D31003A0319982D992D912D7B30F100B6
:101B36008830F2008C3132248D310A308931D2213D
:101B46008D318D31AB258D31803130208D310800BE
:101B56008531DE258D3105308931EE218D318B3190
:101B66002B238D3100308C31BB248D3101308B31EC
:101B760095238D310030F7008830F80000308E3123
:101B860075268D3101308A31BD228D31033020001A
:101B9600A0002008F4008931A3218D3120308D3139
:101BA600D9258D318B3114238D310800F800780842
:101BB600F7007708F40011308A3180228D317808D9
:101BC600F7007708F40012308A3180228D317808C8
:101BD600F7007708F40013308A3180228D317808B7
:101BE600F7007708F40014308A3180228D317808A6
:101BF600F7007708F40015308A3180228D31780895
:101C0600F7007708F40016308A3180228D310800FB
:101C1600F4007108FF3EF2007208F4073A2E7408C9
:101C2600860087010108F2007208F3007308F200CB
:101C36000430F236890B1C2E72086B3E8400883005
:101C46000318013E850000088931D2218E317308C0
:101C56000F396B3E840088300318013E850000086A
:101C66008931D2218E310130F4020130F10271083E
:101C7600031D3E2E3F2E122E08002000AD002D081B
:101C8600AB002B08AC002C0A8600013087008101CE
:101C9600810A2808AB002C08033E86000130870025
:101CA6002B0881002C08043E8600013087000108BD
:101CB6002906F039290681002A08AB002C08043EC3
:101CC600860001308700AB0E01082B060F392B0664
:101CD60081002708AB002B08A4002D088C31542462
:101CE6008E310800FB0002307B0203187B2E7C2E0F
:101CF6008A2E7808F2007708F1000530F900790895
:101D0600F3007B080A3E8C3198248E31972E770893
:101D16008400780885000008F9007908F4007B083B
:101D26000A3E8A3180228E310130F9007B0A9C2ED0
:101D3600F935890B9B2E02308A31D2228E317904F5
:101D4600FA007A08F40002308A3180228E310800C7
:101D5600F1000310F10C0310F10CF201B82E013062
:101D6600F0007008F2070310F10C71080319BC2E7D
:101D7600BD2EC12E711CC02EC12EB22E0B178B1775
:101D86002100111420001813981398157208F000FA
:101D96000130F036890BCC2E7018D22ED52E2000AD
:101DA6009816D72E200098127218DA2EDD2E2000F3
:101DB6001816DF2E20001812181496019701080035
:101DC600FA0020008E12A0308A3106228E31F900E8
:101DD60079082000DC00FB2E7A0886000130870097
:101DE60001088A3106228E310130F9007908FA0796
:101DF6000130F802780A031D012F022FEF2E200072
:101E06008E160E178A3113228E31303903190C2F94
:101E16000D2F052F20000E137030F9007908F400FD
:101E260007308A3180228E3120005C1E1B2F1C2F2A
:101E36001F2F8931C9218E3108002000A3002308F5
:101E4600A10021082100A000200023088A313D229C
:101E56008F312000A10021082100A1002108013EA8
:101E66002000A10021082100A20022082000A100D4
:101E76000130A135890B3C2F2100210820052000C7
:101E86002104A20022082100A30022082000A100AC
:101E96000130A135890B4C2F210021082005200097
:101EA6002104210022042000A20022082100A4000F
:101EB600CC30FC000030FD008B31D3238F3108007D
:101EC6002000C3004308C0004008C2004208033E89
:101ED6008600013087000108210020060319742FAF
:101EE600752F912F20003F08C0004008A00043082E
:101EF600843110248F31AC2F3F08C0004008BA004F
:101F060043088B3144238F31AC2F3F08C000400873
:101F1600A40043088B3179238F31AC2F2000420A6D
:101F26008600013087000108C000C1014108003A5F
:101F360003199E2FAC2F4008003A0319AC2F013A23
:101F460003197F2F033A0319AC2F013A0319882F7F
:101F5600AC2F0800FB01F81FB12FB22FB92FF709DC
:101F6600F809F70A0319F80AFB01FB0AF61FBC2F4A
:101F7600BD2FC22FF509F609F50A0319F60A7508E9
:101F860076040319C72FC82FF12FFA01FA0AD42FA6
:101F96000130F535F60D890BCC2F0130F9007908A3
:101FA600FA07F61FD72FD82FCB2F76087802031DF6
:101FB600DE2F75087702031CE12FE22FE62F750846
:101FC600F7027608F83B0130F636F50C890BE72F59
:101FD6000130FA02031DF02FF12FD82F7B080319C9
:101FE600F52FF62FFB2FF709F809F70A0319F80A58
:0A1FF6007808F6007708F5000800EF
:020000040001F9
:02000E00C42903
:00000001FF
