:0400000080310B2818
:100008007E1480318A31032280317E1009008031CC
:100018000D285A308400893085005630860000301B
:100028008700043089317A21803163308400893037
:100038008500D730860000308700053089317A2165
:100048008031DA01DB01DC01A0308400003085005A
:1000580037308931742180312030840001308500A7
:1000680040308931742180317E1020008331A12BEA
:100078002000B40003302F06031D43284428022A19
:1000880007302E02031849284A284B28022A340828
:10009800B0003008B9002E08F93EB000FF30031850
:1000A8000030B100B136B00C3008B200B20DB20D5C
:1000B8002100290820003206C33932062100A90090
:1000C80020003908063E8600013087000108033900
:1000D800003A031D70287128F6281E30F100893077
:1000E800F2008B31E92380310A3089319221803145
:1000F80040302000B0003008B8003908053E8600BE
:10010800013087000108B0003808053E860001303C
:100118008700300881003808063E860001308700D5
:1001280001153808063E8600013087000108FC39B1
:10013800023881003908023E860001308700010834
:10014800B0003808033E860001308700300881007F
:100158003908043E86000130870001080F39B000D5
:100168003808043E860001308700B00E01083006CA
:100178000F39300681002030B00038088600013081
:100188008700300881003808073EF0000130F10090
:100198005630F2000030F3000430F4000030F5006F
:1001A8008D31092580310B302000B0003008A700C0
:1001B80039088600013087000130423FA80003302B
:1001C800B1003108A9003908043E860001308700D3
:1001D80001080F39B2003208AA0040308E312A26B1
:1001E8008031DA293908063E860001308700010887
:1001F8000339013A031D01290229DA290830F100DF
:100208008930F2008B31E92380318A30F10088305F
:10021800F2008B31E92380313D30893192218031E0
:100228002100290C890C0F398F31A72780310A301A
:100238008931922180312000B3016929333539078A
:10024800B0003008073E860001308700403FB50007
:10025800413FB60004303502031833293429652993
:100268002530F1008930F2008B31E92380313D30AF
:10027800893192218031200035088F31A7278031BC
:100288000A308931922180310E30F1008930F20034
:100298008B31E92380313D30893192218031200032
:1002A80036088F31A72780310A3089319221803171
:1002B80020003608B0003535573E860087013008E3
:1002C80081000130B0003008B3072100290C890CE7
:1002D8000F3920003302031C722973292229403068
:1002E800B0003008B7003908053E860001308700A5
:1002F8000108B0003708053E860001308700300845
:1003080081003708063E860001308700011537084E
:10031800063E8600013087000108FC39023881005A
:100328003908023E8600013087000108B00037080E
:10033800033E860001308700300881003908043EFA
:1003480086000130870001080F39B0003708043EE5
:10035800860001308700B00E010830060F393006DC
:1003680081002030B000370886000130870030084F
:1003780081000730B0003008A70039088600013036
:1003880087000130423FA8000330B1003108A900BE
:100398003908043E86000130870001080F39B20091
:1003A8003208AA0040308E312A2680312100291CCB
:1003B800DE29DF29022A20003908053E860001309F
:1003C8008700010821002B06031DEB29EC29022ACE
:1003D800AC30F0000030F10020003408F2000130A9
:1003E800F3002E08B000B1013008F4003108F50020
:1003F8008D310925803121002910A91408004130C8
:10040800F1008830F2008B31E92382310A308931DA
:1004180092218231CA30F1008830F2008B31E92311
:1004280082313D3089319221823100308A318922EE
:1004380082318B31C82382310A308931922182314D
:10044800FC30F1008830F2008B31E92382313D30F5
:1004580089319221823101308A31892282318B316E
:10046800C82382310A30893192218231AE30F100BD
:100478008830F2008B31E92382313D308931922175
:10048800823102308A31892282318B31C82382310C
:100498000A30893192218231C130F1008830F2006E
:1004A8008B31E92382313D30893192218231033009
:1004B8008A31892282318F31A72782310A308931E6
:1004C800922182319830F1008830F2008B31E92393
:1004D80082313D3089319221823104308A3189223A
:1004E80082318B31C82382310A308931922182319D
:1004F8000230F1008930F2008B31E92382313D303E
:1005080089319221823105308A31892282318F31B5
:10051800A72782310A30893192218231B830F1001F
:100528008830F2008B31E92382313D3089319221C4
:10053800823106308A31892282318B31C823823157
:100548000A30893192218231D130F1008830F200AD
:100558008B31E92382313D30893192218231073054
:100568008A31892282318B31C82382310A3089311C
:1005780092218231A330F1008830F2008B31E923D7
:1005880082313D3089319221823108308A31892285
:1005980082318B31C82382310A30893192218231EC
:1005A8002930F1000030F2000530FC007C08F3002F
:1005B8000A308C31BB248231D830F1008830F20007
:1005C8008B31E92382313D308931922182310530E6
:1005D800FC007C08F10029308D31F52582310A3084
:1005E8008931922182312930F1000030F200053042
:1005F800FC007C08F3000B308C31BB248231DE30E8
:10060800F1008830F2008B31E92382313D308931A5
:10061800922182310530FC007C08F10029308D31AF
:10062800F52582310A30893192218231E430F10096
:100638008830F2008B31E92382313D3089319221B3
:1006480082310C308A31892282318B316B2382319D
:100658000A30893192218231EA30F1008830F20083
:100668008B31E92382313D308931922182310D303D
:100678008A31892282318B316B2382310A30893168
:1006880092218231F030F1008830F2008B31E92379
:1006980082313D308931922182310E308A3189226E
:1006A80082318B316B2382310A3089319221823138
:1006B800F630F1008830F2008B31E92382313D3089
:1006C8008931922182310F308A31892282318B31EE
:1006D8006B2382310A308931922182312930F1002D
:1006E8000030F2000530FC007C08F30010308C313B
:1006F800BB248231AB30F1008830F2008B31E92322
:1007080082313D308931922182310530FC007C08EC
:10071800F10029308D31F52582310A308931922155
:1007280082312A30F1008830F2008B31E92382319E
:100738000A3089319221823108007A3021009900EB
:100748008E110E1223008C018D018E0121008D1354
:1007580020008D1321008E14103089316E218331D1
:100768008931E521833100302000B1000030B0002C
:100778002530AF008030AE0087315E2783318D3160
:10078800622583317330893168218331D730FC0089
:100798000030FD008B318A23833100308731BD273B
:1007A80083318231032283318D3135258331200015
:1007B8008E150530F1008830F2008B31E923833142
:1007C8000A30893192218331062C8C312D248331D2
:1007D8002830F1008930F2008B31E92383318D31E3
:1007E80035258331103020008E0607302000D400D4
:1007F8001730D3006A30890BFF2BD30BFF2BD40B98
:10080800FF2B000020005A0803190B2C0C2CE92B95
:100818000E160330D3005308C6005630D4005408CF
:10082800C7000230D5005508C800013085319A2527
:1008380083318C312D24833120008E118D31352563
:10084800833120005718292C2C2C20008D172E2C92
:1008580020008D1300308E180130F800D230863118
:1008680099268331003A03193A2C3B2C1D2C200081
:1008780057080319402C422C0130432C0030D30078
:100888005308D7000330D3005308C6005630D400AD
:100898005408C7000230D5005508C800013085311A
:1008A8009A2583311D2C80310B282000A3002308B2
:1008B800FC007C08A20021002008031D642C652C84
:1008C800662C092D20002208033E8600013087008F
:1008D80001088931F4218431FC007C082000A10042
:1008E80021082100210203187A2C7B2CE12C2000FE
:1008F8002208033E86000130870001088A3114224D
:100908008431003A0319892C8A2CE12C2000220812
:10091800033E8600013087000108210022050319E3
:10092800962C972CBC2C2408FC007C08CC00CC30DE
:10093800F7000030F80000308E315F268431CC306B
:100948008931D72184318B31A923843120002008B3
:10095800FC007C08F80023088E31CD268431003055
:10096800F7008830F80000308E315F268431062D7C
:100978002308FC007C08CC00CC30F7000030F800DD
:1009880000308E315F268431CC308931D7218431D3
:100998008B31A923843120002008FC007C08F80052
:1009A80023088E31CD2684310030F7008830F800D6
:1009B80000308E315F268431062D21002008FC008E
:1009C8007C08CC00CC30F7000030F80000308E31C5
:1009D8005F268431CC308931D72184318B31A923EA
:1009E800843120002008FC007C08F80023088E31A0
:1009F800CD2684310030F7008830F80000308E3181
:100A08005F2684318A31CB22843108002000A90175
:100A1800A31F0F2D102D1D2DA009A109A209A3099F
:100A2800A00A0319A10A0319A20A0319A30AA90112
:100A3800A90AA71F202D212D302DA409A509A60933
:100A4800A709A40A0319A50A0319A60A0319A70ADC
:100A58000130FC007C08A9060030AD000030AC0075
:100A68000030AB000030AA0023082204210420042F
:100A780003193F2D402D812DA801A80A4E2D0130C4
:100A8800A035A10DA20DA30D890B442D0130FC004A
:100A98007C08A807A31F512D522D432D0130AA35DC
:100AA800AB0DAC0DAD0D890B532D23082702031D8B
:100AB800672D22082602031D672D21082502031D24
:100AC800672D20082402031C6A2D6B2D742D200825
:100AD800A4022108A53B2208A63B2308A73B2A1409
:100AE8000130A336A20CA10CA00C890B752D013086
:100AF800A802031D802D812D522D29080319852D4B
:100B0800862D912DAA09AB09AC09AD09AA0A0319CA
:100B1800AB0A0319AC0A0319AD0A2D08A3002C0867
:100B2800A2002B08A1002A08A00008002000D1007C
:100B38004030C9004908D2005208063E86000130FC
:100B48008700011521002A082000C9005208053E27
:100B5800860001308700490881005208063E860059
:100B6800013087000108FC390138810021002A087A
:100B78002000C90049082100AB002914A910013040
:100B88002000C90049082100AA074730F0000130B9
:100B9800F10020004708F2000030F3004808C900BF
:100BA800CA014935F4004A0DF5008D310925853112
:100BB80020004835073EC9004908A7005108CA0067
:100BC8004A08A8000330CB004B08A9004608CC000F
:100BD8004C08AA0040308E312A2685318A314A22B3
:100BE8008531703070072000CD008230713DCE0015
:100BF8000330723DCF000030733DD000062E8C319B
:100C08002D2485318A314A2285312000500873020B
:100C1800031D182E4F087202031D182E4E0871026C
:100C2800031D182E4D08700203181B2E1C2E212E92
:100C38002100A91C202E212E032E2100A91C252EBF
:100C4800262E262E080021000E138E1220000E13C9
:100C58008E160330FD000830FC007730890B322EE9
:100C6800FC0B322EFD0B322E00001A30FC00F8303F
:100C7800890B3C2EFC0B3C2E00320F30FC007C080C
:100C8800F70005308A319F22863103308C31962453
:100C9800863100308C3172248631F4011D308A315E
:100CA80037228631F4011C308A31372286313F30B1
:100CB800FC007C08F40001308A3137228631033089
:100CC800FC007C08F40002308A313722863120305B
:100CD8008D319025863105308931A52186314C30FA
:100CE80089319B2186317030FC007C08F400073084
:100CF8008A313722863189318021863189318921AB
:100D080086310C30FC007C08F40000308A31372230
:100D180086318A315F22863100308A3189228631D4
:100D2800FC007C082000DB0008002000A200A001D5
:100D38002208043E860087010108031DA42EA52E63
:100D4800CD2E78080319A92EAA2ECD2E8A314A2233
:100D580086312000220886008701403FF900413F84
:100D6800FA00423FFB00433FFC0073087C02031D6E
:100D7800C72E72087B02031DC72E71087A02031D55
:100D8800C72E700879020318CA2ECB2ECD2EA001CB
:100D9800A00A2008F9007908A10021080319D52E16
:100DA800D62EF52EA030F9008630FA000130FB006F
:100DB8000030FC008A314A2286317008F907710830
:100DC800FA3D7208FB3D7308FC3D200022088600AE
:100DD80087017908C03F7A08C13F7B08C23F7C0879
:100DE800C33F7808F9002208043E86008701790885
:100DF800810021080800F601F11F032F042F0B2F93
:100E0800F009F109F00A0319F10AF601F60AF31FCD
:100E18000E2F0F2F182FF209F309F20A0319F30AFC
:100E28000130F4007408F606F701F801700871043F
:100E380003191F2F202F4F2FF501F50A2C2F0130F2
:100E4800F035F10D890B242F0130F4007408F507F3
:100E5800F11F2F2F302F232F0130F735F80D890B75
:100E6800312F71087302031D3B2F70087202031C97
:100E78003E2F3F2F442F7008F2027108F33B77147E
:100E88000130F136F00C890B452F0130F502031DB6
:100E98004E2F4F2F302F76080319532F542F592FC9
:100EA800F709F809F70A0319F80A7808F10077082A
:100EB800F000080020002E08B2002F08B300300808
:100EC800B4003108B5000630B235B30DB40DB50D18
:100ED800890B682F3508A3003408A2003308A10045
:100EE8003208A0000030B6002430B700F430B80053
:100EF8000030B9003108F3003008F2002F08F10083
:100F08002E08F000FF30F700FF30F600FF30F50044
:100F1800BE30F4008D31C225873170082000B60735
:100F28007108B73D7208B83D7308B93D3908A70084
:100F38003808A6003708A5003608A40085310A2518
:100F4800873120002108BB002008BA003A08230096
:100F58009B001E1522009D131D1523008D121E12C5
:100F68009D1721000E168D1623009E111D169E1624
:100F780008002000A3002308A10021082100A000E8
:100F8800200023088931F42187312000A10021089D
:100F98002100A1002108013E2000A1002108210014
:100FA800A20022082000A1000130A135890BD92F09
:100FB80021002108200520002104A2002208210088
:100FC800A30022082000A1000130A135890BE92FD8
:100FD80021002108200520002104210022042000EE
:100FE800A20022082100A400CC30FC000030FD0043
:100FF8008B318A2387310800E93470349D346B348F
:10100800C534773461346934743469346E34673480
:10101800203466346F347234203463346F346E3461
:1010280066346934673475347234613474346934BD
:101038006F346E3420346D346534733473346134F2
:10104800673465342E342E342E3400343D343D3428
:101058003D343D3445344E34443420344F344634E2
:101068002034443445345434413449344C345334B2
:101078003D343D343D343D3400343D343D343D341D
:101088005334543441345234543420344F34463475
:101098002034443445345434413449344C34533482
:1010A8003D343D343D3400345234463432343434E3
:1010B800203464346934733463346F346E346E347A
:1010C8006534633474346534643421340034303422
:1010D80031343234333434343534363437343834C4
:1010E8003934413442344334443445344634523438
:1010F800463432343434203463346F346E346E34CE
:10110800653463347434653464340034723465345B
:1011180071342E34703472346F3470342E34733426
:1011280069347A346534003453344534543455348E
:1011380050345F34523445345434523400344F34CC
:101148004234533445345234563445345F3454347D
:101158005834003445344E345F34523458344134B2
:101168004434443452340034523446345F345334B3
:10117800453454345534503400345334453454349D
:10118800553450345F3441345734003443344F3489
:101198004E3446344934473400345334543441349B
:1011A8005434553453340034523458345F34503442
:1011B80030340034523458345F34503431340034CD
:1011C800523458345F345034323400345234583442
:1011D8005F34503433340034523458345F3450342C
:1011E80034340034523458345F3450343534003495
:1011F80045344E345F34413441340034523446343B
:101208005F3443344834003470346F347334743486
:1012180020340034763461346C34753465340034E9
:10122800F9343634CD34AC34E734463441344934B7
:101238004C34003467346534743400344F344B34E0
:0C12480000346934643400342334003472
:1012B400003401340234FF3406308A318922893102
:1012C40008000034FC34B034E834F534F90079080B
:1012D40089319B2189310800F30073088E319526EA
:1012E40089310800640080010131890B75290034BB
:1012F400FE0012001E00FE0B7B290034FF30F700B5
:101304007708F400E2308A31372289310800FF304F
:10131400F7007708F400E1308A3137228931080078
:10132400F00023009E1C97299829932970089A009D
:101334000800F8007808F7007708F40005308A31CF
:10134400372289310800F8007808FE3E0339F70097
:101354007708F40003308A313722893108000330DA
:101364008A3189228931033A0319B929BB29013009
:10137400BC2900300800F00070082400910020000F
:10138400911DC529C629C1299111240011080800FD
:1013940020008E12FF308931BD218931F10071089E
:1013A4002000DC008E165C080800F7007708F100C6
:1013B4000030F2000530F6007608F30010308C316E
:1013C4004F248931080024009512403094002100F4
:1013D4000D168E130D1324001508F03902389500EC
:1013E40095160800F000F101FB290314F10D031018
:1013F400F00C023070020318002A012AF729710840
:1014040008002000111C072A082A132A0030210092
:10141400A5070030A63D0130A73D0030A83D2000BF
:1014240011100800F200210020082105F0007208C4
:101434002105F100710870060319212A232A0130BD
:10144400242A003008008931CA218A3189360739B3
:10145400F2007208F30006307302031C322A332AA6
:10146400352A0030362A01300800F60020008E129A
:10147400760820388931BD218A31F50075082000AD
:10148400DC0074088931BD218A3120008E160800E1
:1014940020001608F4001708F500F601F7012100F2
:1014A40025087404F00026087504F1002708760462
:1014B400F20028087704F300080000308A318922FA
:1014C4008A310238F7007708F40000308A31372275
:1014D4008A311A30F700F830890B6E2AF70B6E2A1E
:1014E40000320800F80078080319792A7A2A832A36
:1014F4003F30F7007708F40001308A3137228A310F
:10150400882AF40101308A3137228A310800F20036
:1015140020008E1272088931BD218A31F1007108D0
:101524002000DC00FF308931BD218A31F1007108CF
:10153400F30020008E1673080800FB000F307705B7
:10154400F8007B080F39F9000330F935FF3E031D1D
:10155400A72A79357804FA007A08F40004308A312D
:1015640037228A310800F9007908F1000130F200CD
:101574007708F8007808F30061308C31BB248A3195
:101584004030F8007808F40007308A3137228A3175
:10159400080000308A3189228A310138F70077083F
:1015A400F40000308A3137228A317030F70077082E
:1015B400F40007308A3137228A3120000E170800E0
:1015C4001D308A3189228A310438F7007708F40003
:1015D4001D308A3137228A311C308A3189228A317E
:1015E4003F38F7007708F4001C308A3137228A31FB
:1015F40008002000BE003E08BB003B08BD003A08BE
:10160400BB003B08AE003D08043E86000130870065
:10161400010E0F39BC003C08AF003E0880313C206D
:101624008A31080060308A3189228B31F8007808C9
:10163400F90021307902031C202B212B2E2B893118
:1016440080218B310B30F8006230890B272BF80B8B
:10165400272B003200302F2B790808002000A60029
:101664002608A5002508A7002708053EFC00013030
:10167400FD008B318A238B3120002708043E86002D
:101684000130870001088731BD278B312000DA0142
:10169400DA0A0800F80020005B08F339F70077083D
:1016A400DB007808031D572B582B592B622B78032A
:1016B400031D5D2B5E2B602BDB15622BDB155B158D
:1016C4005B08F7007708F40000308A3137228B3149
:1016D4000800F2007208F1000430F136890B6F2B18
:1016E40071086B3E840088300318013E85000008B1
:1016F400893192218B3172080F396B3E8400883016
:101704000318013E85000008893192218B310800BD
:10171400CC30F0000030F1007D08F3007C08F200CA
:101724000530F4000030F5008D3109258B3121009E
:1017340020082000A00020082100CC00CC30F700B5
:101744000030F80001308E315F268B310800200014
:101754000E1300308A3189228B31FE39F700770865
:10176400F40000308A3137228B3102308A318922E9
:101774008B310138F7007708F40002308A313722C0
:101784008B31AD30890BC42B00000800F400083005
:10179400F1007108F500E12BF41BD12BD22BD72BD0
:1017A4003030F2000030F300DB2B3130F200003037
:1017B400F3007208893192218B310310F40D01304A
:1017C400F502750A031DE72BE82BCE2B08006430C5
:1017D400F3007308F400FA2B710884007208850082
:1017E4000008893192218B310130F1070030F23D3C
:1017F400710884007208850012000319022C032C5E
:101804000A2C0130F402740A031D092C0A2CEE2B55
:1018140008002000A6002608FD007D08A500203051
:10182400FD0025088600013087007D088100210025
:101834002008FD0020002508023E860001308700B4
:101844007D0881002408FD007D08A000260884315D
:1018540059248C310800462C8B3114238C31200000
:10186400C4004408C5004508C4004408F7002030FB
:101874008A31B5228C3120004508C4004408BF00D9
:1018840020308F310A278C318A3125228C31003A5D
:10189400031D4D2C4E2C2E2C0800F50020008E121A
:1018A400750820388931BD218C31F400740820007A
:1018B400DC006A2C710884007208850000088931F4
:1018C400BD218C310130F1070030F23D0130F302CB
:1018D4007308031D6E2C6F2C5C2C20008E160800E0
:1018E400F80006308A3189228C31F7007708F90034
:1018F4007908D739F7007708F90002307806031D14
:10190400842C852C872CF9168D2C7803031D8B2CA5
:101914008C2C8D2CF9157908F7007708F400063023
:101924008A3137228C310800FA0006308A31892244
:101934008C31F839F7007708F80004307A0203187C
:10194400A42CA52CAA2C7A08F7007708F900AE2C51
:101954000330F7007708F9007935F7007708F804C1
:101964007808F7007708F40006308A3137228C3182
:101974000800F50020008E1275088931BD218C31D4
:10198400F40074082000DC00D62CFF308931BD211E
:101994008C31F40071088600720887007408810095
:1019A4000130F1070030F23D0130F302730A031DE8
:1019B400DC2CDD2CC72C20008E160800F200F4016C
:1019C40070080319E62CE72C072DF301F30AF02C19
:1019D4000310F00D0130F1007108F307F01FF32C30
:1019E400F42CEA2C0310F40D70087202031CFB2C77
:1019F400FC2CFF2C7008F20274140310F00C01305C
:101A0400F302031D062D072DF42C74080800730837
:101A1400FA007208F9007108F8007008F700282D20
:101A2400790886007A0887000108F6007608FB002A
:101A34000130F9070030FA3D7708860078088700FE
:101A44007B0881000130F7070030F83D0130F402D3
:101A54000030F53B740A031D332D750A031D332D25
:101A6400342D122D08008931B1218D31003A031D26
:101A74003C2D3D2D612D5830F1008830F2008B3122
:101A8400E9238D310A30893192218D318931B12197
:101A94008D31003A03194F2D502D482D7B30F10024
:101AA4008830F2008B31E9238D310A30893192215B
:101AB4008D318D3162258D31823103228D310800C3
:101AC400863127268D3105308931A5218D318A3122
:101AD400E2228D3100308C3172248D3101308B3112
:101AE4004C238D310030F7008830F80000308E31FF
:101AF4005F268D3101308A3174228D31033020000C
:101B0400A0002008F40089315E218D3120308D3110
:101B140090258D318A31CB228D310800F800780868
:101B2400F7007708F40011308A3137228D317808B4
:101B3400F7007708F40012308A3137228D317808A3
:101B4400F7007708F40013308A3137228D31780892
:101B5400F7007708F40014308A3137228D31780881
:101B6400F7007708F40015308A3137228D31780870
:101B7400F7007708F40016308A3137228D310800D7
:101B84000030FB000030FA000030F9000030F800AB
:101B9400701CCD2DCE2DD62D7408F8077508F93D8F
:101BA4007608FA3D7708FB3D0130F435F50DF60D66
:101BB400F70D890BD72D0130F336F20CF10CF00C34
:101BC400890BDE2D7308720471047004031DEB2D60
:101BD400EC2DCA2D7B08F3007A08F2007908F10095
:101BE4007808F0000800F4007108FF3EF200720863
:101BF400F407242E7408860087010108F200720895
:101C0400F3007308F2000430F236890B062E7208D2
:101C14006B3E840088300318013E8500000889313A
:101C240092218D3173080F396B3E8400883003187C
:101C3400013E85000008893192218D310130F40282
:101C44000130F1027108031D282E292EFC2D0800F5
:101C54002000AD002D08AB002B08AC002C0A860038
:101C6400013087008101810A2808AB002C08033E5B
:101C74008600013087002B0881002C08043E860072
:101C84000130870001082906F039290681002A0855
:101C9400AB002C08043E860001308700AB0E01081F
:101CA4002B060F392B0681002708AB002B08A40054
:101CB4002D088C310B248E310800FB0002307B028E
:101CC4000318652E662E742E7808F2007708F1004A
:101CD4000530F9007908F3007B080A3E8C314F2463
:101CE4008E31812E77088400780885000008F90079
:101CF4007908F4007B080A3E8A3137228E3101309C
:101D0400F9007B0A862EF935890B852E02308A313B
:101D140089228E317904FA007A08F40002308A317B
:101D240037228E310800F1000310F10C0310F10C7E
:101D3400F201A22E0130F0007008F2070310F10C3A
:101D440071080319A62EA72EAB2E711CAA2EAB2E3A
:101D54009C2E0B178B1721001114200018139813B5
:101D640098157208F0000130F036890BB62E701801
:101D7400BC2EBF2E20009816C12E20009812721877
:101D8400C42EC72E20001816C92E200018121814AD
:101D9400960197010800FA0020008E12A0308931C4
:101DA400BD218E31F90079082000DC00E52E7A0887
:101DB40086000130870001088931BD218E31013050
:101DC400F9007908FA070130F802780A031DEB2EAE
:101DD400EC2ED92E20008E160E178931CA218E3191
:101DE40030390319F62EF72EEF2E20000E13703023
:101DF400F9007908F40007308A3137228E31200047
:101E04005C1E052F062F092F893189218E31080088
:101E14002000C3004308C0004008C2004208033E3B
:101E240086000130870001082100200603191B2FBA
:101E34001C2F382F20003F08C0004008A000430892
:101E4400843159248F31532F3F08C0004008BA0011
:101E540043088A31FB228F31532F3F08C0004008CA
:101E6400A40043088B3130238F31532F2000420AC2
:101E74008600013087000108C000C1014108003A12
:101E84000319452F532F4008003A0319532F013AE1
:101E94000319262F033A0319532F013A03192F2F3D
:101EA400532F0800FB01F81F582F592F602FF709F3
:101EB400F809F70A0319F80AFB01FB0AF61F632F56
:101EC400642F692FF509F609F50A0319F60A75084E
:101ED400760403196E2F6F2F982FFA01FA0A7B2FBD
:101EE4000130F535F60D890B732F0130F9007908AF
:101EF400FA07F61F7E2F7F2F722F76087802031DB4
:101F0400852F75087702031C882F892F8D2F75085C
:101F1400F7027608F83B0130F636F50C890B8E2F64
:101F24000130FA02031D972F982F7F2F7B08031986
:101F34009C2F9D2FA22FF709F809F70A0319F80A15
:101F44007808F6007708F50008002000A700643040
:101F540027020318AE2FAF2FC32F0A30270203180E
:101F6400B42FB52FBA2F0130A5000030A600BE2F24
:101F74000A30A5000030A6002608A4002508A30006
:101F8400C72F6430A3000030A4002308A000200859
:101F9400A8000A30F5000030F6002808A000200848
:101FA400F00027088C31E0248F312000A100A20129
:101FB4002108F7002208F8008F3154278F31750863
:101FC400303E893192218F310A30F0000030F10027
:101FD40020002808A000A1012008F2002108F30035
:101FE4008631FF268F3170082000A2002208A80045
:0C1FF4002808031DFE2FFF2FCB2F080034
:020000040001F9
:02000E00C42903
:00000001FF
