:0400000080310B2818
:100008007E1480318A31B62280317E100900803119
:100018000D280D3084008A30850056308600003067
:10002800870004308A312D228031163084008A30CE
:100038008500D23086000030870005308A312D22B5
:100048008031DA01DB01DC01A0308400003085005A
:1000580032308A31272280312030840001308500F7
:1000680040308A31272280317E1020008331E92BED
:100078001B30F1008830F2008C319C2480310A302A
:100088008A31452280319630F1008830F2008C3177
:100098009C2480313D308A314522803100308B31BB
:1000A8003C2380318C317B2480310A308A314522CF
:1000B8008031C830F1008830F2008C319C248031C6
:1000C8003D308A314522803101308B313C238031EB
:1000D8008C317B2480310A308A31452280317A3054
:1000E800F1008830F2008C319C2480313D308A3117
:1000F8004522803102308B313C2380318C317B2486
:1001080080310A308A31452280318D30F1008830C3
:10011800F2008C319C2480313D308A314522803177
:1001280003308B313C2380318631E42680310A301C
:100138008A31452280316430F1008830F2008C31F8
:100148009C2480313D308A314522803104308B3106
:100158003C2380318C317B2480310A308A3145221E
:100168008031CE30F1008830F2008C319C2480310F
:100178003D308A314522803105308B313C23803136
:100188008631E42680310A308A3145228031843034
:10019800F1008830F2008C319C2480313D308A3166
:1001A8004522803106308B313C2380318C317B24D1
:1001B80080310A308A31452280319D30F100883003
:1001C800F2008C319C2480313D308A3145228031C7
:1001D80007308B313C2380318C317B2480310A30CD
:1001E8008A31452280316F30F1008830F2008C313D
:1001F8009C2480313D308A314522803108308B3152
:100208003C2380318C317B2480310A308A3145226D
:1002180080312930F1000030F2000530FC007C0804
:10022800F3000A308D316E258031A430F10088301A
:10023800F2008C319C2480313D308A314522803156
:100248000530FC007C08F10029308E31A826803169
:100258000A308A31452280312930F1000030F2001D
:100268000530FC007C08F3000B308D316E258031A1
:10027800AA30F1008830F2008C319C2480313D3066
:100288008A31452280310530FC007C08F100293094
:100298008E31A82680310A308A3145228031B0302B
:1002A800F1008830F2008C319C2480313D308A3155
:1002B800452280310C308B313C2380318C311E2417
:1002C80080310A308A3145228031B630F1008830D9
:1002D800F2008C319C2480313D308A3145228031B6
:1002E8000D308B313C2380318C311E2480310A3013
:1002F8008A3145228031BC30F1008830F2008C31DF
:100308009C2480313D308A31452280310E308B313A
:100318003C2380318C311E2480310A308A314522B9
:100328008031C230F1008830F2008C319C24803159
:100338003D308A31452280310F308B313C2380316A
:100348008C311E2480310A308A314522803129308F
:10035800F1000030F2000530FC007C08F30010309A
:100368008D316E2580317730F1008830F2008C3184
:100378009C2480313D308A31452280310530FC0093
:100388007C08F10029308E31A82680310A308A3164
:10039800452280310430F1008830F2008C319C24F1
:1003A80080310A308A314522803108002000B400AB
:1003B80003302F06031DE129E229372B07302E02CF
:1003C8000318E729E829E929372B3408B000300851
:1003D800B9003908063E8600013087000108033954
:1003E800003A031DF829F929722A4030B000300874
:1003F800B8003908053E8600013087000108B000C2
:100408003808053E8600013087003008810038082A
:10041800063E86000130870001153808063E860032
:10042800013087000108FC39023881003908023E92
:100438008600013087000108B0003808033E8600B6
:1004480001308700300881003908043E86000130F9
:10045800870001080F39B0003808043E86000130D3
:100468008700B00E010830060F39300681002030B1
:10047800B00038088600013087003008810038084D
:10048800073EF0000130F1005630F2000030F30072
:100498000430F4000030F5008D31BC2581310B307B
:1004A8002000B0003008A700390886000130870016
:1004B8000130423FA8000330B1003108A9003908D3
:1004C800043E86000130870001080F39B200320867
:1004D800AA0040308E31DD2681310F2B3908063EC7
:1004E80086000130870001080339013A031D7D2A7F
:1004F8007E2A0F2BB3019E2A33353907B000300806
:10050800073E860001308700403FB500413FB600F6
:10051800043035020318912A922A9A2A3608B00024
:100528003535573E86008701300881000130B0001C
:100538003008B3072100290C890C0F392000330239
:10054800031CA72AA82A802A4030B0003008B70028
:100558003908053E8600013087000108B0003708D9
:10056800053E860001308700300881003708063EC6
:1005780086000130870001153708063E86000130E5
:1005880087000108FC39023881003908023E8600DC
:10059800013087000108B0003708033E86000130AB
:1005A8008700300881003908043E86000130870042
:1005B80001080F39B0003708043E86000130870073
:1005C800B00E010830060F39300681002030B00027
:1005D8003708860001308700300881000730B000F6
:1005E8003008A70039088600013087000130423FF3
:1005F800A8000330B1003108A9003908043E86007C
:100608000130870001080F39B2003208AA004030D3
:100618008E31DD2681312100291C132B142B372B19
:1006280020003908053E86000130870001082100B6
:100638002B06031D202B212B372BAC30F00000306C
:10064800F10020003408F2000130F3002E08B00059
:10065800B1013008F4003108F5008D31BC25813135
:1006680021002910A91408002000A3002308FC0079
:100678007C08A20021002008031D432B442B452B96
:10068800E82B20002208033E86000130870001087D
:100698008A31A7228331FC007C082000A1002108B0
:1006A800210021020318592B5A2BC02B20002208A5
:1006B800033E86000130870001088A31C722833152
:1006C800003A0319682B692BC02B20002208033E2F
:1006D8008600013087000108210022050319752BC7
:1006E800762B9B2B2408FC007C08CC00CC30F70030
:1006F8000030F80000308F3112278331CC308A3136
:100708008A2283318C315C24833120002008FC004C
:100718007C08F80023088F3180278331DA30F7000E
:100728008730F80000308F3112278331E52B2308FA
:10073800FC007C08CC00CC30F7000030F80000301A
:100748008F3112278331CC308A318A2283318C3120
:100758005C24833120002008FC007C08F800230872
:100768008F3180278331DA30F7008730F800003086
:100778008F3112278331E52B21002008FC007C08EB
:10078800CC00CC30F7000030F80000308F31122751
:100798008331CC308A318A2283318C315C24833195
:1007A80020002008FC007C08F80023088F318027EF
:1007B8008331DA30F7008730F80000308F311227A4
:1007C80083318B317E23833108007A3021009900F0
:1007D8008E110E128E1423008C018D018E011030A3
:1007E8008A31212283318A319822833100302000D6
:1007F800B1000030B0002530AF008030AE00863147
:10080800852683318E311526833173308A311B2238
:100818008331D230FC000030FD008C313D2483311F
:1008280000308F31BD27833180313C2083318D31B9
:10083800E825833120008E15DF30F1008730F20083
:100848008C319C2483310A308A3145228331492CEA
:100858008C31E0248331E130F1008830F2008C31B2
:100868009C2483318D31E8258331103020008E0699
:1008780007302000D4001730D3006A30890B422C8F
:10088800D30B422CD40B422C000020005A08031929
:100898004E2C4F2C2C2C0E160330D3005308C600B8
:1008A8005630D4005408C7000230D5005508C80097
:1008B80001308531272583318C31E02483312000B4
:1008C8008E118D31E825833108302000D30053087C
:1008D800A700A801A80A0330D4005408A9000330CF
:1008E800D5005508AA0040308E31DD26833120001E
:1008F8008E1C7F2C802C602C5709D3005308D700FE
:100908000330D3005308C6005630D4005408C7003B
:100918000230D5005508C8000130853127258331BC
:10092800602C80310B282000A901A31F9C2C9D2C32
:10093800AA2CA009A109A209A309A00A0319A10ABE
:100948000319A20A0319A30AA901A90AA71FAD2C12
:10095800AE2CBD2CA409A509A609A709A40A031948
:10096800A50A0319A60A0319A70A0130FC007C0886
:10097800A9060030AD000030AC000030AB000030FC
:10098800AA0023082204210420040319CC2CCD2C0E
:100998000E2DA801A80ADB2C0130A035A10DA20D4F
:1009A800A30D890BD12C0130FC007C08A807A31FDC
:1009B800DE2CDF2CD02C0130AA35AB0DAC0DAD0DE3
:1009C800890BE02C23082702031DF42C2208260299
:1009D800031DF42C21082502031DF42C20082402F1
:1009E800031CF72CF82C012D2008A4022108A53B94
:1009F8002208A63B2308A73B2A140130A336A20CE1
:100A0800A10CA00C890B022D0130A802031D0D2D8D
:100A18000E2DDF2C29080319122D132D1E2DAA09BE
:100A2800AB09AC09AD09AA0A0319AB0A0319AC0A48
:100A38000319AD0A2D08A3002C08A2002B08A10059
:100A48002A08A00008002000D1004030C900490849
:100A5800D2005208063E86000130870001152100A9
:100A68002A082000C9005208053E86000130870088
:100A7800490881005208063E8600013087000108B7
:100A8800FC390138810021002A082000C9004908E2
:100A98002100AB002914A91001302000C900490821
:100AA8002100AA074730F0000130F1002000470874
:100AB800F2000030F3004808C900CA014935F400C3
:100AC8004A0DF5008D31BC25853120004835073E9B
:100AD800C9004908A7005108CA004A08A8000330FD
:100AE800CB004B08A9004608CC004C08AA004030AF
:100AF8008E31DD2685318B312723853170307007A3
:100B08002000CD008230713DCE000330723DCF0011
:100B18000030733DD000932D8C31E02485318B312A
:100B280027238531200050087302031DA52D4F0887
:100B38007202031DA52D4E087102031DA52D4D0837
:100B480070020318A82DA92DAE2D2100A91CAD2DCA
:100B5800AE2D902D2100A91CB22DB32DB32D080068
:100B680021000E138E1220000E138E160330FD0086
:100B78000830FC007730890BBF2DFC0BBF2DFD0B17
:100B8800BF2D00001A30FC00F830890BC92DFC0B72
:100B9800C92D00320F30FC007C08F70005308B317E
:100BA8005223853103308D314925853100308D310F
:100BB80025258531F4011D308A31EA228531F40179
:100BC8001C308A31EA2285313F30FC007C08F40071
:100BD80001308A31EA2285310330FC007C08F400B8
:100BE80002308A31EA22853120308E314326853120
:100BF80005308A31582285314C308A314E22853170
:100C08007030FC007C08F40007308A31EA22853114
:100C18008A31332285318A313C2285310C30FC00FF
:100C28007C08F40000308A31EA2285318A31FD22BD
:100C3800853100308B313C238531FC007C08200055
:100C4800DB000800F601F11F2A2E2B2E322EF009A8
:100C5800F109F00A0319F10AF601F60AF31F352E15
:100C6800362E3F2EF209F309F20A0319F30A01306E
:100C7800F4007408F606F701F80170087104031906
:100C8800462E472E762EF501F50A532E0130F03503
:100C9800F10D890B4B2E0130F4007408F507F11F94
:100CA800562E572E4A2E0130F735F80D890B582E3F
:100CB80071087302031D622E70087202031C652EF0
:100CC800662E6B2E7008F2027108F33B7714013020
:100CD800F136F00C890B6C2E0130F502031D752ED0
:100CE800762E572E760803197A2E7B2E802EF7093A
:100CF800F809F70A0319F80A7808F1007708F000EC
:100D0800080020002E08B2002F08B3003008B400F5
:100D18003108B5000630B235B30DB40DB50D890BE9
:100D28008F2E3508A3003408A2003308A10032082A
:100D3800A0000030B6002430B700F430B80000300E
:100D4800B9003108F3003008F2002F08F1002E082E
:100D5800F000FF30F700FF30F600FF30F500BE303E
:100D6800F4008E317526863170082000B6077108A8
:100D7800B73D7208B83D7308B93D3908A70038086F
:100D8800A6003708A5003608A400843197248631C8
:100D980020002108BB002008BA003A0823009B0065
:100DA8001E1522009D131D1523008D121E129D175E
:100DB80021000E168D1623009E111D169E16080082
:100DC8002000A700643027020318EB2EEC2E002F1A
:100DD8000A3027020318F12EF22EF72E0130A50053
:100DE8000030A600FB2E0A30A5000030A600260819
:100DF800A4002508A300042F6430A3000030A40039
:100E08002308A0002008A8000A30F5000030F600EA
:100E18002808A0002008F00027088D319325863186
:100E28002000A100A2012108F7002208F80087315C
:100E38003D2786317508303E8A31452286310A3091
:100E4800F0000030F10020002808A000A1012008CF
:100E5800F2002108F300863126268631700820002A
:100E6800A2002208A8002808031D3B2F3C2F082FAA
:100E78000800FB01F81F412F422F492FF709F809F5
:100E8800F70A0319F80AFB01FB0AF61F4C2F4D2F2E
:100E9800522FF509F609F50A0319F60A75087604BA
:100EA8000319572F582F812FFA01FA0A642F01309E
:100EB800F535F60D890B5C2F0130F9007908FA0732
:100EC800F61F672F682F5B2F76087802031D6E2F99
:100ED80075087702031C712F722F762F7508F70299
:100EE8007608F83B0130F636F50C890B772F013080
:100EF800FA02031D802F812F682F7B080319852F85
:100F0800862F8B2FF709F809F70A0319F80A7808CA
:100F1800F6007708F50008002000C3004308C00069
:100F28004008C2004208033E8600013087000108DD
:100F3800210020060319A12FA22FBE2F20003F0851
:100F4800C0004008A0004308833138238731D92FD7
:100F58003F08C0004008BA0043088B31AE238731F0
:100F6800D92F3F08C0004008A40043088B31E32371
:100F78008731D92F2000420A8600013087000108F6
:100F8800C000C1014108003A0319CB2FD92F4008EE
:100F9800003A0319D92F013A0319AC2F033A031960
:100FA800D92F013A0319B52FD92F0800E934703425
:100FB8009D346B34C534773461346934743469349E
:100FC8006E346734203466346F34723420346334BA
:100FD8006F346E346634693467347534723461340E
:100FE800743469346F346E3420346D34653473343A
:100FF80073346134673465342E342E342E3400341F
:101008003D343D343D343D3445344E34443420344D
:101018004F3446342034443445345434413449340C
:101028004C3453343D343D343D343D3400343D3448
:101038003D343D34533454344134523454342034E0
:101048004F344634203444344534543441344934DC
:101058004C3453343D343D343D34003452344634FA
:1010680032343434203464346934733463346F3440
:101078006E346E34653463347434653464342134C6
:101088000034303431343234333434343534363453
:1010980037343834393441344234433444344534B1
:1010A80046345234463432343434203463346F3462
:1010B8006E346E34653463347434653464340034A7
:1010C800533445345434553450345F3452344534F1
:1010D8005434523400344F34423453344534523447
:1010E800563445345F3454345834003445344E341F
:1010F8005F34523458344134443444345234003424
:10110800523446345F3453344534543455345034AF
:101118000034533445345434553450345F344134F6
:101128005734003443344F344E344634493447340A
:101138000034533454344134543455345334003423
:10114800523458345F3450343034003452345834C4
:101158005F34503431340034523458345F345034AE
:1011680032340034523458345F3450343334003419
:10117800523458345F345034343400345234583490
:101188005F3450343534003445344E345F344134A0
:1011980041340034523446345F34433448340034E4
:1011A800F9343634CD34AC34E73446344134493438
:0E11B8004C3400344F344B34003423340034B4
:10141A00013401340234FF3406308B313C238A31E3
:10142A0008000034FC34B034E834F534F9007908A3
:10143A008A314E228A310800F30073088F31482717
:10144A008A310800640080010131890B282A00349E
:10145A00FE0012001E00FE0B2E2A0034FF30F70099
:10146A007708F400E2308A31EA228A310800FF3034
:10147A00F7007708F400E1308A31EA228A3108005D
:10148A00F00023009E1C4A2A4B2A462A70089A001A
:10149A000800F8007808F7007708F40005308A3168
:1014AA00EA228A310800F8007808FE3E0339F7007C
:1014BA007708F40003308A31EA228A3108000330BF
:1014CA008B313C238A31033A03196C2A6E2A013084
:1014DA006F2A00300800F0007008240091002000F4
:1014EA00911D782A792A742A91112400110808007A
:1014FA0020008E12FF308A3170228A31F100710881
:10150A002000DC008E165C080800F7007708F1005E
:10151A000030F2000530F6007608F30010308D3105
:10152A0002258A31080024009512403094002100D7
:10153A000D168E130D1324001508F0390238950084
:10154A0095160800F000F101AE2A0314F10D0310FC
:10155A00F00C023070020318B32AB42AAA2A7108BE
:10156A0008002000111CBA2ABB2AC62A0030210012
:10157A00A5070030A63D0130A73D0030A83D200058
:10158A0011100800F200210020082105F00072085D
:10159A002105F100710870060319D42AD62A0130F0
:1015AA00D72A003008008A317D228A3189360739E4
:1015BA00F2007208F30006307302031CE52AE62AD9
:1015CA00E82A0030E92A01300800F60020008E12CD
:1015DA00760820388A3170228A31F5007508200091
:1015EA00DC0074088A3170228A3120008E160800C5
:1015FA0000308B313C238A310238F7007708F40037
:10160A0000308A31EA228A311A30F700F830890B21
:10161A000C2BF70B0C2B00320800F8007808031982
:10162A00172B182B212B3F30F7007708F4000130D5
:10163A008A31EA228B31262BF40101308A31EA22DF
:10164A008B31080020001608F4001708F500F6018F
:10165A00F701210025087404F00026087504F1003A
:10166A0027087604F20028087704F3000800F2003D
:10167A0020008E1272088A3170228B31F1007108B3
:10168A002000DC00FF308A3170228B31F1007108B2
:10169A00F30020008E1673080800FB000F30770550
:1016AA00F8007B080F39F9000330F935FF3E031DB6
:1016BA005A2B79357804FA007A08F40004308A3112
:1016CA00EA228B310800F9007908F1000130F200B2
:1016DA007708F8007808F30061308D316E258B3178
:1016EA004030F8007808F40007308A31EA228B315A
:1016FA00080000308B313C238B310138F700770822
:10170A00F40000308A31EA228B317030F700770812
:10171A00F40007308A31EA228B3120000E170800C4
:10172A001D308B313C238B310438F7007708F400E5
:10173A001D308A31EA228B311C308B313C238B31AC
:10174A003F38F7007708F4001C308A31EA228B31DF
:10175A0008002000BE003E08BB003B08BD003A0856
:10176A00BB003B08AE003D08043E860001308700FE
:10177A00010E0F39BC003C08AF003E088131DA2166
:10178A008B31080060308B313C238B31F8007808AC
:10179A00F90021307902031CD32BD42BE12B8A3197
:1017AA0033228B310B30F8006230890BDA2BF80BBD
:1017BA00DA2B00320030E22B790808002000A6005C
:1017CA002608A5002508A7002708053EFC000130C9
:1017DA00FD008C313D248B3120002708043E860011
:1017EA000130870001088F31BD278B312000DA01D3
:1017FA00DA0A0800F80020005B08F339F7007708D6
:10180A00DB007808031D0A2C0B2C0C2C152C7803F2
:10181A00031D102C112C132CDB15152CDB155B1555
:10182A005B08F7007708F40000308A31EA228B312E
:10183A000800F2007208F1000430F136890B222CFC
:10184A007108453E840088300318013E850000086F
:10185A008A3145228C3172080F39453E840088301E
:10186A000318013E850000088A3145228C310800A0
:10187A00CC30F0000030F1007D08F3007C08F20063
:10188A000530F4000030F5008D31BC258C31210083
:10189A0020082000A00020082100CC00CC30F7004E
:1018AA000030F80001308F3112278C3108002000F7
:1018BA000E1300308B313C238C31FE39F700770848
:1018CA00F40000308A31EA228C3102308B313C2319
:1018DA008C310138F7007708F40002308A31EA22A5
:1018EA008C31AD30890B772C00000800F4000830E9
:1018FA00F1007108F500942CF41B842C852C8A2C99
:10190A003030F2000030F3008E2C3130F20000301B
:10191A00F30072088A3145228C310310F40D01302C
:10192A00F502750A031D9A2C9B2C812C0800643041
:10193A00F3007308F400AD2C710884007208850066
:10194A0000088A3145228C310130F1070030F23D1E
:10195A00710884007208850012000319B52CB62C90
:10196A00BD2C0130F402740A031DBC2CBD2CA12C21
:10197A0008002000A6002608FD007D08A5002030EA
:10198A00FD0025088600013087007D0881002100BE
:10199A002008FD0020002508023E8600013087004D
:1019AA007D0881002408FD007D08A00026088331F7
:1019BA0038238C310800F92C8B31C7238C31200055
:1019CA00C4004408C5004508C4004408F700203094
:1019DA008B3168238C3120004508C4004408BF00BD
:1019EA002030873190278C318A31D8228C31003AC5
:1019FA00031D002D012DE12C0800F50020008E1298
:101A0A00750820388A3170228D31F400740820005C
:101A1A00DC001D2D710884007208850000088A31D7
:101A2A0070228D310130F1070030F23D0130F302AE
:101A3A007308031D212D222D0F2D20008E1608005C
:101A4A00F80006308B313C238D31F7007708F90016
:101A5A007908D739F7007708F90002307806031DAC
:101A6A00372D382D3A2DF916402D7803031D3E2DBA
:101A7A003F2D402DF9157908F7007708F400063054
:101A8A008A31EA228D310800FA0006308B313C2374
:101A9A008D31F839F7007708F80004307A02031814
:101AAA00572D582D5D2D7A08F7007708F900612D1A
:101ABA000330F7007708F9007935F7007708F8045A
:101ACA007808F7007708F40006308A31EA228D3167
:101ADA000800F50020008E1275088A3170228D31B7
:101AEA00F40074082000DC00892DFF308A3170224E
:101AFA008D31F4007108860072088700740881002D
:101B0A000130F1070030F23D0130F302730A031D80
:101B1A008F2D902D7A2D20008E160800F200F401E8
:101B2A0070080319992D9A2DBA2DF301F30AA32DE2
:101B3A000310F00D0130F1007108F307F01FA62D14
:101B4A00A72D9D2D0310F40D70087202031CAE2DF3
:101B5A00AF2DB22D7008F20274140310F00C01308C
:101B6A00F302031DB92DBA2DA72D740808007308B6
:101B7A00FA007208F9007108F8007008F700DB2D06
:101B8A00790886007A0887000108F6007608FB00C3
:101B9A000130F9070030FA3D770886007808870097
:101BAA007B0881000130F7070030F83D0130F4026C
:101BBA000030F53B740A031DE62D750A031DE62D58
:101BCA00E72DC52D08008A3164228D31003A031DA4
:101BDA00EF2DF02D142E3230F1008830F2008C31C6
:101BEA009C248D310A308A3145228D318A31642212
:101BFA008D31003A0319022E032EFB2D5530F100C8
:101C0A008830F2008C319C248D310A308A31452289
:101C1A008D318E3115268D3180313C208D31080071
:101C2A008531B4258E3105308A3158228E318B3177
:101C3A0095238E3100308D3125258E3101308B313F
:101C4A00FF238E31DA30F7008730F80000308F3109
:101C5A0012278E3101308B3112238E31033020004E
:101C6A00A0002008F4008A3111228E3120308E31F2
:101C7A0043268E318B317E238E310800F800780896
:101C8A00F7007708F40011308A31EA228E31780899
:101C9A00F7007708F40012308A31EA228E31780888
:101CAA00F7007708F40013308A31EA228E31780877
:101CBA00F7007708F40014308A31EA228E31780866
:101CCA00F7007708F40015308A31EA228E31780855
:101CDA00F7007708F40016308A31EA228E310800BC
:101CEA000030FB000030FA000030F9000030F80044
:101CFA00701C802E812E892E7408F8077508F93D0C
:101D0A007608FA3D7708FB3D0130F435F50DF60DFE
:101D1A00F70D890B8A2E0130F336F20CF10CF00C18
:101D2A00890B912E7308720471047004031D9E2E90
:101D3A009F2E7D2E7B08F3007A08F2007908F100C5
:101D4A007808F0000800F4007108FF3EF2007208FB
:101D5A00F407D72E7408860087010108F20072087A
:101D6A00F3007308F2000430F236890BB92E7208B8
:101D7A00453E840088300318013E850000088A31F8
:101D8A0045228E3173080F39453E84008830031886
:101D9A00013E850000088A3145228E310130F40265
:101DAA000130F1027108031DDB2EDC2EAF2E080074
:101DBA002000AD002D08AB002B08AC002C0A8600D1
:101DCA00013087008101810A2808AB002C08033EF4
:101DDA008600013087002B0881002C08043E86000B
:101DEA000130870001082906F039290681002A08EE
:101DFA00AB002C08043E860001308700AB0E0108B8
:101E0A002B060F392B0681002708AB002B08A400EC
:101E1A002D088C31BE248E310800FB0002307B0273
:101E2A000318182F192F272F7808F2007708F100C6
:101E3A000530F9007908F3007B080A3E8D31022546
:101E4A008F31342F77088400780885000008F9005C
:101E5A007908F4007B080A3E8A31EA228F31013080
:101E6A00F9007B0A392FF935890B382F02308B316B
:101E7A003C238F317904FA007A08F40002308A315F
:101E8A00EA228F310800F1000310F10C0310F10C63
:101E9A00F201552F0130F0007008F2070310F10C1F
:101EAA0071080319592F5A2F5E2F711C5D2F5E2F4F
:101EBA004F2F0B178B17210011142000181398139A
:101ECA0098157208F0000130F036890B692F7018E6
:101EDA006F2F722F20009816742F200098127218F4
:101EEA00772F7A2F200018167C2F2000181218142A
:101EFA00960197010800FA0020008E12A0308A315C
:101F0A0070228F31F90079082000DC00982F7A08B6
:101F1A0086000130870001088A3170228F31013032
:101F2A00F9007908FA070130F802780A031D9E2F92
:101F3A009F2F8C2F20008E160E178A317D228F310B
:101F4A0030390319A92FAA2FA22F20000E1370309F
:101F5A00F9007908F40007308A31EA228F3120002B
:101F6A005C1EB82FB92FBC2F8A313C228F31080052
:101F7A002000A3002308A10021082100A0002000BE
:101F8A0023088A31A7228F312000A10021082100CD
:101F9A00A1002108013E2000A10021082100A20081
:101FAA0022082000A1000130A135890BD92F210078
:101FBA002108200520002104A20022082100A300F4
:101FCA0022082000A1000130A135890BE92F210048
:101FDA002108200520002104210022042000A2005B
:101FEA0022082100A400CC30FC000030FD008C3116
:061FFA003D248F310800B8
:020000040001F9
:02000E00C42903
:00000001FF
