:0400000080310B2818
:100008007E1480318F31502780317E100900803175
:100018000D28CB3084008E308500563086000030A5
:10002800870004308E31EB268031D43084008E3046
:100038008500D23086000030870005308E31EB26EF
:100048008031DA01DB01DC01A0308400003085005A
:1000580032308E31E5268031203084000130850031
:1000680040308E31E52680317E10200082314B2AC7
:100078002000B40003302F06031D43284428992983
:1000880007302E02031849284A284B289929340892
:10009800B0003008B9003908063E860001308700F4
:1000A80001080339003A031D5A285B28D428403038
:1000B800B0003008B8003908053E860001308700D6
:1000C8000108B0003808053E860001308700300876
:1000D80081003808063E860001308700011538087F
:1000E800063E8600013087000108FC39023881008D
:1000F8003908023E8600013087000108B000380840
:10010800033E860001308700300881003908043E2C
:1001180086000130870001080F39B0003808043E16
:10012800860001308700B00E010830060F3930060E
:1001380081002030B0003808860001308700300880
:1001480081003808073EF0000130F1005630F20017
:100158000030F3000430F4000030F5008531AE259E
:1001680080310B302000B0003008A7003908860025
:10017800013087000130423FA8000330B100310848
:10018800A9003908043E86000130870001080F39AC
:10019800B2003208AA004030853119258031712912
:1001A8003908063E86000130870001080339013A04
:1001B800031DDF28E0287129B301002933353907E9
:1001C800B0003008073E860001308700403FB50088
:1001D800413FB600043035020318F328F428FC2800
:1001E8003608B0003535573E860087013008810053
:1001F8000130B0003008B3072100290C890C0F39F1
:1002080020003302031C09290A29E2284030B000E3
:100218003008B7003908053E86000130870001081C
:10022800B0003708053E860001308700300881009D
:100238003708063E86000130870001153708063E5C
:100248008600013087000108FC390238810039082E
:10025800023E8600013087000108B0003708033EDF
:10026800860001308700300881003908043E860086
:100278000130870001080F39B0003708043E8600B6
:1002880001308700B00E010830060F3930068100B2
:100298002030B00037088600013087003008810020
:1002A8000730B0003008A700390886000130870001
:1002B8000130423FA8000330B1003108A9003908D5
:1002C800043E86000130870001080F39B200320869
:1002D800AA0040308531192580312100291C752953
:1002E8007629992920003908053E860001308700C3
:1002F800010821002B06031D822983299929AC3086
:10030800F0000030F10020003408F2000130F30062
:100318002E08B000B1013008F4003108F50085312D
:10032800AE25803121002910A91408002000A3005F
:100338002308FC007C08A20021002008031DA52931
:10034800A629A7294A2A20002208033E8600013050
:10035800870001088F3141278131FC007C0820008B
:10036800A1002108210021020318BB29BC29222A47
:1003780020002208033E86000130870001088F31E3
:1003880072278131003A0319CA29CB29222A200071
:100398002208033E8600013087000108210022055B
:1003A8000319D729D829FD292408FC007C08CC008A
:1003B800CC30F7000030F80000308431E32481317C
:1003C800CC308F31332781318631AF2681312000FF
:1003D8002008FC007C08F800230884316E24813151
:1003E8000C30F7008730F80000308431E324813185
:1003F800472A2308FC007C08CC00CC30F7000030EA
:10040800F80000308431E3248131CC308F31332738
:1004180081318631AF26813120002008FC007C081C
:10042800F800230884316E2481310C30F7008730BE
:10043800F80000308431E3248131472A2100200864
:10044800FC007C08CC00CC30F7000030F80000300D
:100458008431E3248131CC308F31332781318631A7
:10046800AF26813120002008FC007C08F800230812
:1004780084316E2481310C30F7008730F800003069
:100488008431E32481318731C027813108007A30F3
:10049800210099008E110E128E1410308E31DF2635
:1004A80082318F31612782318531802582317330E5
:1004B8008E31D9268231D230FC000030FD008631E1
:1004C800CE268231003084312B2482317E2A863137
:1004D8006B268231103020008E0607302000D400B1
:1004E8001730D3006A30890B772AD30B772AD40BBD
:1004F800772A000020005A080319832A842A6B2AC5
:100508008E110E160330D3005308C6005630D4009F
:100518005408C7000230D5005508C80001308231A0
:10052800E222823186316B26823120008E11AB2A7D
:10053800083020008E0603302000D4000830D30095
:100548007730890BA52AD30BA52AD40BA52A873186
:10055800A9278231003A0319B22AB32A9C2A083003
:100568002000D3005308A700A801A80A0330D4002C
:100578005408A9000330D5005508AA004030853139
:100588001925823120008E1CCA2ACB2A962A57099F
:10059800D3005308D7000330D3005308C6005630A1
:1005A800D4005408C7000230D5005508C8000130EF
:1005B8008231E2228231962A80310B282000D10034
:1005C8004030C9004908D2005208063E8600013072
:1005D8008700011521002A082000C9005208053E9D
:1005E800860001308700490881005208063E8600CF
:1005F800013087000108FC390138810021002A08F0
:100608002000C90049082100AB002914A9100130B5
:100618002000C90049082100AA074730F00001302E
:10062800F10020004708F2000030F3004808C90034
:10063800CA014935F4004A0DF5008531AE258231ED
:1006480020004835073EC9004908A7005108CA00DC
:100658004A08A8000330CB004B08A9004608CC0084
:100668004C08AA0040308531192582318F31BF27C7
:100678008231703070072000CD008230713DCE008D
:100688000330723DCF000030733DD0004E2B8631D1
:100698006B2682318F31BF278231200050087302C8
:1006A800031D602B4F087202031D602B4E08710258
:1006B800031D602B4D0870020318632B642B692BF4
:1006C8002100A91C682B692B4B2B2100A91C6D2B21
:1006D8006E2B6E2B080021000E138E1220000E13B5
:1006E8008E160330FD000830FC007730890B7A2B1A
:1006F800FC0B7A2BFD0B7A2B00001A30FC00F8302B
:10070800890B842BFC0B842B00320F30FC007C08F7
:10071800F70005308F31EA27833103308531FF2513
:1007280083310030863124268331F4011D3087312E
:10073800ED278331F4011C308731ED2783313F30B9
:10074800FC007C08F40001308731ED278331033049
:10075800FC007C08F40002308731ED27833120301B
:1007680085314E25833105308F310D2783314C304B
:100778008F31032783317030FC007C08F400073088
:100788008731ED2783318E31F12683318E31FA2678
:1007980083310C30FC007C08F40000308731ED27F1
:1007A80083318F319527833100308F31D4278331BE
:1007B800FC007C082000DB0008002000C300430880
:1007C800C0004008C2004208033E8600013087008E
:1007D8000108210020060319F22BF32B0F2C20000F
:1007E8003F08C0004008A000430881319A218331A6
:1007F8002A2C3F08C0004008BA0043088731602708
:1008080083312A2C3F08C0004008A40043088731E0
:10081800282783312A2C2000420A860001308700CD
:100828000108C000C1014108003A03191C2C2A2CF8
:100838004008003A03192A2C013A0319FD2B033A00
:1008480003192A2C013A0319062C2A2C0800200027
:10085800A3002308A10021082100A00020002308EC
:100868008F31412784312000A10021082100A100F7
:100878002108013E2000A10021082100A200220831
:100888002000A1000130A135890B472C2100210847
:10089800200520002104A20022082100A30022082C
:1008A8002000A1000130A135890B572C2100210817
:1008B800200520002104210022042000A200220893
:1008C8002100A400CC30FC000030FD008631CE268B
:1008D80084310800FA0020008E12A0308F311927C9
:1008E8008431F90079082000DC00862C7A0886001B
:1008F8000130870001088F31192784310130F90050
:100908007908FA070130F802780A031D8C2C8D2C1F
:100918007A2C20008E160E178F3126278431303915
:100928000319972C982C902C20000E137030F90086
:100938007908F40007308731ED27843120005C1EE8
:10094800A62CA72CAA2C8E31FA2684310800F10097
:100958000310F10C0310F10CF201B82C0130F00077
:100968007008F2070310F10C71080319BC2CBD2C98
:10097800C12C711CC02CC12CB22C0B178B17210059
:10098800111420001813981398157208F0000130FC
:10099800F036890BCC2C7018D22CD52C2000981648
:1009A800D72C200098127218DA2CDD2C200018168B
:1009B800DF2C200018121814960197010800FB007C
:1009C80002307B020318E92CEA2CF82C7808F20094
:1009D8007708F1000530F9007908F3007B080A3E32
:1009E800863148268431052D7708840078088500EB
:1009F8000008F9007908F4007B080A3E8731ED27E2
:100A080084310130F9007B0A0A2DF935890B092D4B
:100A180002308F31D42784317904FA007A08F4003F
:100A280002308731ED27843108002000AD002D0801
:100A3800AB002B08AC002C0A86000130870081012E
:100A4800810A2808AB002C08033E86000130870085
:100A58002B0881002C08043E86000130870001081D
:100A68002906F039290681002A08AB002C08043E23
:100A7800860001308700AB0E01082B060F392B06C4
:100A880081002708AB002B08A4002D0886318D268D
:100A980085310800F8007808F7007708F40011306D
:100AA8008731ED2785317808F7007708F400123090
:100AB8008731ED2785317808F7007708F40013307F
:100AC8008731ED2785317808F7007708F40014306E
:100AD8008731ED2785317808F7007708F40015305D
:100AE8008731ED2785317808F7007708F40016304C
:100AF8008731ED278531080083316F238531053033
:100B08008F310D278531873179278531003086313E
:100B18002426853101308631ED2685310C30F700E9
:100B28008730F80000308431E324853101308F317B
:100B3800AA27853103302000A0002008F4008E3158
:100B4800CF268531203085314E2585318731C02724
:100B5800853108007308FA007208F9007108F80076
:100B68007008F700CD2D790886007A0887000108FB
:100B7800F6007608FB000130F9070030FA3D7708E7
:100B88008600780887007B0881000130F70700306D
:100B9800F83D0130F4020030F53B740A031DD82DEE
:100BA800750A031DD82DD92DB72D0800F500200092
:100BB8008E1275088F3119278531F40074082000CA
:100BC800DC00F52DFF308F3119278531F4007108CD
:100BD800860072088700740881000130F107003030
:100BE800F23D0130F302730A031DFB2DFC2DE62DA7
:100BF80020008E160800FA0006308F31D427853180
:100C0800F839F7007708F80004307A0203180D2E37
:100C18000E2E132E7A08F7007708F900172E0330E6
:100C2800F7007708F9007935F7007708F8047808AD
:100C3800F7007708F40006308731ED278531080082
:100C4800F80006308F31D4278631F7007708F9008D
:100C58007908D739F7007708F90002307806031DBC
:100C6800362E372E392EF9163F2E7803031D3D2ECA
:100C78003E2E3F2EF9157908F7007708F400063064
:100C88008731ED2786310800F50020008E1275089F
:100C980020388F3119278631F40074082000DC00D1
:100CA800632E710884007208850000088F311927A7
:100CB80086310130F1070030F23D0130F30273084C
:100CC800031D672E682E552E20008E160800842ED0
:100CD8008731442786312000C4004408C5004508F0
:100CE800C4004408F70020308731D7278631200018
:100CF8004508C4004408BF0020308331E123863111
:100D08008F3183278631003A031D8B2E8C2E6C2E53
:100D180008002000A6002608FD007D08A500203058
:100D2800FD0025088600013087007D08810021002C
:100D38002008FD0020002508023E860001308700BB
:100D48007D0881002408FD007D08A0002608813167
:100D58009A218631080020000E1300308F31D427E5
:100D68008631FE39F7007708F40000308731ED2727
:100D7800863102308F31D42786310138F700770861
:100D8800F40002308731ED278631AD30890BCA2E49
:100D980000000800CC30F0000030F1007D08F300BE
:100DA8007C08F2000530F4000030F5008531AE25EE
:100DB8008631210020082000A00020082100CC0056
:100DC800CC30F7000030F80001308431E32486315C
:100DD8000800F80020005B08F339F7007708DB000B
:100DE8007808031DF82EF92EFA2E032F7803031D19
:100DF800FE2EFF2E012FDB15032FDB155B155B087D
:100E0800F7007708F40000308731ED2786310800B5
:100E18005934EC34AD34FC3484343D343D343D3401
:100E28003D3445344E34443420344F344634203431
:100E3800443445345434413449344C3453343D34C7
:100E48003D343D343D3400342000A6002608A5007A
:100E58002508A7002708053EFC000130FD00863163
:100E6800CE26873120002708043E860001308700FF
:100E7800010884312B2487312000DA01DA0A0800BE
:100E880060308F31D4278731F8007808F900213095
:100E98007902031C502F512F5E2F8E31F126873196
:100EA8000B30F8006230890B572FF80B572F0032A0
:100EB80000305F2F790808002000BE003E08BB0004
:100EC8003B08BD003A08BB003B08AE003D08043EA5
:100ED800860001308700010E0F39BC003C08AF00C6
:100EE8003E0880313C20873108001D308F31D427DF
:100EF80087310438F7007708F4001D308731ED2773
:100F080087311C308F31D42787313F38F700770875
:100F1800F4001C308731ED27873108003D343D341B
:100F28003D345334543441345234543420344F34DF
:100F380046342034443445345434413449344C34F0
:100F480053343D343D343D34003403308F31D4279D
:100F580087310339F4007408F50075080319B52FB3
:100F6800B62FBE2F043075020318BB2FBC2FBE2F1F
:100F78000130BF2F0030080000308F31D42787316F
:100F88000138F7007708F40000308731ED27873102
:100F98007030F7007708F40007308731ED27873184
:100FA80020000E170800F9007908F1000130F2005E
:100FB8007708F8007808F30061308531DA25873141
:100FC8004030F8007808F40007308731ED27873182
:100FD8000800F60020008E12760820388F31192775
:100FE8008731F50075082000DC0074088F31192757
:100FF800873120008E160800533445345434553454
:1010080050345F34523445345434523400344F34FD
:101018004234533445345234563445345F345434AE
:101028005834003445344E345F34523458344134E3
:101038004434443452340034523446345F345334E4
:1010480045345434553450340034533445345434CE
:10105800553450345F3441345734003443344F34BA
:101068004E344634493447340034533454344134CC
:101078005434553453340034523458345F34503473
:1010880030340034523458345F34503431340034FE
:10109800523458345F345034323400345234583473
:1010A8005F34503433340034523458345F3450345D
:1010B80034340034523458345F34503435340034C6
:1010C80045344E345F34413441340034523446346C
:1010D8005F34433448340034F9343634CD34AC34D6
:0210E800E734EB
:101D9600013401340234FF3406308F31D4278E31BA
:101DA60008000034FC34B034E834F534F90079081E
:101DB6008F3103278E310800F30073088431AB247A
:101DC6008E310800640080010131890BE62E003453
:101DD600FE0012001E00FE0BEC2E0034FF30F70052
:101DE6007708F400E2308731ED278E310800FF30A6
:101DF600F7007708F400E1308731ED278E310800CF
:101E0600F8007808F7007708F40005308731ED27E9
:101E16008F310800F8007808FE3E0339F70077088E
:101E2600F40003308731ED278F310800F000700889
:101E3600240091002000911D212F222F1D2F91118A
:101E460024001108080020008E12FF308F31192758
:101E56008F31F10071082000DC008E165C08080046
:101E6600F7007708F1000030F2000530F60076083A
:101E7600F3001030863148268F310800F000F1015A
:101E8600482F0314F10D0310F00C023070020318F2
:101E96004D2F4E2F442F710808002000111C542F7F
:101EA600552F602F00302100A5070030A63D0130D8
:101EB600A73D0030A83D200011100800240095120F
:101EC6004030940021000D168E130D1323008D0152
:101ED60024001508F0390238950095160800F2001E
:101EE600210020082105F00072082105F100710883
:101EF600700603197F2F812F0130822F00300800D2
:101F06008F3126278F3189360739F2007208F300A0
:101F160006307302031C902F912F932F0030942FBD
:101F26000130080000308F31D4278F310238F70096
:101F36007708F40000308731ED278F311A30F7002B
:101F4600F830890BA42FF70BA42F00320800F800F5
:101F560078080319AF2FB02FB92F3F30F700770855
:101F6600F40001308731ED278F31BE2FF4010130A7
:101F76008731ED278F31080020001608F400170876
:101F8600F500F601F701210025087404F000260883
:101F96007504F10027087604F20028087704F30098
:101FA6000800F20020008E1272088F3119278F3137
:101FB600F10071082000DC00FF308F3119278F31C6
:101FC600F1007108F30020008E1673080800FB006C
:101FD6000F307705F8007B080F39F9000330F93523
:101FE600FF3E031DF22F79357804FA007A08F400D3
:0A1FF60004308731ED278F31080019
:020000040001F9
:02000E00C42903
:00000001FF
