:08000000803102288731FD2F39
:100F6E00F0007008240091002000911DBF2FC02FAB
:100F7E00BB2F91112400110808004030240094006A
:100F8E00951621000D168E130D1324001508F03939
:100F9E000238950017081039970008006030F100EC
:100FAE007108F30021000E148E1020008E1487316C
:100FBE00C427873120000E1CE52FE62FE12F0130CC
:100FCE00F1007108F30773088731B7278731CB30EB
:100FDE00F200EC30F1008430890BF32FF10BF32F7C
:100FEE00F20BF32F0032E12F8031022820008731DF
:020FFE00D52FED
:020000040001F9
:04000E00C23FFF1FCF
:00000001FF
