:060000000A128A110C280F
:10000800FE00030EF0000A08F1000A128A15EE2914
:100018000A128A110F28831603130A128A11FB2762
:100028000A128A11E0000A128A11FC270A128A11A0
:10003800E1000A128A11FD270A128A11E2000A1247
:100048008A11FE270A128A11E3000A128A11FF2771
:100058000A128A11E4008313A0308400E0300A12E7
:100068008A15D0210A128A114430840063300A129A
:100078008A15D0210A128A11FB0183010A128A11FA
:100088005F2AF801F31F49284A285128F209F30981
:10009800F20A0319F30AF801F80AF51F542855283B
:1000A8005E28F409F509F40A0319F50A0130F60087
:1000B8007608F806F901FA0172087304031965282D
:1000C80066289D28F701F70A742801300310F20DFD
:1000D800F30DFF3E031D6A280130F6007608F70786
:1000E800F31F77287828692801300310F90DFA0DD5
:1000F800FF3E031D792873087502031D85287208C1
:100108007402031C8828892890287208F40273084E
:10011800031CF503F502791401300310F30CF20CFB
:10012800FF3E031D91280130F702031D9C289D28DE
:10013800782878080319A128A228A728F909FA0914
:10014800F90A0319FA0A7A08F3007908F200080094
:1001580083120313A200023022020318B428B52820
:10016800C5287908F3007A08F4000530A0002008B3
:10017800F50022080A3E0A128A15D6250A128A11A3
:10018800D8287A08FF00790884000A128A11002109
:100198000A128A11A0002008F60022080A3E0A1254
:1001A8008A15D7220A128A11013083120313A0007C
:1001B800220AE0280310A00DFF3E031DDE280230AE
:1001C8000A128A1542230A128A1183120313200481
:1001D800A1002108F60002300A128A15D7220A1255
:1001E8008A11080083120313A00020080A128A1536
:1001F80006220A128A110800FF1B0A2983137F1896
:1002080083170008840A0319FF0A08007F087F394A
:100218008A000408840A0319FF0A82003034313442
:10022800323433343434353436343734383439347A
:10023800413442344334443445344634F934363452
:10024800CD34AC34E7344634413449344C3400348A
:100258004F344B340034C0345934EC34AD34FC34AE
:1002680084343D343D343D343D343D343D343D34B7
:100278003D343D343D343D343D343D343D343D34EE
:100288003D345334543441345234543420343D349E
:100298003D343D343D343D343D343D343D343D34CE
:1002A8003D343D343D343D343D343D343D343D34BE
:1002B8003D343D343D343D343D343D343D343D34AE
:1002C8003D343D343D343D3400343D343D343D34DB
:1002D8003D3445344E34443420344F34463420348D
:1002E800443445345434413449344C3453343D3423
:1002F8003D343D343D3400343D343D343D34533495
:10030800543441345234543420344F344634203435
:10031800443445345434413449344C3453343D34F2
:100328003D343D34003453347734693474346334A1
:10033800683420344E346F3474342034703472345A
:10034800653473347334653464340034523465343A
:100358006334693476346534643420344434613425
:100368007434613420343D34003453347734693480
:1003780074346334683420347034723465347334BC
:100388007334653464340034523465346334693406
:1003980076346534643420344434613474346134DC
:1003A8000034533445345434553450345F34523463
:1003B80045345434523400344F3442345334453481
:1003C8005234563445345F34543458340034453448
:1003D8004E345F3452345834413444344434523403
:1003E80000347034613479346C346F34613464347B
:1003F80020343D340034523446345F345334453469
:10040800543455345034003453344534543455340A
:1004180050345F3441345734003443344F344E340D
:100428004634493447340034533454344134543412
:1004380055345334003464346134743461342034B2
:100448003D340034523458345F345034303400343E
:10045800523458345F3450343134003452345834C0
:100468005F34503432340034523458345F345034AA
:1004780033340034523458345F3450343434003414
:10048800523458345F3450343534003445344E34A3
:100498005F34413441340034523446345F34433499
:1004A80048340034763461346C347534653400343F
:1004B800693464340034FF308316031386008810CF
:1004C80081130814003083120313A9000030A80018
:1004D8002530A7008030A6000A128A114F240A127C
:1004E8008A1110300A128A15C8210A128A110A12B2
:1004F8008A155B220A128A110A128A15FD260A1227
:100508008A1173300A128A11F6200A128A11E03011
:100518000A128A15FC230A128A1102300A128A1555
:1005280008260A128A113530F3008130F4000A12C5
:100538008A1574250A128A110A300A128A1512229B
:100548000A128A110A128A15EB240A128A110A124F
:100558008A157D220A128A11750883120313D000A6
:100568007408CF007308CE007208CD004D08BF0094
:100578004E08C0004F08C1005008C2005108BF0211
:100588005208031C520FC92ACA2AC0025308031C66
:10059800530FCF2AD02AC1025408031C540FD52A5E
:1005A800D62AC2024208031DE72A4108031DE72A8A
:1005B8004008031DE72A97303F02031DE32A031C66
:1005C800E62AE72AFB2A831203135008D4004F08AF
:1005D800D3004E08D2004D08D1006118F42AF82A39
:1005E800831203138814FB2A831203138810003024
:1005F8008312031308180130FA005C300A128A11BA
:1006080034270A128A1183120313BF003F08C3005C
:100618004303031D102B112B4E2BB930F3008130EF
:10062800F4000A128A1574250A128A110A300A126D
:100638008A1512220A128A1183120313E1098316FA
:100648000313C701831203136108BF003F08831611
:100658000313C800C601C60A033083120313BF0080
:100668003F0883160313C500203083120313BF000D
:100678003F08AC00AD01AD0A0630C0004008AE002E
:100688000630C1004108AF00C0300A128A15A525FE
:100698000A128A119730F3008130F4000A128A1581
:1006A80074250A128A110A300A128A1512220A12AD
:1006B8008A11972A0A128A110C2883120313A70099
:1006C8002708A4002408A6004408031D6C2B6D2BE2
:1006D8006E2B4E2C2608033E8400831300080A1252
:1006E8008A152C220A128A1183120313A4002408E3
:1006F800A500250845020318822B832BFE2B26080C
:10070800033E8400831300080A128A154B220A123A
:100718008A11003A0319912B922BFE2B8312031393
:100728002608033E840083130008460503199D2B01
:100738009E2BCE2B4808A4002408D6005630F9007A
:100748000030FA0000300A128A11AC200A128A110D
:1007580056300A128A153B220A128A110A128A1581
:1007680043240A128A11831203132308A4002408BD
:10077800A00027080A128A11B0270A128A113030FD
:10078800F9008130FA0000300A128A11AC200A12EE
:100798008A11492C4708A4002408D6005630F900CD
:1007A8000030FA0000300A128A11AC200A128A11AD
:1007B80056300A128A153B220A128A110A128A1521
:1007C80043240A128A11831203132308A40024085D
:1007D800A00027080A128A11B0270A128A1130309D
:1007E800F9008130FA0000300A128A11AC200A128E
:1007F8008A11492C831203134408A4002408D60044
:100808005630F9000030FA0000300A128A11AC2084
:100818000A128A1156300A128A153B220A128A11C4
:100828000A128A1543240A128A11F530F30081301E
:10083800F4000A128A1574250A128A118312031306
:100848002708F3000030F4000A128A1574250A12EA
:100858008A110A300A128A1512220A128A11831280
:1008680003132308A4002408A00027080A128A11E9
:10087800B0270A128A113030F9008130FA000030AE
:100888000A128A11AC200A128A110A128A155F23E9
:100898000A128A110800831203132608AA002708DF
:1008A800AB002808AC002908AD0006300310AA0DDB
:1008B800AB0DAC0DAD0DFF3E031D5A2C2D08F500F8
:1008C8002C08F4002B08F3002A08F2002608AE00D2
:1008D8002708AF002808B0002908B1000630031027
:1008E800AE0DAF0DB00DB10DFF3E031D732C0030E2
:1008F800B2002430B300F430B4000030B5002E0844
:10090800B2022F08031C2F0F8A2C8B2CB30230083D
:10091800031C300F902C912CB4023108031C310FAA
:10092800962C972CB5023508F9003408F8003308DE
:10093800F7003208F6000A128A1197260A128A115D
:10094800730883120313B7007208B6000130370228
:10095800003003193602031CB22CB32C0F2D2608C5
:10096800AA002708AB002808AC002908AD0004300D
:100978000310AA0DAB0DAC0DAD0DFF3E031DBC2C35
:100988002D08F5002C08F4002B08F3002A08F200C3
:100998002608AE002708AF002808B0002908B100D3
:1009A80004300310AE0DAF0DB00DB10DFF3E031DA9
:1009B800D52C0030B2002430B300F430B40000303D
:1009C800B5002E08B2022F08031C2F0FEC2CED2CBB
:1009D800B3023008031C300FF22CF32CB402310898
:1009E800031C310FF82CF92CB5023508F90034082E
:1009F800F8003308F7003208F6000A128A11972621
:100A08000A128A11730883120313B7007208B6001A
:100A180083160313181501308312370200300319A7
:100A280036020318182D192D2B2D3608831603139B
:100A38009900181283120313981783160313871744
:100A48000717831203131816831603139816080042
:100A580083120313B000C830F3008130F4000A1287
:100A68008A1574250A128A110A300A128A15122266
:100A78000A128A11831203133008AE002E08B1003F
:100A8800AA30F3008130F4000A128A1574250A127C
:100A98008A110A300A128A1512220A128A111F3084
:100AA800F3008230F4000A128A1574250A128A119A
:100AB8000630831203132D06031D632D642DDD2DCF
:100AC8003108053E840083130008031D6C2D6D2D2D
:100AD8006E2DF12D3108053E84000003031D752D90
:100AE800762DF12D3108073EAE002E08B2005C309D
:100AF800F3008230F4000A128A1574250A128A114A
:100B08003D300A128A1512220A128A11831203131F
:100B180032088400831300080A128A159B270A12D8
:100B28008A110A300A128A1512220A128A115630BC
:100B3800F3008230F4000A128A1574250A128A1109
:100B48003D300A128A1512220A128A1183120313DF
:100B5800320A8400831300080A128A159B270A1296
:100B68008A110A300A128A1512220A128A1183126D
:100B780003133108063E840083130008AE002E08D4
:100B8800AF00D52D320A84000008AE003208840078
:100B98000008613E84002E0880000230AE002E0856
:100BA800B2070130AF022F0A031DDB2DDC2DC62D45
:100BB800F12D06302D06031DE22DE32DF12D6130B8
:100BC800AE002E08F2000230F3000030F400C53009
:100BD8000A128A1517250A128A11080083160313A8
:100BE8000811881183120313081188150330831222
:100BF8000313A5000830A4007630A300A30B022E2F
:100C0800A40B022EA50B022E00001A308312031328
:100C1800A400F730A300A30B0F2EA40B0F2E142E45
:100C28000F3083120313A3002308F90005300A12BA
:100C38008A1526230A128A1103300A128A154525B5
:100C48000A128A1100300A128A15BF240A128A1160
:100C5800F6011D300A128A15D7220A128A11F601E6
:100C68001C300A128A15D7220A128A113F308312C1
:100C78000313A3002308F60001300A128A15D722AD
:100C88000A128A11033083120313A3002308F60003
:100C980002300A128A15D7220A128A1120300A1243
:100CA8008A1580260A128A1105300A128A151E2210
:100CB8000A128A114C300A128A1506220A128A115F
:100CC800703083120313A3002308F60007300A12BA
:100CD8008A15D7220A128A110A128A15D8210A12ED
:100CE8008A110A128A15E3210A128A110C3083121A
:100CF8000313A3002308F60000300A128A15D7222E
:100D08000A128A110A128A15F1220A128A1100306F
:100D18000A128A1542230A128A1183120313A300A6
:100D28002308FB00080083120313A101F51F9D2E61
:100D38009E2EAB2EF209F309F409F509F20A0319FC
:100D4800F30A0319F40A0319F50AA101A10AF91F04
:100D5800AE2EAF2EBE2EF609F709F809F909F60AE4
:100D68000319F70A0319F80A0319F90A0130FA00F6
:100D78007A08A1060030A5000030A4000030A300C6
:100D88000030A20075087404730472040319CD2E90
:100D9800CE2E1B2FA001A00ADE2E0130FA00031070
:100DA800F20DF30DF40DF50DFA0BD32E0130FA0008
:100DB8007A08A007F51FE12EE22ED12E0130FA00A5
:100DC8000310A20DA30DA40DA50DFA0BE42E7508B2
:100DD8007902031DF92E74087802031DF92E730891
:100DE8007702031DF92E72087602031CFC2EFD2ED5
:100DF8000C2F7208F6027308031C730FF7027408AD
:100E0800031C740FF8027508031C750FF9022214ED
:100E180001300310F50CF40CF30CF20CFF3E031D2B
:100E28000D2F0130A002031D1A2F1B2FE22E2108BF
:100E380003191F2F202F2B2FA209A309A409A509E5
:100E4800A20A0319A30A0319A40A0319A50A250863
:100E5800F5002408F4002308F3002208F200080033
:100E680083120313A600A4012608043E84008313FA
:100E78000008031D402F412F6F2F7A080319452FB3
:100E8800462F6F2F0A128A157D220A128A118312A1
:100E980003132608840083130008A000840A0008AE
:100EA800A100840A0008A200840A0008A3007508AB
:100EB8002302031D692F74082202031D692F73087A
:100EC8002102031D692F7208200203186C2F6D2F51
:100ED8006F2FA401A40A2408A0002008A500250853
:100EE8000319772F782FA72FE830A0000330A1002F
:100EF8000030A2000030A3000A128A157D220A12CF
:100F08008A11720883120313A00773080318730F5A
:100F18008E2F8F2FA10774080318740F942F952F05
:100F2800A20775080318750AA30726088400200875
:100F380083138000840A21088000840A2208800024
:100F4800840A230880007A08A0002608043E84004A
:100F5800200880002508080083120313A1008811C7
:100F6800A0300A128A15FA210A128A11FA007A08A0
:100F780083120313D500CF2F2108840083130008A0
:100F88000A128A15FA210A128A110130FA007A081F
:100F980083120313A1070130A002200A031DD52FD5
:100FA800D62FC02F881508150A128A156C220A1226
:100FB8008A1130390319E12FE22FD82F8312031336
:100FC80008117030FA007A08F60007300A128A15FC
:100FD800D7220A128A1183120313551EF42FF52FF4
:100FE800FA2F0A128A15E3210A128A11080000341E
:080FF800FC34B034E834F53498
:1013820006300A128A1542230A128A150800F5004D
:1013920075080A128A15BE260A128A150800640008
:1013A2008001840A0406031900340406D129FF309F
:1013B200F9007908F600E2300A128A15D7220A12D9
:1013C2008A150800FF30F9007908F600E1300A12A8
:1013D2008A15D7220A128A1508000A128A15922241
:1013E2000A128A1571088A00700E8300FE0E7E0EA4
:1013F2000900F20072088312031393008C1D022A63
:10140200032AFF298C1113080800FA007A08F90050
:101412007908F60005300A128A15D7220A128A15AF
:101422000800F20083160313981C182A192A132A9B
:1014320072088312031399000800FA007A08FE3E2C
:101442000339F9007908F60003300A128A15D72207
:101452000A128A150800F200F301332A0314F30D6D
:101462000310F20C023072020318382A392A2F2A8A
:1014720073080800F9007908F3000030F400053021
:10148200F8007808F50010300A128A15D6250A12DB
:101492008A150800F3008312031344084505F2007D
:1014A2004508730572060319572A592A01305A2A28
:1014B200003008008312031394164030831603137E
:1014C2009400871207168711831203131408F03948
:1014D200023894000800831203138811FF300A12A5
:1014E2008A15FA210A128A15F3007308831203136C
:1014F200D500881555080800831203130E08F6005C
:101502000F08F700F801F90149087604F2004A08C9
:101512007704F3004B087804F4004C087904F500D2
:101522000800831203130C1C972A982AA72A00305A
:10153200C907003003180130CA070130031802300E
:10154200CB07003003180130CC070C1008000A1238
:101552008A156C220A128A15F4000310740C0739DA
:10156200F5007508F60006307602031CB92ABA2A7D
:10157200BC2A0030BD2A01300800FA007A0803199B
:10158200C32AC42ACF2A3F30F9007908F600013075
:101592000A128A15D7220A128A15D62AF6010130B2
:1015A2000A128A15D7220A128A150800F800831235
:1015B20003138811780820380A128A15FA210A12B0
:1015C2008A15F700770883120313D50076080A12EA
:1015D2008A15FA210A128A15831203138815080044
:1015E20000300A128A1542230A128A150238F900BB
:1015F2007908F60000300A128A15D7220A128A15D3
:101602001A30FA00F830F900F90B052BFA0B052B0A
:101612000000080083120313B7003708B40034082F
:10162200B6003308B4003408AC003608043E840027
:101632008313000E0F39B5003508AD0037080A12C2
:101642008A112C250A128A150800FA000F30790532
:1016520083120313A0007A080F39A100033003108C
:10166200A10DFF3E031D302B0310210D2004A2000B
:101672002208F60004300A128A15D7220A128A15A5
:101682000800F40083120313881174080A128A15E1
:10169200FA210A128A15F300730883120313D50084
:1016A200FF300A128A15FA210A128A15F30073080A
:1016B200F5008312031388157508080000300A121A
:1016C2008A1542230A128A150138F9007908F600B0
:1016D20000300A128A15D7220A128A157030F900D0
:1016E2007908F60007300A128A15D7220A128A15DB
:1016F2008312031308150800FA007A0883120313F1
:10170200A0002008F3007908A1002108F40061304C
:101712000A128A1594240A128A154030831203137E
:10172200A0002008F60007300A128A15D7220A12F2
:101732008A150800FA007B08F339F9007908FB00E2
:101742007A08031DA52BA62BA72BB02B7A03031D0A
:10175200AB2BAC2BAE2BFB15B02BFB157B157B08F3
:10176200F9007908F60000300A128A15D7220A1207
:101772008A15080083120313AB002B08A90029085D
:10178200AA002030A9002A088400290883138000B7
:101792004408A9002A08023E84002908800028087B
:1017A200A9002908A3002B080A128A1161230A1230
:1017B2008A1508001D300A128A1542230A128A1558
:1017C2000438F9007908F6001D300A128A15D7226A
:1017D2000A128A151C300A128A1542230A128A1525
:1017E2003F38F9007908F6001C300A128A15D72210
:1017F2000A128A15080083120313A4002408A30006
:101802002308F2000530F3000030F40056300A12CB
:101812008A1517250A128A15831203134408A30096
:101822002308D6005630F9000030FA0001300A12BF
:101832008A11AC200A128A15080060300A128A1531
:1018420042230A128A1583120313A0002008FA0009
:1018520021307A02031C2E2C2F2C412C0A128A15BD
:10186200D8210A128A150B3083120313A1006130AA
:10187200A000A00B3A2CA10B3A2C3F2C0030422C9A
:101882007A08080083120313081100300A128A151D
:1018920042230A128A15FE39F9007908F60000304F
:1018A2000A128A15D7220A128A1502300A128A15DA
:1018B20042230A128A150138F9007908F60002302B
:1018C2000A128A15D7220A128A15AD30F900F90BCD
:1018D200682C0800F400F60172080319712C722CAE
:1018E200922CF501F50A7B2C0310F20D0130F30066
:1018F2007308F507F21F7E2C7F2C752C0310F60D52
:1019020072087402031C862C872C8A2C7208F4023B
:1019120076140310F20C0130F502031D912C922C67
:101922007F2C76080800F6008312031388117608CC
:101932000A128A15FA210A128A15F500750883120D
:101942000313D500B42CFF300A128A15FA210A12A9
:101952008A15F5007308840075088313800001302E
:10196200F5007508F3070130F402740A031DBA2C5E
:10197200BB2CA42C831203138815080083120313B3
:10198200A00006300A128A1542230A128A15F900AB
:10199200790883120313A1002108D739F9007908C5
:1019A200A10002302006031DD72CD82CDA2CA11658
:1019B200E02C2003031DDE2CDF2CE02CA1152108D6
:1019C200F9007908F60006300A128A15D7220A129F
:1019D2008A1508000C2D0A128A151E240A128A156D
:1019E20083120313BD003D08BE003E08BD003D0842
:1019F200F900A0300A128A157D230A128A15831271
:101A020003133E08BD003D08B800A0300A128A1533
:101A120043260A128A150A128A15A8220A128A1560
:101A2200003A031D152D162DEC2C0800F900720842
:101A3200F5007508F8007908F5007508F700362DED
:101A42007808840083130008F5007508F600013059
:101A5200F5007508F8077608F50077088400750820
:101A620080000130F5007508F7070130F3020030FD
:101A7200031CF403F402730A031D432D740A031DAD
:101A8200432D442D212D080083120313A20006309A
:101A92000A128A1542230A128A15F839F9007908BE
:101AA20083120313A000043022020318592D5A2D69
:101AB2005F2D2208F9007908A100632D0330F90097
:101AC2007908A1002108F9007907FA007A08A00430
:101AD2002008F9007908F60006300A128A15D72282
:101AE2000A128A1508006430F5007508F6008D2D7B
:101AF2007408FF00730884000A128A1100210A1276
:101B02008A150A128A1512220A128A150130F3075F
:101B12000318F40A0030F407740883120313FF0059
:101B2200730884000A128A1100210A128A15003AE7
:101B320003199C2D9D2DA42D0130F602760A031D5A
:101B4200A32DA42D792D080083120313B1003108AF
:101B5200B0003008B200320A840083138001800A88
:101B62002D08B0003208033E84003008800032089D
:101B7200043E840000082E06F0392E0680002F084D
:101B8200B0003208043E8400B00E000830060F395F
:101B9200300680002C08B0003008A80031080A1274
:101BA2008A15BB230A128A150800F7008312031351
:101BB2008811770820380A128A15FA210A128A1522
:101BC200F600760883120313D500FF2D74088312E2
:101BD2000313FF00730884000A128A1100210A12FB
:101BE2008A150A128A15FA210A128A150130F30798
:101BF2000318F40A0030F4070130F5027508031DDA
:101C0200032E042EE72D8312031388150800831276
:101C12000313A7002708A5002508C40027080A12F5
:101C22008A152C220A128A1583120313A50025088D
:101C3200C5004508013EA5002508C6004608A500C6
:101C420001300310A50DFF3E031D222E4508440559
:101C52002504A6002608C7004608A5000130031087
:101C6200A50DFF3E031D302E4508440525044604FC
:101C7200A6002608C80056300A128A15FC230A124A
:101C82008A15080083120313BC003C08B900390806
:101C9200BB003B08033E840083130008440603197B
:101CA200532E542E6A2E3808B9003908A3003C0876
:101CB2000A128A1161230A128A157F2E3808B90086
:101CC2003908B3003C080A128A150B230A128A1536
:101CD2007F2E3B0A84000008B900BA013A08003A94
:101CE2000319742E7F2E3908003A03197F2E013A08
:101CF20003195F2E033A03197F2E7F2E0800FA0084
:101D02007A08F9007908F60011300A128A15D722EA
:101D12000A128A157A08F9007908F60012300A12B6
:101D22008A15D7220A128A157A08F9007908F6006C
:101D320013300A128A15D7220A128A157A08F90074
:101D42007908F60014300A128A15D7220A128A1567
:101D52007A08F9007908F60015300A128A15D72296
:101D62000A128A157A08F9007908F60016300A1262
:101D72008A15D7220A128A150800F3000310F30C01
:101D82000310F30CF401CB2E0130F2007208F407B9
:101D92000310F30C73080319CF2ED02ED42E731C0C
:101DA200D32ED42EC52E0B178B17831603130C14A8
:101DB20083120313901090157408F200013003107F
:101DC200F20CFF3E031DE02E7218E82EEC2E831259
:101DD20003139016EF2E8312031390127418F22E2F
:101DE200F62E831203131016F92E83120313101208
:101DF20010148E018F0108000A128A11F2250A12AC
:101E02008A1505300A128A151E220A128A150A122A
:101E12008A15DB230A128A1500300A128A15BF249A
:101E22000A128A1501300A128A159B230A128A1590
:101E32003030F9008130FA0000300A128A11AC20E9
:101E42000A128A1501300A128A15BE220A128A154E
:101E5200033083120313A6002608F6000A128A151D
:101E6200C1210A128A1520300A128A1580260A1206
:101E72008A150A128A155F230A128A15080083122C
:101E82000313A201FA1F462F472F4E2FF909FA0911
:101E9200F90A0319FA0AA201A20AF81F512F522FB6
:101EA200572FF709F809F70A0319F80A770878048F
:101EB20003195C2F5D2F8C2FA101A10A6B2F01301A
:101EC2000310F70DF80DFF3E031D612F0130A00036
:101ED2002008A107F81F6E2F6F2F602F78087A0253
:101EE200031D752F77087902031C782F792F7F2F16
:101EF2007708F9027808031CFA03FA02013003108A
:101F0200F80CF70CFF3E031D802F0130A102031DC8
:101F12008B2F8C2F6F2F22080319902F912F962F22
:101F2200F909FA09F90A0319FA0A7A08F80079088C
:101F3200F700080083120313AA0064302A02031870
:101F4200A32FA42FB82F0A302A020318A92FAA2FD1
:101F5200AF2F0130A8000030A900B32F0A30A8002B
:101F62000030A9002908A7002808A600BC2F643069
:101F7200A6000030A7002608A3002308AB000A3001
:101F8200F7000030F8002B08A3002308F2002A080B
:101F92000A128A156B240A128A1583120313A400EB
:101FA200A5012408F9002508FA000A128A1540271B
:101FB2000A128A157708303E0A128A1512220A126C
:101FC2008A150A30F2000030F300831203132B0843
:101FD200A300A4012308F4002408F5000A128A11C0
:101FE20045200A128A15720883120313A5002508D8
:0E1FF200AB002B08031DFE2FFF2FC02F080091
:02400E007A3FF7
:00000001FF
