:100000000A128A11CD2FF000F1010A280314F10D14
:100010000310F00C0230700203180F281028062875
:100020007108080033280A128A15EE260A128A116E
:1000300083120313B8003808B9003908B80038082B
:10004000F700A0300A128A151D260A128A1183129F
:1000500003133908B8003808B300A0300A128A1117
:1000600045210A128A110A128A1587250A128A1155
:10007000003A031D3C283D28132808006430F30093
:100080007308F40057287208FF00710884000A12F0
:100090008A1500200A128A110A128A152B250A12C3
:1000A0008A110130F1070318F20A0030F2077208D2
:1000B00083120313FF00710884000A128A150020BE
:1000C0000A128A11003A0319662867286E2801303F
:1000D000F402740A031D6D286E2843280800831259
:1000E0000313AC002C08AB002B08AD002D0A8400D4
:1000F00083138001800A2808AB002D08033E84008A
:100100002B0880002D08043E840000082906F039E1
:10011000290680002A08AB002D08043E8400AB0E9F
:1001200000082B060F392B0680002708AB002B0890
:10013000A4002C080A128A15AD260A128A1108009A
:10014000F500831203138811750820380A128A15E6
:1001500013250A128A11F400740883120313C300D2
:10016000C928720883120313FF00710884000A1261
:100170008A1500200A128A110A128A1513250A12FA
:100180008A110130F1070318F20A0030F20701303A
:10019000F3027308031DCD28CE28B1288312031360
:1001A00088150800F9007008F6007108F700790852
:1001B000F4007408F800FB28770883120313FF008B
:1001C000760884000A128A1500200A128A11F400A7
:1001D0007408F5000130F6070318F70A0030F70736
:1001E0007508F400780884007408831380000130D7
:1001F000F4007408F8070130F2020030031CF30326
:10020000F302720A031D0829730A031D082909292C
:10021000DC28080083120313A2002208A000200893
:10022000BD0022080A128A1103200A128A118312C1
:100230000313A0002008BE003E08013EA0002008D5
:10024000BF003F08A00001300310A00DFF3E031DBA
:1002500024293E083D052004A1002108C0003F08D4
:10026000A00001300310A00DFF3E031D32293E08FF
:100270003D0520043F04A1002108C10044300A12BA
:100280008A158D260A128A11080083120313B700FB
:100290003708B4003408B6003608033E84008313E0
:1002A00000083D060319552956296C293308B40066
:1002B0003408A00037080A128A11DF260A128A11B0
:1002C00081293308B4003408AE0037080A128A15B1
:1002D00037260A128A118129360A84000008B400E0
:1002E000B5013508003A0319762981293408003A06
:1002F00003198129013A03196129033A0319812954
:1003000081290800F8007808F7007708F400113018
:100310000A128A15CF250A128A117808F700770881
:10032000F40012300A128A15CF250A128A117808B1
:10033000F7007708F40013300A128A15CF250A1245
:100340008A117808F7007708F40014300A128A1529
:10035000CF250A128A117808F7007708F4001530C3
:100360000A128A15CF250A128A117808F700770831
:10037000F40016300A128A15CF250A128A110800D5
:100380000A128A1160250A128A1105300A128A158A
:1003900037250A128A110A128A15CD260A128A11E5
:1003A00000300A128A1531270A128A1101300A1206
:1003B0008A150F270A128A112F30F7008830F800AB
:1003C00000300A128A1101220A128A1101300A121F
:1003D0008A159D250A128A110330FC007C08F4005E
:1003E0000A128A15E6240A128A1120300A128A118A
:1003F00082210A128A110A128A156F260A128A119C
:100400000800FB0002307B020318072A082A182A7A
:100410007708F1007808F2000530F9007908F30058
:100420007B080A3E0A128A11A0200A128A112D2A7C
:10043000780883120313FF00770884000A128A15D4
:1004400000200A128A11F9007908F4007B080A3E9C
:100450000A128A15CF250A128A110130F9007B0A87
:10046000332A0310F90DFF3E031D312A02300A1210
:100470008A1552260A128A117904FA007A08F400C1
:1004800002300A128A15CF250A128A110800FA00D2
:10049000831203138811A0300A128A1513250A1239
:1004A0008A11F900790883120313C300642A7A08B9
:1004B0008400831300080A128A1513250A128A1170
:1004C0000130F9007908FA070130F802780A031DB3
:1004D0006A2A6B2A572A83120313881508150A12F1
:1004E0008A1576250A128A1130390319782A792A51
:1004F0006F2A8312031308117030F9007908F40091
:1005000007300A128A15CF250A128A1183120313A3
:10051000431E8B2A8C2A912A0A128A1508250A1250
:100520008A110800FB01F81F962A972A9E2AF709CC
:10053000F809F70A0319F80AFB01FB0AF61FA12ABA
:10054000A22AA72AF509F609F50A0319F60A750879
:1005500076040319AC2AAD2ADC2AFA01FA0ABB2A6E
:1005600001300310F50DF60DFF3E031DB12A0130D9
:10057000F9007908FA07F61FBE2ABF2AB02A7608C2
:100580007802031DC52A75087702031CC82AC92AE8
:10059000CF2A7508F7027608031CF803F802013029
:1005A0000310F60CF50CFF3E031DD02A0130FA02B1
:1005B000031DDB2ADC2ABF2A7B080319E02AE12A73
:1005C000E62AF709F809F70A0319F80A7808F60085
:1005D0007708F500080083120313A7006430270290
:1005E0000318F32AF42A082B0A3027020318F92AE1
:1005F000FA2AFF2A0130A5000030A600032B0A309A
:10060000A5000030A6002608A4002508A3000C2B96
:100610006430A3000030A4002308A0002008A80034
:100620000A30F5000030F6002808A0002008F0008D
:1006300027080A128A1581270A128A1183120313C6
:10064000A100A2012108F7002208F8000A128A116D
:1006500092220A128A117508303E0A128A152B2539
:100660000A128A110A30F0000030F10083120313DD
:100670002808A000A1012008F2002108F3000A12B6
:100680008A1150230A128A11700883120313A200E0
:100690002208A8002808031D4E2B4F2B102B080002
:1006A000F601F11F542B552B5C2BF009F109F00AD0
:1006B0000319F10AF601F60AF31F5F2B602B692B71
:1006C000F209F309F20A0319F30A0130F40074087D
:1006D000F606F701F801700871040319702B712BED
:1006E000A82BF501F50A7F2B01300310F00DF10D59
:1006F000FF3E031D752B0130F4007408F507F11F50
:10070000822B832B742B01300310F70DF80DFF3E65
:10071000031D842B71087302031D902B7008720255
:10072000031C932B942B9B2B7008F2027108031C63
:10073000F303F302771401300310F10CF00CFF3EC9
:10074000031D9C2B0130F502031DA72BA82B832B27
:1007500076080319AC2BAD2BB22BF709F809F70A71
:100760000319F80A7808F1007708F0000800A530AE
:1007700083120313AB002B08FD007D088400683052
:1007800083130006031DC52BC62BD62B023088060B
:100790000B3083120313AD002630AC005D30AB008C
:1007A000AB0BD02BAC0BD02BAD0BD02BD030F10042
:1007B0008830F2000A128A113E200A128A117D083E
:1007C000F1000030F2000A128A113E200A128A114A
:1007D0000A300A128A152B250A128A116230F1009A
:1007E0008830F2000A128A113E200A128A110A3059
:1007F0000A128A152B250A128A11B230F1008830AC
:10080000F2000A128A113E200A128A113D300A12A1
:100810008A152B250A128A118312031329080A123A
:100820008A11EB220A128A110A300A128A152B2524
:100830000A128A11BA30F1008830F2000A128A11C5
:100840003E200A128A113D300A128A152B250A12FF
:100850008A11831203132A080A128A11EB220A1240
:100860008A110A300A128A152B250A128A110800E9
:10087000FF30831603138600881081130030831223
:100880000313A9000030A8002530A7008030A6007F
:100890000A128A1105260A128A110A128A1565257A
:1008A0000A128A110A128A11C0210A128A1173309F
:1008B0000A128A15ED240A128A114A300A128A1580
:1008C0008D260A128A1102300A128A110A210A128E
:1008D0008A110730F0008930F1000330F200003057
:1008E000F300C5300A128A11D2200A128A118B2C09
:1008F0000230831203138806153083120313BC00E1
:100900004B30BB00BD30BA00BA0B842CBB0B842C1F
:10091000BC0B842C8B2C0A128A15B6250A128A115C
:10092000003A0319942C952C782C08308312031369
:10093000BA003A08A700A801A80A0330BB003B0888
:10094000A9000630BC003C08AA00C0300A128A1177
:100950006F200A128A11153083120313BC004B302A
:10096000BB00BD30BA00BA0BB32CBB0BB32CBC0B15
:10097000B32CBA2C0A128A1112200A128A118B2C5B
:100980000A128A11002883120313A101F31FC92C34
:10099000CA2CD72CF009F109F209F309F00A03195E
:1009A000F10A0319F20A0319F30AA101A10AF71FB8
:1009B000DA2CDB2CEA2CF409F509F609F709F40A1C
:1009C0000319F50A0319F60A0319F70A0130F800AA
:1009D0007808A1060030A5000030A4000030A30074
:1009E0000030A20073087204710470040319F92C1A
:1009F000FA2C472DA001A00A0A2D0130F80003109F
:100A0000F00DF10DF20DF30DF80BFF2C0130F80095
:100A10007808A007F31F0D2D0E2DFD2C0130F800D6
:100A20000310A20DA30DA40DA50DF80B102D730836
:100A30007702031D252D72087602031D252D7108EE
:100A40007502031D252D70087402031C282D292D05
:100A5000382D7008F4027108031C710FF50272083A
:100A6000031C720FF6027308031C730FF7022214A3
:100A700001300310F30CF20CF10CF00CFF3E031DDF
:100A8000392D0130A002031D462D472D0E2D2108C2
:100A900003194B2D4C2D572DA209A309A409A50913
:100AA000A20A0319A30A0319A40A0319A50A25080F
:100AB000F3002408F2002308F1002208F0000800E7
:100AC0008316031308118811831203130811881564
:100AD000033083120313A2000830A1007630A00077
:100AE000A00B702DA10B702DA20B702D00001A30E1
:100AF00083120313A100F730A000A00B7D2DA10BE2
:100B00007D2D822D0F3083120313A0002008F700E3
:100B100005300A128A1503260A128A1103300A12B6
:100B20008A15AA270A128A1100300A128A1531275B
:100B30000A128A11F4011D300A128A15CF250A12F1
:100B40008A11F4011C300A128A15CF250A128A1163
:100B50003F3083120313A0002008F40001300A1272
:100B60008A15CF250A128A11033083120313A000BD
:100B70002008F40002300A128A15CF250A128A11C1
:100B800020300A128A1182210A128A1105300A12B3
:100B90008A1537250A128A114C300A128A151F2528
:100BA0000A128A11703083120313A0002008F40087
:100BB00007300A128A15CF250A128A110A128A15DD
:100BC000FD240A128A110A128A1508250A128A11AE
:100BD0000C3083120313A0002008F40000300A1226
:100BE0008A15CF250A128A110A128A15E9250A12D6
:100BF0008A1100300A128A1552260A128A118312AB
:100C00000313A0002008C200080083120313260863
:100C1000AA002708AB002808AC002908AD00063060
:100C20000310AA0DAB0DAC0DAD0DFF3E031D102E34
:100C30002D08F3002C08F2002B08F1002A08F00020
:100C40002608AE002708AF002808B0002908B10028
:100C500006300310AE0DAF0DB00DB10DFF3E031DFC
:100C6000292E0030B2002430B300F430B40000303C
:100C7000B5002E08B2022F08031C2F0F402E412E64
:100C8000B3023008031C300F462E472EB402310841
:100C9000031C310F4C2E4D2EB5023508F7003408D9
:100CA000F6003308F5003208F4000A128A11C32452
:100CB0000A128A117108FA007008F90001307A02EC
:100CC000003003197902031C662E672EC32E83128F
:100CD00003132608AA002708AB002808AC0029083F
:100CE000AD0004300310AA0DAB0DAC0DAD0DFF3EF1
:100CF000031D722E2D08F3002C08F2002B08F100C2
:100D00002A08F0002608AE002708AF002808B00027
:100D10002908B10004300310AE0DAF0DB00DB10DB8
:100D2000FF3E031D8B2E0030B2002430B300F430A0
:100D3000B4000030B5002E08B2022F08031C2F0F9C
:100D4000A22EA32EB3023008031C300FA82EA92E0A
:100D5000B4023108031C310FAE2EAF2EB502350898
:100D6000F7003408F6003308F5003208F4000A12E0
:100D70008A11C3240A128A117108FA007008F90056
:100D800083160313181501307A0200300319790213
:100D90000318CB2ECC2EDE2E790883160313990070
:100DA0001812831203139817831603138717071754
:100DB0008312031318168316031398160800831260
:100DC0000313A3002308FC007C08A2003D08031DB8
:100DD000EA2EEB2EEC2ECC2F2208033E8400831348
:100DE00000080A128A1103200A128A11FC007C08EA
:100DF00083120313A10021083E020318002F012FC4
:100E00007C2F2208033E8400831300080A128A15EF
:100E100055250A128A11003A03190F2F102F7C2F23
:100E2000831203132208033E8400831300083F0546
:100E300003191B2F1C2F4C2F4108FC007C08C400F9
:100E40004430F7000030F80000300A128A11012205
:100E50000A128A1144300A128A1545250A128A118B
:100E60000A128A1559270A128A11831203132008BD
:100E7000FC007C08F80023080A128A1147220A1293
:100E80008A112F30F7008830F80000300A128A11DA
:100E900001220A128A11C72F4008FC007C08C400F6
:100EA0004430F7000030F80000300A128A110122A5
:100EB0000A128A1144300A128A1545250A128A112B
:100EC0000A128A1559270A128A118312031320085D
:100ED000FC007C08F80023080A128A1147220A1233
:100EE0008A112F30F7008830F80000300A128A117A
:100EF00001220A128A11C72F831203133D08FC0036
:100F00007C08C4004430F7000030F80000300A12BA
:100F10008A1101220A128A1144300A128A154525C3
:100F20000A128A110A128A1559270A128A11963052
:100F3000F1008830F2000A128A113E200A128A114A
:100F4000831203132308F1000030F2000A128A1101
:100F50003E200A128A110A300A128A152B250A121B
:100F60008A11831203132008FC007C08F800230870
:100F70000A128A1147220A128A112F30F70088308C
:100F8000F80000300A128A1101220A128A110A128C
:100F90008A156F260A128A1108000A128A15E1249E
:100FA0000A128A11CA000A128A15E2240A128A1148
:100FB000CB000A128A15E3240A128A11CC000A1205
:100FC0008A15E4240A128A11CD000A128A15E52432
:100FD0000A128A11CE008313A0308400E0300A1276
:100FE0008A15F5240A128A113D3084004A300A120B
:100FF0008A15F5240A128A1183010A128A11382CE3
:10100000FF1B0A2883137F1883170008840A03191B
:10101000FF0A08007F087F398A000408840A031940
:10102000FF0A8200303431343234333434343534CE
:101030003634373438343934413442344334443428
:1010400045344634F9343634CD34AC34E7344634A0
:10105000413449344C3400344F344B340034593427
:10106000EC34AD34FC3484343D343D343D343D34D3
:1010700045344E34443420344F34463420344434E0
:1010800045345434413449344C3453343D343D3484
:101090003D343D3400343D343D343D3453345434D8
:1010A00041345234543420344F34463420344434A0
:1010B00045345434413449344C3453343D343D3454
:1010C0003D3400343D343D343D343D343D343D34D5
:1010D0003D343D343D34523458343D343D343D3458
:1010E0003D343D343D343D343D3400345334453497
:1010F0005434553450345F345234453454345234BB
:1011000000344F3442345334453452345634453429
:101110005F3454345834003445344E345F345234E0
:1011200058344134443444345234003470346134DB
:1011300079346C346F346134643420343D34003499
:10114000523446345F345334453454345534503477
:101150000034533445345434553450345F344134BE
:1011600057340034523458345F34533449345A3489
:1011700045340034523458345F3450344F34523490
:101180005434003443344F344E34463449344734B5
:1011900000345334543441345434553453340034CB
:1011A000643461347434613420343D340034523456
:1011B00058345F34503430340034523458345F344F
:1011C000503431340034523458345F345034323473
:1011D0000034523458345F34503433340034523491
:1011E00058345F34503434340034523458345F341B
:1011F00050343534003445344E345F344134413456
:101200000034523446345F34433448340034683454
:041210006934003409
:1019C2000034FC34B034E834F53406300A128A1597
:1019D20052260A128A150800F90079080A128A1595
:1019E2001F250A128A15080064008001840A040671
:1019F200031900340406F62CFF30F7007708F400D0
:101A0200E2300A128A15CF250A128A150800FF3021
:101A1200F7007708F400E1300A128A15CF250A127E
:101A22008A150800F00070088312031393008C1DBE
:101A32001B2D1C2D182D8C1113080800F800780896
:101A4200F7007708F40005300A128A15CF250A122A
:101A52008A150800F00083160313981C312D322DCD
:101A62002C2D70088312031399000800F8007808DF
:101A7200FE3E0339F7007708F40003300A128A1594
:101A8200CF250A128A150800F7007708F100003006
:101A9200F2000530F6007608F30010300A128A11BF
:101AA200A0200A128A150800F100831203133D08D0
:101AB2003E05F0003E08710570060319612D632D85
:101AC2000130642D00300800831203139416403055
:101AD20083160313940087120716871183120313C8
:101AE2001408F03902389400080083120313881195
:101AF200FF300A128A1513250A128A15F10071089D
:101B020083120313C3008815430808000A128A15BA
:101B120076250A128A15F2000310720C0739F300B7
:101B22007308F40006307402031C982D992D9B2D26
:101B320000309C2D01300800F80078080319A22D0E
:101B4200A32DAE2D3F30F7007708F40001300A12C2
:101B52008A15CF250A128A15B52DF40101300A1211
:101B62008A15CF250A128A15080003300A128A152F
:101B720052260A128A150339F4007408F500750812
:101B82000319C42DC52DCD2D043075020318CA2D9D
:101B9200CB2DCD2D0130CE2D00300800F600831262
:101BA20003138811760820380A128A1513250A129F
:101BB2008A15F500750883120313C30074080A120C
:101BC2008A1513250A128A15831203138815080031
:101BD20000300A128A1552260A128A150238F700B4
:101BE2007708F40000300A128A15CF250A128A15E6
:101BF2001A30F800F830F700F70BFD2DF80BFD2D29
:101C020000000800FB000F307705F8007B080F3951
:101C1200F90003300310F90DFF3E031D0B2E0310D4
:101C2200790D7804FA007A08F40004300A128A1551
:101C3200CF250A128A150800FA007A08F8007808F7
:101C4200F1007708F9007908F20061300A128A156A
:101C5200D5270A128A154030F8007808F4000730B8
:101C62000A128A15CF250A128A1508008312031355
:101C7200B2003208AF002F08B1002E08AF002F08C3
:101C8200A9003108043E84008313000E0F39B0000E
:101C92003008AA0032080A128A11B7230A128A15DA
:101CA2000800F20083120313881172080A128A15BF
:101CB20013250A128A15F100710883120313C30057
:101CC200FF300A128A1513250A128A15F1007108CB
:101CD200F3008312031388157308080000300A12F8
:101CE2008A1552260A128A150138F7007708F4007D
:101CF20000300A128A15CF250A128A157030F700B1
:101D02007708F40007300A128A15CF250A128A15BD
:101D12008312031308150800FD007D08F00000304F
:101D2200F1000530F2000030F30044300A128A114B
:101D3200D2200A128A15831203133D08FC007C0884
:101D4200C4004430F7000030F80001300A128A1152
:101D520001220A128A15080083120313A60026081C
:101D6200FD007D08A5002030FD00250884007D08C7
:101D7200831380003D08FD002508023E84007D0893
:101D820080002408FD007D08A00026080A128A119E
:101D9200DF260A128A1508001D300A128A155226F9
:101DA2000A128A150438F7007708F4001D300A1267
:101DB2008A15CF250A128A151C300A128A15522654
:101DC2000A128A153F38F7007708F4001C300A120D
:101DD2008A15CF250A128A15080060300A128A1560
:101DE20052260A128A15F8007808FA0021307A027F
:101DF200031CFC2EFD2E0D2F0A128A15FD240A1239
:101E02008A150B30F9006230F800F80B062FF90B37
:101E1200062F000000300E2F7A080800F800831207
:101E220003134208F339F7007708C2007808031D4C
:101E32001B2F1C2F1D2F262F7803031D212F222F2E
:101E4200242FC215262FC21542154208F700770823
:101E5200F40000300A128A15CF250A128A150800EA
:101E6200F80006300A128A1552260A128A15F7005D
:101E72007708F9007908D739F7007708F9000230B6
:101E82007806031D452F462F482FF9164E2F78034B
:101E9200031D4C2F4D2F4E2FF9157908F7007708A7
:101EA200F40006300A128A15CF250A128A15080094
:101EB20083120313081100300A128A1552260A12DD
:101EC2008A15FE39F7007708F40000300A128A15E5
:101ED200CF250A128A1502300A128A1552260A12D0
:101EE2008A150138F7007708F40002300A128A15C1
:101EF200CF250A128A15AD30F700F70B7E2F0800A6
:101F0200F200F40170080319872F882FA82FF3011C
:101F1200F30A912F0310F00D0130F1007108F3075D
:101F2200F01F942F952F8B2F0310F40D700872025F
:101F3200031C9C2F9D2FA02F7008F2027414031013
:101F4200F00C0130F302031DA72FA82F952F740860
:101F52000800FB0006300A128A1552260A128A1558
:101F6200F839F7007708F90004307B020318BA2F1A
:101F7200BB2FC02F7B08F7007708FA00C42F03306D
:101F8200F7007708FA007A08F7007707F800780870
:101F9200F9047908F7007708F40006300A128A1566
:101FA200CF250A128A150800F40083120313881140
:101FB20074080A128A1513250A128A15F300730887
:101FC20083120313C300F52FFF300A128A1513255B
:101FD2000A128A15F30071088400730883138000C3
:101FE2000130F3007308F1070130F202720A031D97
:0E1FF200FB2FFC2FE52F831203138815080028
:02400E007A3FF7
:00000001FF
