:0400000080310B2818
:100008007E1480318F31272780317E10090080319E
:100018000D28B13084008E308500563086000030BF
:10002800870004308E31D1268031BA3084008E307A
:100038008500D23086000030870005308E31D12609
:100048008031DA01DB01DC01A0308400003085005A
:1000580032308E31CB26803120308400013085004B
:1000680040308E31CB2680317E10200081319A2994
:100078002000B40003302F06031D43284428992983
:1000880007302E02031849284A284B289929340892
:10009800B0003008B9003908063E860001308700F4
:1000A80001080339003A031D5A285B28D428403038
:1000B800B0003008B8003908053E860001308700D6
:1000C8000108B0003808053E860001308700300876
:1000D80081003808063E860001308700011538087F
:1000E800063E8600013087000108FC39023881008D
:1000F8003908023E8600013087000108B000380840
:10010800033E860001308700300881003908043E2C
:1001180086000130870001080F39B0003808043E16
:10012800860001308700B00E010830060F3930060E
:1001380081002030B0003808860001308700300880
:1001480081003808073EF0000130F1005630F20017
:100158000030F3000430F4000030F5008531C82584
:1001680080310B302000B0003008A7003908860025
:10017800013087000130423FA8000330B100310848
:10018800A9003908043E86000130870001080F39AC
:10019800B2003208AA0040308531332580317129F8
:1001A8003908063E86000130870001080339013A04
:1001B800031DDF28E0287129B301002933353907E9
:1001C800B0003008073E860001308700403FB50088
:1001D800413FB600043035020318F328F428FC2800
:1001E8003608B0003535573E860087013008810053
:1001F8000130B0003008B3072100290C890C0F39F1
:1002080020003302031C09290A29E2284030B000E3
:100218003008B7003908053E86000130870001081C
:10022800B0003708053E860001308700300881009D
:100238003708063E86000130870001153708063E5C
:100248008600013087000108FC390238810039082E
:10025800023E8600013087000108B0003708033EDF
:10026800860001308700300881003908043E860086
:100278000130870001080F39B0003708043E8600B6
:1002880001308700B00E010830060F3930068100B2
:100298002030B00037088600013087003008810020
:1002A8000730B0003008A700390886000130870001
:1002B8000130423FA8000330B1003108A9003908D5
:1002C800043E86000130870001080F39B200320869
:1002D800AA0040308531332580312100291C752939
:1002E8007629992920003908053E860001308700C3
:1002F800010821002B06031D822983299929AC3086
:10030800F0000030F10020003408F2000130F30062
:100318002E08B000B1013008F4003108F50085312D
:10032800C825803121002910A91408007A3021003D
:1003380099008E110E128E140E1410308E31C526AF
:1003480081318F313827813185319A258131733058
:100358008E31BF268131D230FC000030FD0086315D
:10036800E82681310030843145248131CE29863117
:1003780085268131103020008E0607302000D400F9
:100388001730D3006A30890BC729D30BC729D40B80
:10039800C729000020005A080319D329D429BB29EA
:1003A8008E110E160330D3005308C6005630D40001
:1003B8005408C7000230D5005508C8000130823102
:1003C800FC22813186318526813120008E11FB295E
:1003D800083020008E0603302000D4000830D300F7
:1003E8007730890BF529D30BF529D40BF5298731FB
:1003F800C3278131003A0319022A032AEC2908305D
:100408002000D3005308A700A801A80A0330D4008D
:100418005408A9000330D5005508AA00403085319A
:100428003325813120008E1C1A2A1B2A2F2A5709AE
:10043800D3005308D7000330D3005308C600563002
:10044800D4005408C7000230D5005508C800013050
:100458008231FC22813120000E1C332A342AE629FD
:100468005909D3005308D9000330D3005308C600F4
:100478005830D4005408C7000230D5005508C800C9
:1004880001308231FC228131E62980310B2820009D
:10049800A3002308FC007C08A20021002008031DFB
:1004A800562A572A582AFB2A20002208033E86008B
:1004B8000130870001088731F1278231FC007C0870
:1004C8002000A10021082100210203186C2A6D2AAE
:1004D800D32A20002208033E860001308700010845
:1004E8008F3149278231003A03197B2A7C2AD32A83
:1004F80020002208033E8600013087000108210001
:1005080022050319882A892AAE2A2408FC007C08B7
:10051800CC00CC30F7000030F80000308431FD24E6
:100528008231CC308F31192782318631C926823108
:1005380020002008FC007C08F80023088431882467
:1005480082312630F7008730F80000308431FD24EE
:100558008231F82A2308FC007C08CC00CC30F70054
:100568000030F80000308431FD248231CC308F31E6
:10057800192782318631C926823120002008FC00E3
:100588007C08F80023088431882482312630F7005B
:100598008730F80000308431FD248231F82A2100A8
:1005A8002008FC007C08CC00CC30F7000030F800B4
:1005B80000308431FD248231CC308F3119278231CB
:1005C8008631C926823120002008FC007C08F8000A
:1005D80023088431882482312630F7008730F800D8
:1005E80000308431FD2482318731DA2782310800D6
:1005F8002000D1004030C9004908D2005208063E08
:10060800860001308700011521002A082000C90052
:100618005208053E860001308700490881005208CB
:10062800063E8600013087000108FC390138810048
:1006380021002A082000C90049082100AB0029141C
:10064800A91001302000C90049082100AA07473035
:10065800F0000130F10020004708F2000030F300FC
:100668004808C900CA014935F4004A0DF50085312A
:10067800C825823120004835073EC9004908A7002F
:100688005108CA004A08A8000330CB004B08A9004B
:100698004608CC004C08AA00403085313325823109
:1006A8008F31A9278231703070072000CD00823049
:1006B800713DCE000330723DCF000030733DD00055
:1006C800682B8631852682318F31A9278231200017
:1006D80050087302031D7A2B4F087202031D7A2BF0
:1006E8004E087102031D7A2B4D08700203187D2BEA
:1006F8007E2B832B2100A91C822B832B652B2100A9
:10070800A91C872B882B882B080021000E138E121A
:1007180020000E138E160330FD000830FC007730E1
:10072800890B942BFC0B942BFD0B942B00001A3097
:10073800FC00F830890B9E2BFC0B9E2B00320F30EF
:10074800FC007C08F70005308F31D4278331033053
:10075800863119268331003086313E268331F401F3
:100768001D308F316C278331F4011C308F316C2799
:1007780083313F30FC007C08F40001308F316C2756
:1007880083310330FC007C08F40002308F316C2781
:100798008331203085316825833105308E31F32649
:1007A80083314C308E31E92683317030FC007C086F
:1007B800F40007308F316C2783318E31D72683318F
:1007C8008E31E02683310C30FC007C08F4000030C8
:1007D8008F316C2783318F317F27833100308F3100
:1007E800BE278331FC007C082000DB0008002000C5
:1007F800C3004308C0004008C2004208033E860008
:100808000130870001082100200603190C2C0D2C4B
:10081800292C20003F08C0004008A000430882316E
:100828004B228331442C3F08C0004008BA004308DB
:1008380087317A278331442C3F08C0004008A40040
:100848004308873142278331442C2000420A86001E
:10085800013087000108C000C1014108003A0319AE
:10086800362C442C4008003A0319442C013A031949
:10087800172C033A0319442C013A0319202C442C51
:1008880008002000A3002308A10021082100A000DF
:10089800200023088731F12784312000A100210896
:1008A8002100A1002108013E2000A100210821000B
:1008B800A20022082000A1000130A135890B612C7B
:1008C80021002108200520002104A200220821007F
:1008D800A30022082000A1000130A135890B712C4A
:1008E80021002108200520002104210022042000E5
:1008F800A20022082100A400CC30FC000030FD003A
:100908008631E82684310800FA0020008E12A030D3
:100918008E31FF268431F90079082000DC00A02CF4
:100928007A0886000130870001088E31FF2684315D
:100938000130F9007908FA070130F802780A031D36
:10094800A62CA72C942C20008E160E178F310C275E
:10095800843130390319B12CB22CAA2C20000E1383
:100968007030F9007908F40007308F316C27843132
:1009780020005C1EC02CC12CC42C8E31E026843192
:100988000800F1000310F10C0310F10CF201D22C55
:100998000130F0007008F2070310F10C7108031918
:1009A800D62CD72CDB2C711CDA2CDB2CCC2C0B177F
:1009B8008B1721001114200018139813981572082A
:1009C800F0000130F036890BE62C7018EC2CEF2C77
:1009D80020009816F12C200098127218F42CF72C8D
:1009E80020001816F92C20001812181496019701E7
:1009F8000800FB0002307B020318032D042D122D82
:100A08007808F2007708F1000530F9007908F3005A
:100A18007B080A3E8631622684311F2D77088400C0
:100A2800780885000008F9007908F4007B080A3E78
:100A38008F316C2784310130F9007B0A242DF93578
:100A4800890B232D02308F31BE2784317904FA00B7
:100A58007A08F40002308F316C27843108002000B6
:100A6800AD002D08AB002B08AC002C0A8600013025
:100A780087008101810A2808AB002C08033E860004
:100A8800013087002B0881002C08043E86000130C5
:100A9800870001082906F039290681002A08AB00D9
:100AA8002C08043E860001308700AB0E01082B0697
:100AB8000F392B0681002708AB002B08A4002D084E
:100AC8008631A72685310800F8007808F7007708EE
:100AD800F40011308F316C2785317808F7007708DA
:100AE800F40012308F316C2785317808F7007708C9
:100AF800F40013308F316C2785317808F7007708B8
:100B0800F40014308F316C2785317808F7007708A6
:100B1800F40015308F316C2785317808F700770895
:100B2800F40016308F316C27853108008331892312
:100B3800853105308E31F32685318731932785310C
:100B4800003086313E2685310130873107278531CF
:100B58002630F7008730F80000308431FD248531D5
:100B680001308F319427853103302000A000200800
:100B7800F4008E31B52685312030853168258531E0
:100B88008731DA27853108007308FA007208F900FE
:100B98007108F8007008F700E72D790886007A08D0
:100BA80087000108F6007608FB000130F9070030DD
:100BB800FA3D77088600780887007B0881000130B5
:100BC800F7070030F83D0130F4020030F53B740AB5
:100BD800031DF22D750A031DF22DF32DD12D0800EA
:100BE800F50020008E1275088E31FF268531F4003D
:100BF80074082000DC000F2EFF308E31FF2685316F
:100C0800F4007108860072088700740881000130BA
:100C1800F1070030F23D0130F302730A031D152E6F
:100C2800162E002E20008E160800FA0006308F318E
:100C3800BE278631F839F7007708F80004307A02C1
:100C48000318272E282E2D2E7A08F7007708F9008A
:100C5800312E0330F7007708F9007935F700770867
:100C6800F8047808F7007708F40006308F316C270D
:100C780086310800F80006308F31BE278631F7002C
:100C88007708F9007908D739F7007708F9000230B2
:100C98007806031D502E512E532EF916592E78031F
:100CA800031D572E582E592EF9157908F700770885
:100CB800F40006308F316C2786310800F5002000DB
:100CC8008E12750820388E31FF268631F40074089C
:100CD8002000DC007D2E7108840072088500000861
:100CE8008E31FF2686310130F1070030F23D0130A8
:100CF800F3027308031D812E822E6F2E20008E169C
:100D080008009E2E87315E2786312000C4004408E3
:100D1800C5004508C4004408F70020308F31EA2791
:100D2800863120004508C4004408BF0020308331C4
:100D3800FB2386318F315A278631003A031DA52EB1
:100D4800A62E862E08002000A6002608FD007D0895
:100D5800A5002030FD0025088600013087007D08A9
:100D6800810021002008FD0020002508023E8600A1
:100D7800013087007D0881002408FD007D08A0005F
:100D8800260882314B228631080020000E130030DD
:100D98008F31BE278631FE39F7007708F40000301E
:100DA8008F316C27863102308F31BE27863101386A
:100DB800F7007708F40002308F316C278631AD30A8
:100DC800890BE42E00000800CC30F0000030F10060
:100DD8007D08F3007C08F2000530F4000030F500CF
:100DE8008531C8258631210020082000A000200870
:100DF8002100CC00CC30F7000030F80001308431FD
:100E0800FD2486310800F80020005B08F339F7005C
:100E18007708DB007808031D122F132F142F1D2FBE
:100E28007803031D182F192F1B2FDB151D2FDB151A
:100E38005B155B08F7007708F40000308F316C27EA
:100E4800873108005934EC34AD34FC3484343D34F3
:100E58003D343D343D3445344E34443420344F34ED
:100E680046342034443445345434413449344C34C1
:100E780053343D343D343D343D3400342000A60025
:100E88002608A5002508A7002708053EFC00013014
:100E9800FD008631E826873120002708043E8600B9
:100EA8000130870001088431452487312000DA01A8
:100EB800DA0A080060308F31BE278731F8007808D9
:100EC800F90021307902031C6A2F6B2F782F8E319D
:100ED800D72687310B30F8006230890B712FF80B59
:100EE800712F00320030792F790808002000BE00E9
:100EF8003E08BB003B08BD003A08BB003B08AE00FB
:100F08003D08043E860001308700010E0F39BC0001
:100F18003C08AF003E0880313C20873108001D3076
:100F28008F31BE2787310438F7007708F4001D3069
:100F38008F316C2787311C308F31BE2787313F387E
:100F4800F7007708F4001C308F316C2787310800D0
:100F58003D343D343D3453345434413452345434A4
:100F680020344F34463420344434453454344134E6
:100F780049344C3453343D343D343D34003403302B
:100F88008F31BE2787310339F4007408F5007508DE
:100F98000319CF2FD02FD82F043075020318D52F5F
:100FA800D62FD82F0130D92F0030080000308F31CC
:100FB800BE2787310138F7007708F40000308F31F9
:100FC8006C2787317030F7007708F40007308F31CD
:100FD8006C27873120000E170800F000F101F82F68
:100FE8000314F10D0310F00C023070020318FD2FEA
:100FF800FE2FF42F71080800533445345434553407
:1010080050345F34523445345434523400344F34FD
:101018004234533445345234563445345F345434AE
:101028005834003445344E345F34523458344134E3
:101038004434443452340034523446345F345334E4
:1010480045345434553450340034533445345434CE
:10105800553450345F3441345734003443344F34BA
:101068004E344634493447340034533454344134CC
:101078005434553453340034523458345F34503473
:1010880030340034523458345F34503431340034FE
:10109800523458345F345034323400345234583473
:1010A8005F34503433340034523458345F3450345D
:1010B80034340034523458345F34503435340034C6
:1010C80045344E345F34413441340034523446346C
:1010D8005F34433448340034F9343634CD34AC34D6
:0210E800E734EB
:101D6200013400340234003406308F31BE278E3104
:101D720008000034FC34B034E834F534F900790852
:101D82008E31E9268E310800F30073088431C524B0
:101D92008E310800640080010131890BCC2E0034A1
:101DA200FE0012001E00FE0BD22E0034FF30F700A0
:101DB2007708F400E2308F316C278E310800FF3053
:101DC200F7007708F400E1308F316C278E3108007C
:101DD200F8007808F7007708F40005308F316C2797
:101DE2008E310800F8007808FE3E0339F7007708C4
:101DF200F40003308F316C278E310800F000700838
:101E0200240091002000911D072F082F032F91110C
:101E120024001108080020008E12FF308E31FF26A8
:101E22008F31F10071082000DC008E165C0808007A
:101E3200F7007708F1000030F2000530F60076086E
:101E4200F3001030863162268F3108002000111C09
:101E52002B2F2C2F372F00302100A5070030A63D55
:101E62000130A73D0030A83D2000111008002400D9
:101E720095124030940021000D168E130D1323008D
:101E82008D0124001508F0390238950095160800D6
:101E9200F200210020082105F00072082105F1005E
:101EA200710870060319562F582F0130592F003030
:101EB20008008F310C278F3189360739F2007208FA
:101EC200F30006307302031C672F682F6A2F00305D
:101ED2006B2F01300800F60020008E1276082038A1
:101EE2008E31FF268F31F50075082000DC00740862
:101EF2008E31FF268F3120008E16080000308F3180
:101F0200BE278F310238F7007708F40000308F3196
:101F12006C278F311A30F700F830890B8E2FF70BB0
:101F22008E2F00320800F80078080319992F9A2F93
:101F3200A32F3F30F7007708F40001308F316C2770
:101F42008F31A82FF40101308F316C278F310800B7
:101F520020001608F4001708F500F601F701210029
:101F620025087404F00026087504F1002708760499
:101F7200F20028087704F3000800F20020008E1215
:101F820072088E31FF268F31F10071082000DC00CB
:101F9200FF308E31FF268F31F1007108F3002000EF
:101FA2008E1673080800FB000F307705F8007B08D7
:101FB2000F39F9000330F935FF3E031DDC2F793567
:101FC2007804FA007A08F40004308F316C278F31DC
:101FD2000800F9007908F1000130F2007708F800F2
:101FE2007808F30061308531F4258F314030F800F4
:0E1FF2007808F40007308F316C278F3108001B
:020000040001F9
:02000E00C42903
:00000001FF
