:0400000080310B2818
:100008007E1480318131042180317E1009008031D5
:100018000D282000AC01AD01AE01AF017E1020001B
:100028008031C8288031F020803170082000A40079
:100038007108A5007208A6007308A7002308F3003A
:100048002208F2002108F1002008F0000030F70033
:100058000030F6000330F500E830F40080319520D8
:10006800803170082000A4077108A53D7208A63DDC
:100078007308A73D2708AB002608AA002508A90091
:100088002408A8008031F020803120002B0873025A
:10009800031D58282A087202031D582829087102CE
:1000A800031D582828087002031C5B285C28462872
:1000B8000800F1000310F10C0310F10CF2016A289A
:1000C8000130F0007008F2070310F10C71080319F1
:1000D8006E286F287328711C7228732864280B17E0
:1000E8008B17210011142000181398139815720803
:1000F800F0000130F036890B7E2870188428872894
:100108002000981689282000981272188C288F28A9
:10011800200018169128200018121814960197012B
:1001280008000030FB000030FA000030F900003011
:10013800F800701CA028A128A9287408F8077508D9
:10014800F93D7608FA3D7708FB3D0130F435F50DA9
:10015800F60DF70D890BAA280130F336F20CF10CD5
:10016800F00C890BB1287308720471047004031D24
:10017800BE28BF289D287B08F3007A08F20079087A
:10018800F1007808F0000800103081311321803127
:100198007A30210099008D0120008D1720008D17DD
:1001A8001530FD004B30FC00BE30890BD928FC0B04
:1001B800D928FD0BD928003220008D130030A30068
:1001C8000030A2000330A100E830A00080311620E2
:1001D8008031D22880310B2820001608F400170837
:1001E800F500F601F7012C087404F0002D087504D9
:1001F800F1002E087604F2002F087704F3000800B7
:100208002000111C0829092912290030AC070030E8
:10021800AD3D0130AE3D0030AF3D11100800F30098
:0A022800730880315D208131080069
:020000040001F9
:02000E00C42903
:00000001FF
