:060000000A128A110C280F
:10000800FE00030EF0000A08F1000A128A15402DBE
:100018000A128A110F28831603130A128A15042557
:100028000A128A11D6000A128A1505250A128A119F
:10003800D7000A128A1506250A128A11D8000A1250
:100048008A1507250A128A11D9000A128A15082565
:100058000A128A11DA00831790308400B0300A122D
:100068008A1518250A128A118313A0308400D63005
:100078000A128A1518250A128A1183120313DA0143
:10008800FB0183010A128A117029831203132308C2
:10009800AA002408AB00831603132008031D552863
:1000A800562857286F29831203132A08033EA600EF
:1000B8002B080318013E003EA7002608840083177A
:1000C800271C831300080A128A157E250A128A1132
:1000D80083120313A8002808A9002908831603130C
:1000E80021020318782879281829831203132A086B
:1000F800033EA6002B080318013E003EA700260871
:1001080084008317271C831300080A128A159D256B
:100118000A128A11003A031992289328182983127F
:1001280003132A08033EA6002B080318013E003ECD
:10013800A700260884008317271C8313000883164A
:10014800031322050319A928AA28E12824088312E1
:100158000313A600260883160313C900C930F90043
:100168000030FA0000300A128A11F9250A128A11A1
:10017800C9300A128A158D250A128A110A128A159F
:1001880080270A128A11831203132308A000240867
:10019800A1002508A6002608A2000A128A11AB258C
:1001A8000A128A111E30F9008030FA0000300A1253
:1001B8008A11F9250A128A116A292308831203135E
:1001C800A600260883160313C900C930F9000030B9
:1001D800FA0000300A128A11F9250A128A11C93068
:1001E8000A128A158D250A128A110A128A15802781
:1001F8000A128A11831203132308A0002408A100FD
:100208002508A6002608A2000A128A11AB250A12A0
:100218008A111E30F9008030FA0000300A128A1163
:10022800F9250A128A116A298316031320088312F2
:100238000313A600260883160313C900C930F90062
:100248000030FA0000300A128A11F9250A128A11C0
:10025800C9300A128A158D250A128A110A128A15BE
:1002680080270A128A117130F3008030F4000A12D4
:100278008A11AC270A128A11831203132308F30088
:100288002408F4000A128A11AC270A128A110A30CB
:100298000A128A1564250A128A1183120313230885
:1002A800A0002408A1002508A6002608A2000A121A
:1002B8008A11AB250A128A111E30F9008030FA0023
:1002C80000300A128A11F9250A128A110A128A15AF
:1002D800D0260A128A110800831603138810061103
:1002E800861510300A128A1510250A128A110A1268
:1002F8008A15AD250A128A110A128A1189260A124C
:100308008A1173300A128A1520250A128A11D630EA
:100318000A128A1533270A128A1102300A128A1120
:10032800FB240A128A11003083120313D400003010
:10033800D3000030D2000030D100B529023083123A
:1003480003138806153083120313CF004B30CE00F9
:10035800BD30CD00CD0BAE29CE0BAE29CF0BAE29CB
:10036800B5290A128A1515260A128A11003A0319A4
:10037800BE29BF29A229083083120313CD004D08D6
:10038800B000B101B10A0330CE004E08B200063009
:10039800CF004F08B300A9300A128A117B270A122E
:1003A8008A11153083120313CF004B30CE00BD30B5
:1003B800CD00CD0BDD29CE0BDD29CF0BDD29E429BE
:1003C8000A128A15D4270A128A110A128A15E525F3
:1003D8000A128A11750883120313D9007408D80009
:1003E8007308D7007208D6005608CD005708CE000B
:1003F8005808CF005908D0005108CD025208031CF4
:10040800520F072A082ACE025308031C530F0D2A3D
:100418000E2ACF025408031C540F132A142AD002A0
:100428005008031D252A4F08031D252A4E08031DC1
:10043800252A97304D02031D212A031C242A252A28
:100448003B2A831203135908D4005808D3005708CD
:10045800D2005608D100831603135418342A382AB8
:100468008312031386143B2A831203138610003069
:100478008312031306190130FA00CF300A128A11C9
:100488007F240A128A1183120313CD004D08D50068
:1004980055080319502A512AB52983160313D4097C
:1004A800B5290A128A110C28F70083120313881140
:1004B80077080A128A154C250A128A11F60076085E
:1004C80083120313DA007C2AFF300A128A154C259E
:1004D8000A128A11F600730884008317741C8313A8
:1004E800760880000130F3070318F40A0030F40797
:1004F8000130F502750A031D822A832A682A8312AD
:1005080003138815080083120313A20006300A1289
:100518008A15B3260A128A11F839F9007908831264
:100528000313A0000430220203189B2A9C2AA12A44
:100538002208F9007908A100A52A0330F9007908F2
:10054800A1002108F9007907FA007A08A004200818
:10055800F9007908F60006300A128A1548260A12A8
:100568008A110800F9007208F5007508F800790882
:10057800F5007508F700D52A780884008313000869
:10058800F5007508F6000130F5007508F8077608DB
:10059800F50077088400750880000130F5007508BB
:1005A800F7070130F3020030031CF403F402730A66
:1005B800031DE22A740A031DE22AE32AC02A08005E
:1005C80083120313A0002008F3000130F400790817
:1005D800FA007A08F50061300A128A1158220A12C4
:1005E8008A114030FA007A08F60007300A128A1594
:1005F80048260A128A110800FF1B0A2B83137F184A
:1006080083170008840A0319FF0A080003308A00C8
:100618000408840A820700343034313432343334E5
:100628003434353436343734383439344134423458
:1006380043344434453446344634413449344C34E4
:100648000034F9343634CD34AC34E7344F344B34D9
:1006580000345934EC34AD34FC3484343D343D3406
:100668003D343D3445344E34443420344F344634DC
:100678002034443445345434413449344C345334AC
:100688003D343D343D343D3400343D343D343D3417
:100698005334543441345234543420344F3446346F
:1006A8002034443445345434413449344C3453347C
:1006B8003D343D343D34003453344534543455349A
:1006C80050345F34523445345434523400344F3447
:1006D8004234533445345234563445345F345434F8
:1006E8005834003445344E345F345234583441342D
:1006F80044344434523400347034613479346C34C2
:100708006F346134643420343D3400345234463418
:100718005F345334453454345534503400345334EE
:1007280045345434553450345F34413457340034EC
:1007380043344F344E344634493447340034533408
:1007480054344134543455345334003452345834C6
:100758005F34503430340034523458345F345034B9
:1007680031340034523458345F3450343234003425
:10077800523458345F34503433340034523458349B
:100788005F34503434340034523458345F34503485
:100798003534003445344E345F3441344134003408
:1007A800523446345F3443344834003483160313D8
:1007B8000811881183120313081188150330831256
:1007C8000313A5000830A4007630A300A30BEA2B7E
:1007D800A40BEA2BA50BEA2B00001A308312031393
:1007E800A400F730A300A30BF72BA40BF72BFC2BCB
:1007F8000F3083120313A3002308F90005300A12EF
:100808008A1597260A128A1103300A128A1187223A
:100818000A128A1100300A128A15A8270A128A11A8
:10082800F6011D300A128A1548260A128A11F601A5
:100838001C300A128A1548260A128A113F30831280
:100848000313A3002308F60001300A128A1548266C
:100858000A128A11033083120313A3002308F60037
:1008680002300A128A1548260A128A1120300A1202
:100878008A110B270A128A1105300A128A15702567
:100888000A128A114C300A128A1558250A128A113E
:10089800703083120313A3002308F60007300A12EE
:1008A8008A1548260A128A110A128A152A250A1256
:1008B8008A110A128A1535250A128A110C308312F8
:1008C8000313A3002308F60000300A128A154826ED
:1008D8000A128A110A128A1562260A128A1100302F
:1008E8000A128A15B3260A128A1183120313A30067
:1008F8002308FB00080083120313A600A40126089E
:10090800043E840083130008031D8B2C8C2CBA2C06
:100918007A080319902C912CBA2C0A128A15E5250D
:100928000A128A118312031326088400831300080D
:10093800A000840A0008A100840A0008A200840A12
:100948000008A30075082302031DB42C74082202B2
:10095800031DB42C73082102031DB42C7208200255
:100968000318B72CB82CBA2CA401A40A2408A00098
:100978002008A50025080319C22CC32CF22CE83046
:10098800A0000330A1000030A2000030A3000A122A
:100998008A15E5250A128A11720883120313A00723
:1009A80073080318730FD92CDA2CA10774080318DD
:1009B800740FDF2CE02CA20775080318750AA3072B
:1009C80026088400200883138000840A21088000F8
:1009D800840A22088000840A230880007A08A0007C
:1009E8002608043E84002008800025080800831299
:1009F8000313A7002708A500250883160313A000E2
:100A08008312031327080A128A157E250A128A11EF
:100A180083120313A500250883160313A1002108D8
:100A2800013E83120313A500250883160313A200B1
:100A3800220883120313A50001300310A50DFF3E01
:100A4800031D212D83160313210820058312031388
:100A58002504A600260883160313A3002208831280
:100A68000313A50001300310A50DFF3E031D372D0C
:100A78008316031321082005831203132504831604
:100A88000313220483120313A600260883160313F4
:100A9800A400C9300A128A1533270A128A110800DD
:100AA80083120313BF003F08B9003908BC00953012
:100AB800B9003908C0004008840083170008B9004D
:100AC8003908BD00400A84000008B9003908BE0092
:100AD80006303806031D712D722D7B2D3E08B90096
:100AE8003D08D43E8400390883138000AA2D0730BE
:100AF8003806031D802D812DAA2DD430B900390860
:100B0800F2000230F3000030F400AE300A128A110D
:100B1800B6220A128A11203083120313B900390849
:100B2800B000B101B10A0730BA003A08B2003C0877
:100B3800043E8400831700080F39BB003B08B3004C
:100B4800A9300A128A117B270A128A110800831217
:100B580003138811A0300A128A154C250A128A112B
:100B6800FA007A0883120313DA00CD2D20088400D6
:100B78008317211C831300080A128A154C250A12B0
:100B88008A11013083120313A0070318A10A003049
:100B9800A1070130A202220A031DD32DD42DBA2D9C
:100BA800881508150A128A15BE250A128A113039C5
:100BB8000319DF2DE02DD62D831203130811703091
:100BC800FA007A08F60007300A128A1548260A122F
:100BD8008A11831203135A1EF22DF32DF82D0A12CF
:100BE8008A1535250A128A11080083120313A200F8
:100BF800023022020318012E022E122E7908F30069
:100C08007A08F4000530A0002008F50022080A3E02
:100C18000A128A1149270A128A11252E7A08FF001A
:100C2800790884000A128A1100230A128A11A00086
:100C38002008F60022080A3E0A128A1548260A12D7
:100C48008A11013083120313A000220A2D2E0310EB
:100C5800A00DFF3E031D2B2E02300A128A15B32663
:100C68000A128A11831203132004A1002108F60036
:100C780002300A128A1548260A128A1108008312BD
:100C88000313CA004A08C7004708C9004908033EB9
:100C98008400831700088316031320060319552EB2
:100CA800562E712E831203134A08A3000130A400A4
:100CB8004608C7004708A5000A128A1149200A12E7
:100CC8008A11882E4608C7004708C1004A080A1238
:100CD8008A157C260A128A11882E83120313490A60
:100CE80084000008C700C8014808003A03197D2E8F
:100CF800882E4708003A0319882E013A0319662EF0
:100D0800033A0319882E882E08000A128A11DA235A
:100D18000A128A1105300A128A1570250A128A11D8
:100D28000A128A11DD270A128A1100300A128A155E
:100D3800A8270A128A1101300A128A15EE260A1209
:100D48008A111E30F9008030FA0000300A128A1128
:100D5800F9250A128A1101300A128A15FC250A128D
:100D68008A11033083120313A6002608F6000A121C
:100D78008A1509250A128A1120300A128A110B27AE
:100D88000A128A110A128A15D0260A128A11080034
:100D9800F3000310F30C0310F30CF401D92E013007
:100DA800F2007208F4070310F30C73080319DD2E20
:100DB800DE2EE22E731CE12EE22ED32E0B178B179C
:100DC800831603130C1483120313901090157408E0
:100DD800F20001300310F20CFF3E031DEE2E7218D4
:100DE800F62EFA2E831203139016FD2E8312031388
:100DF80090127418002F042F831203131016072F54
:100E080083120313101210148E018F010800FA00C8
:100E18007A08F9007908F60011300A128A1548266E
:100E28000A128A117A08F9007908F60012300A12B3
:100E38008A1548260A128A117A08F9007908F600F4
:100E480013300A128A1548260A128A117A08F900FC
:100E58007908F60014300A128A1548260A128A11EF
:100E68007A08F9007908F60015300A128A1548261A
:100E78000A128A117A08F9007908F60016300A125F
:100E88008A1548260A128A110800F70083120313EC
:100E98008811770820380A128A154C250A128A11F7
:100EA800F600760883120313DA00722F740883128F
:100EB8000313FF00730884000A128A1100230A1220
:100EC8008A110A128A154C250A128A110130F30771
:100ED8000318F40A0030F4070130F5027508031D01
:100EE800762F772F5A2F8312031388150800831241
:100EF8000313B5003508B4003408B600360A840078
:100F080083138001800A3108B4003608033E840048
:100F1800340880003608043E840000083206F039A0
:100F2800320680003308B4003608043E8400B40E4C
:100F3800000834060F39340680003008B40034083D
:100F4800AC0035080A128A1559270A128A110800B6
:100F58006430F5007508F600C52F7408FF007308A3
:100F680084000A128A1100230A128A110A128A15A9
:100F780064250A128A110130F3070318F40A0030B5
:100F8800F407740883120313FF00730884000A121D
:100F98008A1100230A128A11003A0319D42FD52F77
:100FA800DC2F0130F602760A031DDB2FDC2FB12F70
:100FB80008001D300A128A15B3260A128A1104384D
:100FC800F9007908F6001D300A128A1548260A1217
:100FD8008A111C300A128A15B3260A128A113F3860
:100FE800F9007908F6001C300A128A1548260A12F8
:040FF8008A11080052
:101A08000034FC34B034E834F53406300A128A1550
:101A1800B3260A128A150800F50075080A128A11F9
:101A2800CC260A128A15080064008001840A04067C
:101A3800031900340406192D83120313A00020088B
:101A48000A128A1558250A128A150800FF30F9006B
:101A58007908F600E2300A128A1548260A128A1511
:101A68000800FF30F9007908F600E1300A128A15FB
:101A780048260A128A1508000A128A152E260A1202
:101A88008A1571088A00700E8300FE0E7E0E09000A
:101A9800F20072088312031393008C1D542D552DE8
:101AA800512D8C1113080800FA007A08F9007908FA
:101AB800F60005300A128A1548260A128A15080007
:101AC800F20083160313981C6A2D6B2D652D72087E
:101AD8008312031399000800FA007A08FE3E0339BE
:101AE800F9007908F60003300A128A1548260A1206
:101AF8008A150800F200F301852D0314F30D031075
:101B0800F20C0230720203188A2D8B2D812D730876
:101B18000800F9007908F3000030F4000530F800F7
:101B28007808F50010300A128A1149270A128A1516
:101B38000800F3008316031320082105F20021088A
:101B4800730572060319A92DAB2D0130AC2D003099
:101B5800080083120313941640308316031394006D
:101B6800871207168711831203131408F0390238F5
:101B780094000800831203138811FF300A128A1593
:101B88004C250A128A15F300730883120313DA002E
:101B980088155A0808000A128A15BE250A128A15DD
:101BA800F4000310740C0739F5007508F6000630C8
:101BB8007602031CE02DE12DE32D0030E42D0130E9
:101BC8000800831203130E08F6000F08F700F80147
:101BD800F9018316031325087604F2002608770412
:101BE800F30027087804F40028087904F5000800B1
:101BF800FA007A080319012E022E0D2E3F30F90043
:101C08007908F60001300A128A1548260A128A1540
:101C1800142EF60101300A128A1548260A128A156E
:101C2800080003300A128A15B3260A128A150339E6
:101C3800F6007608F70077080319232E242E2C2E99
:101C4800043077020318292E2A2E2C2E01302D2E2F
:101C580000300800831203130C1C332E342E472E39
:101C6800003083160313A507003003180130A607B8
:101C7800013003180230A707003003180130A80705
:101C8800831203130C100800F80083120313881141
:101C9800780820380A128A154C250A128A15F70086
:101CA800770883120313DA0076080A128A154C257E
:101CB8000A128A15831203138815080000300A12C5
:101CC8008A15B3260A128A150238F9007908F6002F
:101CD80000300A128A1548260A128A151A30FA00A4
:101CE800F830F900F90B762EFA0B762E0000080072
:101CF80083120313C5004508C2004208C400410806
:101D0800C2004208B7004408043E84008317000E4E
:101D18000F39C3004308B80045080A128A11542530
:101D28000A128A150800FA000F3079058312031386
:101D3800A0007A080F39A10003300310A10DFF3E5F
:101D4800031DA12E0310210D2004A2002208F60075
:101D580004300A128A1548260A128A150800F40067
:101D680083120313881174080A128A154C250A1263
:101D78008A15F300730883120313DA00FF300A127E
:101D88008A154C250A128A15F3007308F500831288
:101D9800031388157508080000300A128A15B3263F
:101DA8000A128A150138F9007908F60000300A127B
:101DB8008A1548260A128A157030F9007908F60043
:101DC80007300A128A1548260A128A158312031345
:101DD80008150800FA007B08F339F9007908FB00B8
:101DE8007A08031DF82EF92EFA2E032F7A03031D05
:101DF800FE2EFF2E012FFB15032FFB157B157B08ED
:101E0800F9007908F60000300A128A1548260A12E5
:101E18008A15080060300A128A15B3260A128A1534
:101E280083120313A0002008FA0021307A02031C51
:101E38001E2F1F2F312F0A128A152A250A128A15DA
:101E48000B3083120313A1006130A000A00B2A2FCE
:101E5800A10B2A2F2F2F0030322F7A080800831267
:101E68000313A4002408A3002308F2000530F3009C
:101E78000030F400C9300A128A11B6220A128A15F3
:101E880083160313200883120313A3002308831661
:101E98000313C900C930F9000030FA0001300A12F2
:101EA8008A11F9250A128A15080083120313AF0054
:101EB8002F08AD002D08AE002030AD002E0884009C
:101EC8002D0883138000831603132008831203133D
:101ED800AD002E08023E84002D0880002F08A300C4
:101EE8000030A4002C08AD002D08A5000A128A11A4
:101EF80049200A128A1508008312031308110030BA
:101F08000A128A15B3260A128A15FE39F9007908C9
:101F1800F60000300A128A1548260A128A1502307D
:101F28000A128A15B3260A128A150138F9007908A7
:101F3800F60002300A128A1548260A128A15AD30B0
:101F4800F900F90BA52F080083120313A00006302F
:101F58000A128A15B3260A128A15F900790883121B
:101F68000313A1002108D739F9007908A10002302C
:101F78002006031DC02FC12FC32FA116C92F200370
:101F8800031DC72FC82FC92FA1152108F9007908EB
:101F9800F60006300A128A1548260A128A15080021
:101FA800F52F0A128A150E270A128A1583120313AF
:101FB800CB004B08CC004C08CB004B08F900903004
:101FC8000A128A11E4220A128A15831203134C0892
:101FD800CB004B08C60090300A128A1143260A1219
:101FE8008A150A128A15CF250A128A15003A031D86
:081FF800FE2FFF2FD52F08007A
:02400E00713F00
:00000001FF
