:060000000A128A110C280F
:10000800FE00030EF0000A08F1000A128A15512DAD
:100018000A128A110F28831603130A128A15152546
:100028000A128A11CD000A128A1516250A128A1197
:10003800CE000A128A1517250A128A11CF000A1251
:100048008A1518250A128A11D0000A128A1519254C
:100058000A128A11D100831790308400B0300A1236
:100068008A1529250A128A118313A0308400CD30FD
:100078000A128A1529250A128A115B308400653014
:100088000A128A1529250A128A11FB0183010A120C
:100098008A116529831203132308AA002408AB00D8
:1000A8005B08031D582859285A2864292A08033E42
:1000B800A6002B080318013E003EA700260884006E
:1000C8008317271C831300080A128A158F250A1222
:1000D8008A1183120313A8002808A90029085C02C2
:1000E8000318772878280F292A08033EA6002B082A
:1000F8000318013E003EA700260884008317271C2A
:10010800831300080A128A15AE250A128A11003ACA
:1001180003198F2890280F29831203132A08033EF6
:10012800A6002B080318013E003EA70026088400FD
:100138008317271C831300085D050319A428A52825
:10014800DA285F08A600260883160313C000C0300B
:10015800F9000030FA0000300A128A11A0250A12AC
:100168008A11C0300A128A159E250A128A110A12AB
:100178008A15AC270A128A11831203132308A000D8
:100188002408A1002508A6002608A2000A128A1140
:1001980052250A128A111E30F9008030FA00003008
:1001A8000A128A11A0250A128A115F295E08A60080
:1001B800260883160313C000C030F9000030FA0087
:1001C80000300A128A11A0250A128A11C0300A12B8
:1001D8008A159E250A128A110A128A15AC270A1254
:1001E8008A11831203132308A0002408A1002508FC
:1001F800A6002608A2000A128A1152250A128A119C
:100208001E30F9008030FA0000300A128A11A02549
:100218000A128A115F29831203135B08A6002608B5
:1002280083160313C000C030F9000030FA00003014
:100238000A128A11A0250A128A11C0300A128A15D8
:100248009E250A128A110A128A15AC270A128A11E7
:100258007130F3008030F4000A128A1188270A12DC
:100268008A11831203132308F3002408F4000A12E6
:100278008A1188270A128A110A300A128A157525E6
:100288000A128A11831203132308A0002408A1006C
:100298002508A6002608A2000A128A1152250A1269
:1002A8008A111E30F9008030FA0000300A128A11D3
:1002B800A0250A128A110A128A15E1260A128A1141
:1002C8000800831603138810861083120313861000
:1002D80083160313061510300A128A1521250A12EF
:1002E8008A110A128A15BE250A128A110A128A115F
:1002F800EA250A128A1173300A128A1531250A1260
:100308008A11CD300A128A1563270A128A1102301F
:100318000A128A11EA260A128A110030831203137C
:10032800D4000030D3000030D2000030D100AF2913
:100338000230831203138806153083120313CF008B
:100348004B30CE00BD30CD00CD0BA829CE0BA8294F
:10035800CF0BA829AF290A128A1524260A128A1156
:10036800003A0319B829B9299C29083083120313C4
:10037800CD004D08B000B101B10A0330CE004E08DF
:10038800B2000630CF004F08B300A0300A128A111D
:1003980057270A128A11153083120313CF004B30E6
:1003A800CE00BD30CD00CD0BD729CE0BD729CF0B32
:1003B800D729DE290A128A11D0220A128A110A12B2
:1003C8008A15E0250A128A11750883120313D900C9
:1003D8007408D8007308D7007208D6005608CD00F4
:1003E8005708CE005808CF005908D0005108CD0250
:1003F8005208031C520F012A022ACE025308031C7A
:10040800530F072A082ACF025408031C540F0D2A39
:100418000E2AD0025008031D1F2A4F08031D1F2A49
:100428004E08031D1F2A97304D02031D1B2A031C6B
:100438001E2A1F2A352A831203135908D400580884
:10044800D3005708D2005608D100831603134B185F
:100458002E2A322A831203138614352A8312031391
:10046800861000308312031306190130FA00C630D3
:100478000A128A117F240A128A1183120313CD00EB
:100488004D08D500550803194A2A4B2AAF29831667
:100498000313CB09A03083120313CD004D08DA00F3
:1004A8005A08033E840083138001831603134B0804
:1004B80083120313CD005A08043E84004D088000BF
:1004C8005A08023E84008001800A0330CD005A0A8F
:1004D80084004D088000AF290A128A110C28831263
:1004E8000313A20006300A128A15C4260A128A11BA
:1004F800F839F900790883120313A00004302202A6
:100508000318872A882A8D2A2208F9007908A10069
:10051800912A0330F9007908A1002108F900790728
:10052800FA007A08A0042008F9007908F6000630D5
:100538000A128A153D260A128A110800F900720863
:10054800F5007508F8007908F5007508F700C12A64
:100558007808840083130008F5007508F600013058
:10056800F5007508F8077608F5007708840075081F
:1005780080000130F5007508F7070130F3020030FC
:10058800031CF403F402730A031DCE2A740A031D24
:10059800CE2ACF2AAC2A0800F12A0A128A15872700
:1005A8000A128A1183120313CB004B08CC004C08A3
:1005B800CB004B08F90090300A128A15A8260A12B7
:1005C8008A11831203134C08CB004B08C6009030E5
:1005D8000A128A112D260A128A110A128A11E8278C
:1005E8000A128A11003A031DFA2AFB2AD12A0800A6
:10060000FF1B0A2B83137F1883170008840A031922
:10061000FF0A080003308A000408840A82070034B5
:10062000303431343234333434343534363437348E
:100630003834393441344234433444344534463414
:100640004634413449344C340034F9343634CD34F2
:10065000AC34E7344F344B3400345934EC34AD34DB
:10066000FC3484343D343D343D343D3445344E34E3
:10067000443420344F3446342034443445345434E4
:10068000413449344C3453343D343D343D343D34AD
:1006900000343D343D343D345334543441345234C9
:1006A000543420344F3446342034443445345434A4
:1006B000413449344C3453343D343D343D340034BA
:1006C000533445345434553450345F345234453403
:1006D0005434523400344F34423453344534523459
:1006E000563445345F3454345834003445344E3431
:1006F0005F34523458344134443444345234003436
:100700007034613479346C346F346134643420343F
:100710003D340034523446345F3453344534543419
:1007200055345034003453344534543455345034F3
:100730005F3441345734003443344F344E344634FC
:1007400049344734003453345434413454345534E8
:1007500053340034523458345F345034303400341D
:10076000523458345F3450343134003452345834B5
:100770005F34503432340034523458345F3450349F
:1007800033340034523458345F3450343434003409
:10079000523458345F3450343534003445344E3498
:1007A0005F34413441340034523446345F3443348E
:1007B000483400348316031308118811831203137D
:1007C00008118815033083120313A5000830A40014
:1007D0007630A300A30BEA2BA40BEA2BA50BEA2B84
:1007E00000001A3083120313A400F730A300A30BF8
:1007F000F72BA40BF72BFC2B0F3083120313A30052
:100800002308F90005300A128A158C260A128A116B
:1008100003300A128A1173220A128A1100300A1256
:100820008A15D4270A128A11F6011D300A128A1578
:100830003D260A128A11F6011C300A128A153D263D
:100840000A128A113F3083120313A3002308F60013
:1008500001300A128A153D260A128A1103308312CA
:100860000313A3002308F60002300A128A153D265E
:100870000A128A1120300A128A11AC260A128A1131
:1008800005300A128A1581250A128A114C300A1283
:100890008A1569250A128A11703083120313A30086
:1008A0002308F60007300A128A153D260A128A111B
:1008B0000A128A153B250A128A110A128A15462540
:1008C0000A128A110C3083120313A3002308F600C6
:1008D00000300A128A153D260A128A110A128A1558
:1008E00057260A128A1100300A128A15C4260A12E3
:1008F0008A1183120313A3002308FB00080083124C
:100900000313A600A4012608043E840083130008F4
:10091000031D8B2C8C2CBA2C7A080319902C912C4B
:10092000BA2C0A128A15E0250A128A1183120313BF
:100930002608840083130008A000840A0008A10090
:10094000840A0008A200840A0008A3007508230294
:10095000031DB42C74082202031DB42C7308210259
:10096000031DB42C720820020318B72CB82CBA2C23
:10097000A401A40A2408A0002008A5002508031942
:10098000C22CC32CF22CE830A0000330A1000030B0
:10099000A2000030A3000A128A15E0250A128A116B
:1009A000720883120313A00773080318730FD92C5E
:1009B000DA2CA10774080318740FDF2CE02CA207AF
:1009C00075080318750AA3072608840020088313F6
:1009D0008000840A21088000840A22088000840A9A
:1009E000230880007A08A0002608043E840020081E
:1009F00080002508080083120313BF003F08B900D8
:100A00003908BC009530B9003908C000400884009E
:100A100083170008B9003908BD00400A84000008A7
:100A2000B9003908BE0006303806031D182D192DEF
:100A3000222D3E08B9003D08CB3E840039088313BF
:100A40008000512D06303806031D272D282D512DED
:100A5000CB30B9003908F2000230F3000030F40066
:100A6000A5300A128A11A2220A128A11203083129A
:100A70000313B9003908B000B101B10A0730BA0058
:100A80003A08B2003C08043E8400831700080F397E
:100A9000BB003B08B300A0300A128A1157270A1284
:100AA0008A110800831203138811A0300A128A15D4
:100AB0005D250A128A11FA007A0883120313E400F2
:100AC000742D200884008317211C831300080A1248
:100AD0008A155D250A128A11013083120313A007BB
:100AE0000318A10A0030A1070130A202220A031D47
:100AF0007A2D7B2D612D881508150A128A15CF25B0
:100B00000A128A1130390319862D872D7D2D831203
:100B1000031308117030FA007A08F60007300A1241
:100B20008A153D260A128A1183120313641E992D19
:100B30009A2D9F2D0A128A1546250A128A1108003D
:100B400083120313A200023022020318A82DA92D3C
:100B5000B92D7908F3007A08F4000530A0002008C8
:100B6000F50022080A3E0A128A1125270A128A1164
:100B7000CC2D7A08FF00790884000A128A1100231C
:100B80000A128A11A0002008F60022080A3E0A1262
:100B90008A153D260A128A11013083120313A00020
:100BA000220AD42D0310A00DFF3E031DD22D0230CA
:100BB0000A128A15C4260A128A118312031320040A
:100BC000A1002108F60002300A128A153D260A12F9
:100BD0008A1108000A128A11DA230A128A110530D2
:100BE0000A128A1581250A128A110A128A151F27EC
:100BF0000A128A1100300A128A15D4270A128A11A1
:100C000001300A128A15FF260A128A111E30F900D5
:100C10008030FA0000300A128A11A0250A128A11C7
:100C200001300A128A150B260A128A110330831228
:100C30000313A6002608F6000A128A151A250A12BE
:100C40008A1120300A128A11AC260A128A110A125D
:100C50008A15E1260A128A11080083120313CA00BA
:100C60004A08C7004708C9004908033E84008317A3
:100C700000085B0603193D2E3E2E572E4A08A3009E
:100C80000130A4004608C7004708A5000A128A11CF
:100C90004E200A128A116C2E4608C7004708C10070
:100CA0004A080A128A1571260A128A116C2E490AFC
:100CB00084000008C700C8014808003A0319612EE3
:100CC0006C2E4708003A03196C2E013A03194C2E7A
:100CD000033A03196C2E6C2E0800F3000310F30C7A
:100CE0000310F30CF4017A2E0130F2007208F407BD
:100CF0000310F30C730803197E2E7F2E832E731CB2
:100D0000822E832E742E0B178B17831603130C144D
:100D100083120313901090157408F2000130031031
:100D2000F20CFF3E031D8F2E7218972E9B2E8312FE
:100D3000031390169E2E8312031390127418A12E83
:100D4000A52E831203131016A82E8312031310125C
:100D500010148E018F010800FA007A08F900790852
:100D6000F60011300A128A153D260A128A117A08F5
:100D7000F9007908F60012300A128A153D260A1287
:100D80008A117A08F9007908F60013300A128A15D8
:100D90003D260A128A117A08F9007908F600143003
:100DA0000A128A153D260A128A117A08F900790872
:100DB000F60015300A128A153D260A128A117A08A1
:100DC000F9007908F60016300A128A153D260A1233
:100DD0008A11080083120313A7002708A50025081D
:100DE000DB0027080A128A158F250A128A1183123E
:100DF0000313A5002508DC005C08013EA5002508BA
:100E0000DD005D08A50001300310A50DFF3E031DA8
:100E1000042F5C085B052504A6002608DE005D089B
:100E2000A50001300310A50DFF3E031D122F5C0825
:100E30005B0525045D04A6002608DF00C0300A1209
:100E40008A1563270A128A110800F7008312031318
:100E50008811770820380A128A155D250A128A112E
:100E6000F600760883120313E4004E2F74088312F1
:100E70000313FF00730884000A128A1100230A1268
:100E80008A110A128A155D250A128A110130F307A8
:100E90000318F40A0030F4070130F5027508031D49
:100EA000522F532F362F83120313881508008312F5
:100EB0000313B5003508B4003408B600360A8400C0
:100EC00083138001800A3108B4003608033E840091
:100ED000340880003608043E840000083206F039E9
:100EE000320680003308B4003608043E8400B40E95
:100EF000000834060F39340680003008B400340886
:100F0000AC0035080A128A1540270A128A11080017
:100F10006430F5007508F600A12F7408FF0073080F
:100F200084000A128A1100230A128A110A128A15F1
:100F300075250A128A110130F3070318F40A0030EC
:100F4000F407740883120313FF00730884000A1265
:100F50008A1100230A128A11003A0319B02FB12F07
:100F6000B82F0130F602760A031DB72FB82F8D2F48
:100F70000800F70083120313881177080A128A15F4
:100F80005D250A128A11F600760883120313E40025
:100F9000DD2FFF300A128A155D250A128A11F6002C
:100FA000730884008317741C831376088000013053
:100FB000F3070318F40A0030F4070130F502750A4C
:100FC000031DE32FE42FC92F831203138815080094
:100FD0000A128A15CF250A128A11F4000310740C24
:100FE0000739F5007508F60006307602031CF92F64
:0C0FF000FA2FFC2F0030FD2F013008000C
:101A2A000034FC34B034E834F53406300A128A152E
:101A3A00C4260A128A150800F50075080A128A11C6
:101A4A006D260A128A15080064008001840A0406B9
:101A5A000319003404062A2D83120313A000200858
:101A6A000A128A1569250A128A150800FF30F90038
:101A7A007908F600E2300A128A153D260A128A15FA
:101A8A000800FF30F9007908F600E1300A128A15D9
:101A9A003D260A128A1508000A128A15F5250A1225
:101AAA008A1571088A00700E8300FE0E7E0E0900E8
:101ABA00F20072088312031393008C1D652D662DA4
:101ACA00622D8C1113080800FA007A08F9007908C7
:101ADA00F60005300A128A153D260A128A150800F0
:101AEA00F20083160313981C7B2D7C2D762D720829
:101AFA008312031399000800FA007A08FE3E03399C
:101B0A00F9007908F60003300A128A153D260A12EE
:101B1A008A150800F200F301962D0314F30D031041
:101B2A00F20C0230720203189B2D9C2D922D730821
:101B3A000800F9007908F3000030F4000530F800D5
:101B4A007808F50010300A128A1125270A128A1518
:101B5A000800F300831203135B085C05F2005C08BB
:101B6A00730572060319BA2DBC2D0130BD2D003044
:101B7A00080083120313941640308316031394004B
:101B8A00871207168711831203131408F0390238D3
:101B9A0094000800831203138811FF300A128A1571
:101BAA005D250A128A15F300730883120313E400F1
:101BBA00881564080800831203130E08F6000F083C
:101BCA00F700F801F90160087604F2006108770469
:101BDA00F30062087804F40063087904F500080049
:101BEA00831203130C1CFA2DFB2D0A2E0030E0077A
:101BFA00003003180130E107013003180230E20710
:101C0A00003003180130E3070C100800FA007A08C4
:101C1A000319102E112E1C2E3F30F9007908F600F8
:101C2A0001300A128A153D260A128A15232EF60158
:101C3A0001300A128A153D260A128A150800033055
:101C4A000A128A15C4260A128A150339F60076087A
:101C5A00F70077080319322E332E3B2E0430770211
:101C6A000318382E392E3B2E01303C2E0030080046
:101C7A00F800831203138811780820380A128A158B
:101C8A005D250A128A15F700770883120313E40008
:101C9A0076080A128A155D250A128A158312031319
:101CAA008815080000300A128A15C4260A128A15F5
:101CBA000238F9007908F60000300A128A153D2622
:101CCA000A128A151A30FA00F830F900F90B6B2E4D
:101CDA00FA0B6B2E0000080083120313C500450897
:101CEA00C2004208C4004108C2004208B7004408C2
:101CFA00043E84008317000E0F39C3004308B8005E
:101D0A0045080A128A11FB240A128A150800FA00E9
:101D1A000F30790583120313A0007A080F39A10046
:101D2A0003300310A10DFF3E031D962E0310210D53
:101D3A002004A2002208F60004300A128A153D2661
:101D4A000A128A15080083120313A0002008F30060
:101D5A000130F4007908FA007A08F50061300A12B5
:101D6A008A11B9270A128A154030FA007A08F60051
:101D7A0007300A128A153D260A128A150800F4004D
:101D8A0083120313881174080A128A155D250A1230
:101D9A008A15F300730883120313E400FF300A1252
:101DAA008A155D250A128A15F3007308F500831255
:101DBA00031388157508080000300A128A15C4260C
:101DCA000A128A150138F9007908F60000300A1259
:101DDA008A153D260A128A157030F9007908F6002C
:101DEA0007300A128A153D260A128A15831203132E
:101DFA0008150800FA007B08F339F9007908FB0096
:101E0A007A08031D092F0A2F0B2F142F7A03031D9B
:101E1A000F2F102F122FFB15142FFB157B157B0884
:101E2A00F9007908F60000300A128A153D260A12CE
:101E3A008A1508001D300A128A15C4260A128A1544
:101E4A000438F9007908F6001D300A128A153D2671
:101E5A000A128A151C300A128A15C4260A128A1511
:101E6A003F38F9007908F6001C300A128A153D2617
:101E7A000A128A15080083120313AF002F08AD0057
:101E8A002D08AE002030AD002E0884002D088313E3
:101E9A0080005B08AD002E08023E84002D088000F9
:101EAA002F08A3000030A4002C08AD002D08A500BF
:101EBA000A128A114E200A128A1508008312031385
:101ECA00A4002408A3002308F2000530F300003020
:101EDA00F400C0300A128A11A2220A128A15831249
:101EEA0003135B08A300230883160313C000C03042
:101EFA00F9000030FA0001300A128A11A0250A12EC
:101F0A008A15080060300A128A15C4260A128A1530
:101F1A0083120313A0002008FA0021307A02031C5E
:101F2A00972F982FAA2F0A128A153B250A128A156B
:101F3A000B3083120313A1006130A000A00BA32F62
:101F4A00A10BA32FA82F0030AB2F7A080800831209
:101F5A000313081100300A128A15C4260A128A15B8
:101F6A00FE39F9007908F60000300A128A153D2672
:101F7A000A128A1502300A128A15C4260A128A150A
:101F8A000138F9007908F60002300A128A153D264E
:101F9A000A128A15AD30F900F90BD12F0800831205
:101FAA000313A00006300A128A15C4260A128A15DB
:101FBA00F900790883120313A1002108D739F9001F
:101FCA007908A10002302006031DEC2FED2FEF2F18
:101FDA00A116F52F2003031DF32FF42FF52FA115BA
:101FEA002108F9007908F60006300A128A153D26FA
:061FFA000A128A1508001E
:02400E00723FFF
:00000001FF
