:060000000A128A110C280F
:10000800FE00030EF0000A08F1000A128A15882C77
:100018000A128A110F28831603130A128A158324D9
:100028000A128A11CF000A128A1584240A128A1128
:10003800D0000A128A1585240A128A11D1000A12E0
:100048008A1586240A128A11D2000A128A15872470
:100058000A128A11D300831790308400B0300A1234
:100068008A1597240A128A118313A0308400CF308E
:100078000A128A1597240A128A11513084005930BD
:100088000A128A1597240A128A11FB0183010A129F
:100098008A11BE2B831203132308AA002408AB007D
:1000A8005108031D582859285A2864292A08033E4C
:1000B800A6002B080318013E003EA700260884006E
:1000C8008317271C831300080A128A15EC240A12C6
:1000D8008A1183120313A8002808A90029085202CC
:1000E8000318772878280F292A08033EA6002B082A
:1000F8000318013E003EA700260884008317271C2A
:10010800831300080A128A150B250A128A11003A6D
:1001180003198F2890280F29831203132A08033EF6
:10012800A6002B080318013E003EA70026088400FD
:100138008317271C8313000853050319A428A5282F
:10014800DA285508A600260883160313C900C93003
:10015800F9000030FA0000300A128A116D260A12DE
:100168008A11C9300A128A15FB240A128A110A1246
:100178008A15F4260A128A11831203132308A00091
:100188002408A1002508A6002608A2000A128A1140
:100198001F260A128A111E30F9008030FA0000303A
:1001A8000A128A116D260A128A115F295408A600BC
:1001B800260883160313C900C930F9000030FA0075
:1001C80000300A128A116D260A128A11C9300A12E1
:1001D8008A15FB240A128A110A128A15F4260A12B1
:1001E8008A11831203132308A0002408A1002508FC
:1001F800A6002608A2000A128A111F260A128A11CE
:100208001E30F9008030FA0000300A128A116D267B
:100218000A128A115F29831203135108A6002608BF
:1002280083160313C900C930F9000030FA00003002
:100238000A128A116D260A128A11C9300A128A1501
:10024800FB240A128A110A128A15F4260A128A1144
:100258007130F3008030F4000A128A11C8210A12A2
:100268008A11831203132308F3002408F4000A12E6
:100278008A11C8210A128A110A300A128A15E02442
:100288000A128A11831203132308A0002408A1006C
:100298002508A6002608A2000A128A111F260A129B
:1002A8008A111E30F9008030FA0000300A128A11D3
:1002B8006D260A128A110A128A1529260A128A112B
:1002C8000800F700831203138811770820380A12F0
:1002D8008A15C8240A128A11F600760883120313B5
:1002E800D6008E29740883120313FF007308840054
:1002F8000A128A1100220A128A110A128A15C824BF
:100308000A128A110130F3070318F40A0030F407BF
:100318000130F5027508031D922993297629831265
:1003280003138815080083120313B6003608B400B7
:100338003408B500350A840083138001800A310827
:10034800B4003508033E8400340880003508043EB4
:10035800840000083206F039320680003308B40001
:100368003508043E8400B40E000834060F393406FC
:1003780080003008B4003408AC0036080A128A1528
:1003880088260A128A1108006430F5007508F600FC
:10039800E1297408FF00730884000A128A110022F8
:1003A8000A128A110A128A15E0240A128A110130E7
:1003B800F3070318F40A0030F407740883120313D0
:1003C800FF00730884000A128A1100220A128A1197
:1003D800003A0319F029F129F8290130F602760AC2
:1003E800031DF729F829CD29080006300A128A15B5
:1003F8000C260A128A110800FF1B0A2A83137F1889
:1004080083170008840A0319FF0A080002308A00CB
:100418000408840A820700343034313432343334E7
:10042800343435343634373438343934413442345A
:100438004334443445344634F9343634CD34AC345A
:10044800E7344634413449344C3400344F344B3467
:1004580000345934EC34AD34FC3484343D343D3408
:100468003D343D3445344E34443420344F344634DE
:100478002034443445345434413449344C345334AE
:100488003D343D343D343D3400343D343D343D3419
:100498005334543441345234543420344F34463471
:1004A8002034443445345434413449344C3453347E
:1004B8003D343D343D34003453344534543455349C
:1004C80050345F34523445345434523400344F3449
:1004D8004234533445345234563445345F345434FA
:1004E8005834003445344E345F345234583441342F
:1004F80044344434523400347034613479346C34C4
:100508006F346134643420343D340034523446341A
:100518005F345334453454345534503400345334F0
:1005280045345434553450345F34413457340034EE
:1005380043344F344E34463449344734003453340A
:1005480054344134543455345334003468346934A1
:1005580069346934693469340034523458345F3446
:10056800503430340034523458345F3450343134D9
:100578000034523458345F345034323400345234F6
:1005880058345F34503433340034523458345F3480
:10059800503434340034523458345F3450343534A1
:1005A800003445344E345F344134413400345234DD
:1005B80046345F3443344834003483120313260826
:1005C800AA002708AB002808AC002908AD000630AF
:1005D8000310AA0DAB0DAC0DAD0DFF3E031DEC2AAB
:1005E8002D08F5002C08F4002B08F3002A08F20067
:1005F8002608AE002708AF002808B0002908B10077
:1006080006300310AE0DAF0DB00DB10DFF3E031D4A
:10061800052B0030B2002430B300F430B4000030B1
:10062800B5002E08B2022F08031C2F0F1C2B1D2B00
:10063800B3023008031C300F222B232BB4023108DD
:10064800031C310F282B292BB5023508F900340873
:10065800F8003308F7003208F6000A128A112B2531
:100668000A128A11730883120313B7007208B600BE
:1006780001303702003003193602031C442B452B86
:10068800A12B2608AA002708AB002808AC002908D7
:10069800AD0004300310AA0DAB0DAC0DAD0DFF3E3F
:1006A800031D4E2B2D08F5002C08F4002B08F30031
:1006B8002A08F2002608AE002708AF002808B00074
:1006C8002908B10004300310AE0DAF0DB00DB10D07
:1006D800FF3E031D672B0030B2002430B300F43016
:1006E800B4000030B5002E08B2022F08031C2F0FEB
:1006F8007E2B7F2BB3023008031C300F842B852BF5
:10070800B4023108031C310F8A2B8B2BB502350834
:10071800F9003408F8003308F7003208F6000A1226
:100728008A112B250A128A11730883120313B70042
:100738007208B600831603131815013083123702A6
:100748000030031936020318AA2BAB2BBD2B360831
:10075800831603139900181283120313981783162C
:100768000313871707178312031318168316031327
:100778009816080083160313881083120313880140
:100788008316031381130611861510300A128A1571
:100798008F240A128A11003083120313A900003033
:1007A800A8002530A7008030A6000A128A11E1228D
:1007B8000A128A110A128A151B250A128A110A12AC
:1007C8008A11B7260A128A1173300A128A15A824C8
:1007D8000A128A11CF300A128A15AB260A128A1118
:1007E80002300A128A11B7270A128A119B30F300C5
:1007F8008030F4000A128A11C8210A128A11172CB3
:100808000230831203138806153083120313CF00B6
:100818004B30CE00BD30CD00CD0B102CCE0B102CA4
:10082800CF0B102C172C0A128A156C250A128A1164
:10083800003A0319202C212C042C083083120313AE
:10084800CD004D08B000B101B10A0330CE004E080A
:10085800B2000630CF004F08B300A9300A128A113F
:1008680097210A128A11153083120313CF004B30D7
:10087800CE00BD30CD00CD0B3F2CCE0B3F2CCF0B87
:100888003F2C462C0A128A1548270A128A110A1286
:100898008A159F240A128A1183120313D709A930D3
:1008A800CD004D08D0005008033E8400831380011A
:1008B8005708CD005008043E84004D0880005008B9
:1008C800023E84008001800A0330CD00500A840073
:1008D8004D0880002030CD004D08B000B101B10AAC
:1008E8000630CE004E08B2000630CF004F08B300E5
:1008F80050080A128A1197210A128A11FA2B0A1231
:100908008A110C2883160313081188118312031304
:1009180008118815033083120313A5000830A400BA
:100928007630A300A30B962CA40B962CA50B962C23
:1009380000001A3083120313A400F730A300A30B9E
:10094800A32CA40BA32CA82C0F3083120313A300F1
:100958002308F90005300A128A15D4250A128A11CB
:1009680003300A128A15A2270A128A1100300A12C5
:100978008A151C270A128A11F6011D300A128A15D7
:1009880085250A128A11F6011C300A128A15852556
:100998000A128A113F3083120313A3002308F600BA
:1009A80001300A128A1585250A128A11033083122A
:1009B8000313A3002308F60002300A128A158525BE
:1009C8000A128A1120300A128A1179270A128A110A
:1009D80005300A128A11F2270A128A114C300A12BB
:1009E8008A15D4240A128A11703083120313A300C3
:1009F8002308F60007300A128A1585250A128A117B
:100A08000A128A15B2240A128A110A128A15BD24FA
:100A18000A128A110C3083120313A3002308F6006C
:100A280000300A128A1585250A128A110A128A15B7
:100A38009F250A128A1100300A128A150C260A12FA
:100A48008A1183120313A3002308FB0008008312F2
:100A58000313A101F51F312D322D3F2DF209F309A2
:100A6800F409F509F20A0319F30A0319F40A031938
:100A7800F50AA101A10AF91F422D432D522DF609AD
:100A8800F709F809F909F60A0319F70A0319F80A20
:100A98000319F90A0130FA007A08A1060030A50006
:100AA8000030A4000030A3000030A20075087404D0
:100AB800730472040319612D622DAF2DA001A00AE1
:100AC800722D0130FA000310F20DF30DF40DF50D3F
:100AD800FA0B672D0130FA007A08A007F51F752D6B
:100AE800762D652D0130FA000310A20DA30DA40D7B
:100AF800A50DFA0B782D75087902031D8D2D740844
:100B08007802031D8D2D73087702031D8D2D720841
:100B18007602031C902D912DA02D7208F602730801
:100B2800031C730FF7027408031C740FF80275088E
:100B3800031C750FF902221401300310F50CF40C94
:100B4800F30CF20CFF3E031DA12D0130A002031D82
:100B5800AE2DAF2D762D21080319B32DB42DBF2D41
:100B6800A209A309A409A509A20A0319A30A03193A
:100B7800A40A0319A50A2508F5002408F400230887
:100B8800F3002208F200080083120313BF003F0895
:100B9800B9003908BC009530B9003908C0004008D0
:100BA800840083170008B9003908BD00400A840092
:100BB8000008B9003908BE0006303806031DE52DC7
:100BC800E62DEF2D3E08B9003D08573E8400390850
:100BD800831380001E2E06303806031DF42DF52DD4
:100BE8001E2E5730B9003908F2000230F3000030E9
:100BF800F400AE300A128A1574270A128A112030BE
:100C080083120313B9003908B000B101B10A0730E3
:100C1800BA003A08B2003C08043E84008317000872
:100C28000F39BB003B08B300A9300A128A1197217B
:100C38000A128A110800831203138811A0300A12BD
:100C48008A15C8240A128A11FA007A088312031333
:100C5800D600412E200884008317211C8313000826
:100C68000A128A15C8240A128A1101308312031342
:100C7800A0070318A10A0030A1070130A202220A26
:100C8800031D472E482E2E2E881508150A128A1580
:100C98002C250A128A1130390319532E542E4A2E44
:100CA8008312031308117030FA007A08F60007302F
:100CB8000A128A1585250A128A1183120313561EF1
:100CC800662E672E6C2E0A128A15BD240A128A1106
:100CD800080083120313A200023022020318752EA3
:100CE800762E862E7908F3007A08F4000530A000E5
:100CF8002008F50022080A3E0A128A1165210A1204
:100D08008A11992E7A08FF00790884000A128A113C
:100D180000220A128A11A0002008F60022080A3EC2
:100D28000A128A1585250A128A11013083120313C3
:100D3800A000220AA12E0310A00DFF3E031D9F2E26
:100D480002300A128A150C260A128A11831203131A
:100D58002004A1002108F60002300A128A15852510
:100D68000A128A1108000A128A1186240A128A11A4
:100D780005300A128A11F2270A128A110A128A15F4
:100D880067260A128A1100300A128A151C270A12CD
:100D98008A1101300A128A1547260A128A111E3052
:100DA800F9008030FA0000300A128A116D260A1202
:100DB8008A1101300A128A1553250A128A11033042
:100DC80083120313A6002608F6000A128A11F921D5
:100DD8000A128A1120300A128A1179270A128A11F6
:100DE8000A128A1529260A128A1108008312031387
:100DF800CA004A08C7004708C9004908033E8400DA
:100E080083170008510603190A2F0B2F242F4A08AD
:100E1800A3000130A4004608C7004708A5000A122D
:100E28008A114E200A128A11392F4608C70047082E
:100E3800C1004A080A128A15B9250A128A11392FDF
:100E4800490A84000008C700C8014808003A031985
:100E58002E2F392F4708003A0319392F013A031961
:100E6800192F033A0319392F392F0800F3000310FB
:100E7800F30C0310F30CF401472F0130F200720851
:100E8800F4070310F30C730803194B2F4C2F502F42
:100E9800731C4F2F502F412F0B178B1783160313DB
:100EA8000C1483120313901090157408F20001308B
:100EB8000310F20CFF3E031D5C2F7218642F682F7D
:100EC8008312031390166B2F831203139012741856
:100ED8006E2F722F831203131016752F83120313AC
:100EE800101210148E018F010800FA007A08F90018
:100EF8007908F60011300A128A1585250A128A1116
:100F08007A08F9007908F60012300A128A15852540
:100F18000A128A117A08F9007908F60013300A12C1
:100F28008A1585250A128A117A08F9007908F600C7
:100F380014300A128A1585250A128A117A08F900CE
:100F48007908F60015300A128A1585250A128A11C1
:100F58007A08F9007908F60016300A128A158525EC
:100F68000A128A11080083120313A7002708A50094
:100F78002508D10027080A128A15EC240A128A11BA
:100F880083120313A5002508D2005208013EA500CC
:100F98002508D3005308A50001300310A50DFF3E16
:100FA800031DD12F520851052504A6002608D40098
:100FB8005308A50001300310A50DFF3E031DDF2FC8
:100FC8005208510525045304A6002608D500C93047
:100FD8000A128A15AB260A128A110800FA007A0842
:100FE800FE3E0339F9007908F60003300A128A1523
:080FF80085250A128A11080088
:101906000034FC34B034E834F53471088A00700EC3
:101916008300FE0E7E0E0900F50075080A128A1174
:101926003A270A128A15080064008001840A040610
:10193600031900340406982C831203130E08F200D0
:101946000F08F300F401F501080083120313A00049
:1019560020080A128A15D4240A128A150800FF30B4
:10196600F9007908F600E2300A128A1585250A126E
:101976008A150800FF30F9007908F600E1300A12EE
:101986008A1585250A128A150800F2007208831244
:10199600031393008C1DD02CD12CCD2C8C11130845
:1019A6000800FA007A08F9007908F60005300A12EC
:1019B6008A1585250A128A150800F2008316031374
:1019C600981CE62CE72CE12C72088312031399006D
:1019D6000800F200F301F32C0314F30D0310F20CCC
:1019E600023072020318F82CF92CEF2C7308080049
:1019F600F9007908F3000030F4000530F8007808A3
:101A0600F50010300A128A1165210A128A1508009B
:101A1600F3008312031351085205F20052087305AE
:101A260072060319172D192D01301A2D00300800E2
:101A360083120313941640308316031394008712FF
:101A460007168711831203131408F039023894001D
:101A56000800831203138811FF300A128A15C8245E
:101A66000A128A15F300730883120313D600881529
:101A7600560808000A128A152C250A128A15F4003F
:101A86000310740C0739F5007508F6000630760267
:101A9600031C4E2D4F2D512D0030522D01300800C4
:101AA600FA007A080319582D592D642D3F30F90094
:101AB6007908F60001300A128A1585250A128A1558
:101AC6006B2DF60101300A128A1585250A128A1530
:101AD600080003300A128A150C260A128A150339E1
:101AE600F6007608F700770803197A2D7B2D832DEB
:101AF600043077020318802D812D832D0130842D2B
:101B060000300800F8008312031388117808203883
:101B16000A128A15C8240A128A15F7007708831252
:101B26000313D60076080A128A15C8240A128A15E3
:101B3600831203138815080000300A128A150C2632
:101B46000A128A150238F9007908F60000300A12DE
:101B56008A1585250A128A151A30FA00F830F90016
:101B6600F90BB32DFA0BB32D0000080083120313F3
:101B7600C5004508C2004208C4004108C200420828
:101B8600B7004408043E84008317000E0F39C300D3
:101B96004308B80045080A128A11C8250A128A1590
:101BA6000800FA000F30790583120313A0007A08A3
:101BB6000F39A10003300310A10DFF3E031DDE2DDA
:101BC6000310210D2004A2002208F60004300A1298
:101BD6008A1585250A128A15080083120313A000A8
:101BE6002008F3000130F4007908FA007A08F500BD
:101BF60061300A128A15D1270A128A154030FA0076
:101C06007A08F60007300A128A1585250A128A15FF
:101C16000800F40083120313881174080A128A1547
:101C2600C8240A128A15F300730883120313D60018
:101C3600FF300A128A15C8240A128A15F30073089F
:101C4600F5008312031388157508080000300A1280
:101C56008A150C260A128A150138F9007908F60049
:101C660000300A128A1585250A128A157030F90085
:101C76007908F60007300A128A1585250A128A1590
:101C86008312031308150800FA007B08F339F900DC
:101C96007908FB007A08031D512E522E532E5C2E16
:101CA6007A03031D572E582E5A2EFB155C2EFB1554
:101CB6007B157B08F9007908F60000300A128A15B0
:101CC60085250A128A1508001D300A128A150C2667
:101CD6000A128A150438F9007908F6001D300A122E
:101CE6008A1585250A128A151C300A128A150C26B1
:101CF6000A128A153F38F9007908F6001C300A12D4
:101D06008A1585250A128A15080083120313AF0067
:101D16002F08AD002D08AE002030AD002E0884003F
:101D26002D08831380005108AD002E08023E840062
:101D36002D0880002F08A3000030A4002C08AD0059
:101D46002D08A5000A128A114E200A128A150800CB
:101D560083120313A4002408A3002308F20005300D
:101D6600F3000030F400C9300A128A1574270A12EB
:101D76008A15831203135108A3002308831603133D
:101D8600C900C930F9000030FA0001300A128A1180
:101D96006D260A128A15080060300A128A150C266A
:101DA6000A128A1583120313A0002008FA002130B4
:101DB6007A02031CDF2EE02EF22E0A128A15B224B6
:101DC6000A128A150B3083120313A1006130A0009A
:101DD600A00BEB2EA10BEB2EF02E0030F32E7A0883
:101DE600080083120313081100300A128A150C2604
:101DF6000A128A15FE39F9007908F60000300A122F
:101E06008A1585250A128A1502300A128A150C26A9
:101E16000A128A150138F9007908F60002300A120A
:101E26008A1585250A128A15AD30F900F90B192F86
:101E3600080083120313A00006300A128A150C2626
:101E46000A128A15F900790883120313A1002108E2
:101E5600D739F9007908A10002302006031D342F76
:101E6600352F372FA1163D2F2003031D3B2F3C2F67
:101E76003D2FA1152108F9007908F60006300A124F
:101E86008A1585250A128A150800692F0A128A15ED
:101E9600CF260A128A1583120313CB004B08CC00F7
:101EA6004C08CB004B08F90090300A128A15F02531
:101EB6000A128A15831203134C08CB004B08C6007E
:101EC60090300A128A11FA260A128A150A128A15FF
:101ED6003D250A128A15003A031D722F732F492FCA
:101EE6000800F9007208F5007508F8007908F50091
:101EF6007508F700932F7808840083130008F5000F
:101F06007508F6000130F5007508F8077608F50043
:101F160077088400750880000130F5007508F7071A
:101F26000130F3020030031CF403F402730A031DAC
:101F3600A02F740A031DA02FA12F7E2F0800831245
:101F46000313A20006300A128A150C260A128A15F5
:101F5600F839F900790883120313A000043022022D
:101F66000318B62FB72FBC2F2208F9007908A10055
:101F7600C02F0330F9007908A1002108F90079077C
:101F8600FA007A08A0042008F9007908F60006305D
:101F96000A128A1585250A128A150800F700831287
:101FA6000313881177080A128A15C8240A128A159B
:101FB600F600760883120313D600F52FFF300A12B7
:101FC6008A15C8240A128A15F60073088400831736
:101FD600741C8313760880000130F3070318F40A93
:101FE6000030F4070130F502750A031DFB2FFC2FA4
:0A1FF600E12F831203138815080081
:02400E00723FFF
:00000001FF
