:060000000A128A110C280F
:10000800FE00030EF0000A08F1000A128A15DE2C21
:100018000A128A110F288313E130FD000C30FE000C
:10002800B530FF00D83084000A128A1569250A12F3
:100038008A11831790308400D0300A128A15AD24B3
:100048000A128A118313A0308400D8300A128A1544
:10005800AD240A128A11FA01FB0183010A128A11DE
:10006800202D83120313BB0003303506031D3D28E2
:100078003E287E290730340203184328442845289F
:100088007E293B08B6003608C0004008063E8400BA
:10009800831700080339003A031D53285428BF2842
:1000A800B030B6003608BF004008053E840000089E
:1000B800B6003F08053E8400360880003F08063E2B
:1000C800840000153F08063E84000008FC39023809
:1000D80080004008023E84000008B6003F08033E46
:1000E8008400360880004008043E840000080F3968
:1000F800B6003F08043E8400B60E000836060F39E5
:10010800360680002030B6003F088400360880009C
:100118003F08073EF2000130F300DD30F400003004
:10012800F5000430F6000030F7000A128A119F2704
:100138000A128A110B3083120313B6003608AD0079
:100148004008023E840083170008B7003708AE0055
:100158000330B8003808AF004008043E84000008A7
:100168000F39B9003908B000B0300A128A11752267
:100178000A128A1150294008063E840000080339F3
:10018800013A031DC828C9285029BA01ED283A08A0
:10019800B60036074007B7003708073E84008317C4
:1001A8000008BC00840A0008BD0004303C020318A3
:1001B800DE28DF28E9283D08B6003C08B7003707E5
:1001C800DE3E84003608831380000130B60036080E
:1001D800BA07831603132F0C83120313B600360CC9
:1001E8000F393A02031CF928FA28CB28B030B60098
:1001F8003608BE004008053E840083170008B60094
:100208003E08053E8400360880003E08063E84000D
:1002180000153E08063E84000008FC3902388000BC
:100228004008023E84000008B6003E08033E8400F1
:10023800360880004008043E840000080F39B600E4
:100248003E08043E8400B60E000836060F3936060E
:1002580080002030B6003E08840036088000073051
:10026800B6003608AD004008023E84000008B7001A
:100278003708AE000330B8003808AF004008043E25
:10028800840000080F39B9003908B000B0300A12EC
:100298008A1175220A128A11831603132F1C5529F5
:1002A80056297E29831203134008053E84008317CC
:1002B8000008831603133106031D632964297E2968
:1002C800B230F2000030F300831203133B08F4004D
:1002D8000130F5003408B600B7013608F6003708D3
:1002E800F7000A128A119F270A128A11831603132C
:1002F8002F10AF14080083120313A8002808A500C4
:100308002508A700831603132008031D8C298D29AF
:100318008E29742A831203132708033E8400831747
:1003280000080A128A1504250A128A118312031377
:10033800A5002508A6002608831603132102031822
:10034800A629A729362A831203132708033E840007
:10035800831700080A128A1533250A128A11003AEF
:100368000319B729B829362A831203132708033E2D
:100378008400831700088316031322050319C5296F
:10038800C629FE29240883120313A500250883160D
:100398000313D200D23083120313A0000030A1004F
:1003A80000300A128A113C260A128A11D2300A1227
:1003B8008A1523250A128A110A128A11D7270A12C6
:1003C8008A11831203132408A5002508A000280811
:1003D8000A128A11D2260A128A110E3083120313C6
:1003E800A0008030A10000300A128A113C260A12AF
:1003F8008A116F2A230883120313A5002508831680
:100408000313D200D23083120313A0000030A100DE
:1004180000300A128A113C260A128A11D2300A12B6
:100428008A1523250A128A110A128A11D7270A1255
:100438008A11831203132408A5002508A0002808A0
:100448000A128A11D2260A128A110E308312031355
:10045800A0008030A10000300A128A113C260A123E
:100468008A116F2A83160313200883120313A50029
:10047800250883160313D200D23083120313A00079
:100488000030A10000300A128A113C260A128A1193
:10049800D2300A128A1523250A128A110A128A11E1
:1004A800D7270A128A11831203132408A5002508E6
:1004B800A00028080A128A11D2260A128A110E30C0
:1004C80083120313A0008030A10000300A128A11A1
:1004D8003C260A128A110A128A1562260A128A1101
:1004E800080083120313B3003308B1003108B200C7
:1004F800320A840083178001800A2E08B10032086E
:10050800033E8400310880003208043E840000085D
:100518002F06F0392F0680003008B1003208043E5B
:100528008400B10E000831060F39310680002D080D
:10053800B1003108A90033080A128A1503270A12E4
:100548008A110800F70083120313881177082038EE
:100558000A128A15EA240A128A11F6007608FB00A4
:10056800CD2A740883120313FF00730884000A124B
:100578008A1100230A128A110A128A15EA240A1219
:100588008A110130F3070318F40A0030F407013028
:10059800F5027508031DD12AD22AB52A831203133E
:1005A80088150800D230F2000030F30083120313DC
:1005B8002508F4002608F5000530F6000030F7009D
:1005C8000A128A119F270A128A1183160313200818
:1005D80083120313A700270883160313D200D2300F
:1005E80083120313A0000030A10001300A128A11FF
:1005F8003C260A128A110800FF1B0A2B83137F1856
:1006080083170008840A0319FF0A080003308A00C8
:100618000408840A82070034F9343634CD34AC3403
:10062800E7344634413449344C3400344F344B3485
:1006380000345934EC34AD34FC3484343D343D3426
:100648003D343D3445344E34443420344F344634FC
:100658002034443445345434413449344C345334CC
:100668003D343D343D343D3400343D343D343D3437
:100678005334543441345234543420344F3446348F
:100688002034443445345434413449344C3453349C
:100698003D343D343D3400345334453454345534BA
:1006A80050345F34523445345434523400344F3467
:1006B8004234533445345234563445345F34543418
:1006C8005834003445344E345F345234583441344D
:1006D8004434443452340034523446345F3453344E
:1006E8004534543455345034003453344534543438
:1006F800553450345F3441345734003443344F3424
:100708004E34463449344734003453345434413435
:100718005434553453340034523458345F345034DC
:1007280030340034523458345F3450343134003467
:10073800523458345F3450343234003452345834DC
:100748005F34503433340034523458345F345034C6
:1007580034340034523458345F345034353400342F
:1007680045344E345F3441344134003452344634D5
:100778005F3443344834003483120313D900B03053
:10078800D0005008DA005A08063E84008317001586
:1007980083160313300883120313D0005A08053E4A
:1007A8008400500880005A08063E84000008FC397E
:1007B8000138800083160313300883120313D00016
:1007C800500883160313B1002F14AF1001308312A1
:1007D8000313D000500883160313B007B730F20094
:1007E8000130F300831203134E08F4000030F500C3
:1007F8004F08D000D1010310500DF600510DF7003D
:100808000A128A119F270A128A11831203134F08AA
:10081800D0005007073ED1005108AD005908D2005A
:100828005208AE000330D3005308AF004D08D4007F
:100838005408B000B0300A128A1175220A128A11BF
:10084800703083120313D0008230D1000330D200FD
:100858000030D3000A128A158E250A128A117208EE
:1008680083120313D00773080318730F3C2C3D2C15
:10087800D10774080318740F422C432CD20775084B
:100888000318750AD3075308D8005208D70051082F
:10089800D6005008D500552C0A128A1578270A1256
:1008A8008A110A128A158E250A128A1183120313D5
:1008B80058087502031D6A2C57087402031D6A2C18
:1008C80056087302031D6A2C5508720203186D2C12
:1008D8006E2C742C83160313AF1C732C742C502CA1
:1008E80083160313AF1C792C7A2C7A2C08008316F4
:1008F8000313081188118312031308118815033094
:1009080083120313A7000830A6007630A500A50BB4
:100918008B2CA60B8B2CA70B8B2C00001A30831268
:100928000313A600F730A500A50B982CA60B982C4E
:100938009D2C0F3083120313A5002508F9000530FC
:100948000A128A1528260A128A1103300A128A15F1
:10095800D1270A128A1100300A128A154C270A1266
:100968008A11F6011D300A128A15A5250A128A1164
:10097800F6011C300A128A15A5250A128A113F3081
:1009880083120313A5002508F60001300A128A1500
:10099800A5250A128A11033083120313A50025081E
:1009A800F60002300A128A15A5250A128A1120308B
:1009B8000A128A1188260A128A1105300A128A1523
:1009C80013250A128A114C300A128A15F6240A12C3
:1009D8008A11703083120313A5002508F60007302A
:1009E8000A128A15A5250A128A110A128A15C8241C
:1009F8000A128A110A128A15D3240A128A110C3093
:100A080083120313A5002508F60000300A128A1580
:100A1800A5250A128A110A128A1544260A128A1171
:100A280000300A128A15D7250A128A118312031375
:100A3800A5002508FA00080083160313881008107B
:100A480086108312031388108316031306151030BB
:100A58000A128A15A5240A128A110A128A15432530
:100A68000A128A110A128A111B270A128A11733074
:100A78000A128A15BE240A128A11D8308312031367
:100A8800A5000030A6000A128A11D6220A128A117D
:100A980000300A128A118D250A128A110A128A1543
:100AA80078270A128A11831603132E08031D5D2D59
:100AB8005E2D732D83120313081002308806073049
:100AC80083120313DD001730DC006930DB00DB0B19
:100AD8006B2DDC0B6B2DDD0B6B2D722D522D8312C4
:100AE8000313881008140330DB005B08CD00DD30E9
:100AF800DC005C08CE000230DD005D08CF0001306C
:100B08000A128A11C0230A128A11522D0A128A1156
:100B18000C2883120313AA002A08A80028088316A1
:100B28000313A000831203132A080A128A15042546
:100B38000A128A1183120313A800280883160313C4
:100B4800A1002108013E83120313A8002808831678
:100B58000313A200220883120313A8000130031014
:100B6800A80DFF3E031DB32D83160313210820058E
:100B7800831203132804A900290883160313A3006A
:100B8800220883120313A80001300310A80DFF3EAA
:100B9800031DC92D8316031321082005831203138F
:100BA800280483160313220483120313A9002908B7
:100BB80083160313A400D23083120313A500003058
:100BC800A6000A128A11D6220A128A110800831274
:100BD8000313CA004A08C7004708C9004908033E6A
:100BE8008400831700088316031320060319FD2DBC
:100BF800FE2D212E831203134608C7004708A400C0
:100C08004A080A128A117F210A128A113B2E4608C5
:100C1800C7004708C1004A080A128A150D260A1299
:100C28008A113B2E4608C7004708AB004A080A123B
:100C38008A15E1260A128A113B2E83120313490AE8
:100C480084000008C700C8014808003A03192D2E7F
:100C58003B2E4708003A03193B2E013A03190B2E85
:100C6800033A03193B2E013A0319162E3B2E0800AE
:100C7800F900023079020318422E432E552E8312B2
:100C880003132008F3002108F4000530A20022080D
:100C9800F50079080A3E0A128A11A6220A128A1158
:100CA8006A2E831203132108FF00200884000A1209
:100CB8008A1100230A128A11A2002208F600790874
:100CC8000A3E0A128A15A5250A128A1101308312D2
:100CD8000313A200790A722E0310A20DFF3E031D12
:100CE800702E02300A128A15D7250A128A11831229
:100CF80003132204A3002308F60002300A128A15FF
:100D0800A5250A128A11080083120313A0002008DF
:100D1800F9007908F60011300A128A15A5250A1279
:100D28008A11831203132008F9007908F60012309B
:100D38000A128A15A5250A128A118312031320089C
:100D4800F9007908F60013300A128A15A5250A1247
:100D58008A11831203132008F9007908F600143069
:100D68000A128A15A5250A128A118312031320086C
:100D7800F9007908F60015300A128A15A5250A1215
:100D88008A11831203132008F9007908F600163037
:100D98000A128A15A5250A128A110800831203135C
:100DA800A2008811A0300A128A15EA240A128A11B0
:100DB80083120313A1002108FB00F12E22088400EE
:100DC800831700080A128A15EA240A128A110130C8
:100DD80083120313A1002108A2070130A002200AF0
:100DE800031DF72EF82EE22E881508150A128A150B
:100DF80054250A128A1130390319032F042FFA2EA9
:100E08008312031308117030A1002108F60007307F
:100E18000A128A15A5250A128A117B1E142F152F6E
:100E28001A2F0A128A15D3240A128A1108000A12E4
:100E38008A117B240A128A1105300A128A15132591
:100E48000A128A110A128A159E260A128A1100307D
:100E58000A128A154C270A128A1101300A128A15B9
:100E6800BF260A128A110E3083120313A0008030A5
:100E7800A10000300A128A113C260A128A11013098
:100E88000A128A15F2250A128A11033083120313F3
:100E9800A8002808F6000A128A159E240A128A1148
:100EA80020300A128A1188260A128A110A128A1513
:100EB80062260A128A110800F3000310F30C0310CB
:100EC800F30CF4016D2F0130F2007208F4070310DF
:100ED800F30C73080319712F722F762F731C752F5B
:100EE800762F672F0B178B17831603130C14831297
:100EF8000313901090157408F20001300310F20CDF
:100F0800FF3E031D822F72188A2F8E2F8312031320
:100F18009016912F8312031390127418942F982F00
:100F28008312031310169B2F83120313101210142D
:100F38008E018F010800740883120313A30075083B
:100F4800A4007208A1007308A200C82F2308840017
:100F58008317241C83130008F8007808A0000130C8
:100F6800A3070318A40A0030A4072008F8002108E2
:100F780084008317221C8313780880000130A1079E
:100F88000318A20A0030A2070130F6020030031C41
:100F9800F703F702760A031DD52F770A031DD52F0D
:100FA800D62FAA2F080083120313081100300A1243
:100FB8008A15D7250A128A11FE39F9007908F60030
:100FC80000300A128A15A5250A128A1102300A125F
:100FD8008A15D7250A128A110138F9007908F6000E
:100FE80002300A128A15A5250A128A11AD30F900B5
:060FF800F90BFC2F0800BC
:10193C0006300A128A15D7250A128A150800F500F6
:10194C0075080A128A1160270A128A1508006400A9
:10195C008001840A0406031900340406AE2C0034FA
:10196C00FC34B034E834F53401340134023400343E
:10197C0083120313A10021080A128A15F6240A12F5
:10198C008A150800FF30F9007908F600E2300A12D7
:10199C008A15A5250A128A150800FF30F900790866
:1019AC00F600E1300A128A15A5250A128A150800DC
:1019BC000A128A15BD250A128A1571088A00700E42
:1019CC008300FE0E7E0E0900F200720883120313D0
:1019DC0093008C1DF22CF32CEF2C8C1113080800A7
:1019EC0083120313A0002008F9007908F6000530D3
:1019FC000A128A15A5250A128A150800F200F301AD
:101A0C000B2D0314F30D0310F20C023072020318A9
:101A1C00102D112D072D7308080083120313A0003D
:101A2C002008FE3E0339F9007908F60003300A124B
:101A3C008A15A5250A128A150800F9007908F30001
:101A4C000030F4000530F8007808F50010300A1268
:101A5C008A11A6220A128A150800F30083160313B2
:101A6C0020082105F20021087305720603193F2D89
:101A7C00412D0130422D00300800831203139416BF
:101A8C0040308316031394008712071687118312B4
:101A9C0003131408F039023894000800831203135E
:101AAC008811FF300A128A15EA240A128A15F300EB
:101ABC007308FB008312031388157B0808007E084B
:101ACC008A007F0882000A128A1565250A128A1577
:101ADC008000840A04087D0603190034FF0A0319E8
:101AEC00FE0A692D0A128A1554250A128A15F40069
:101AFC000310740C0739F5007508F60006307602F1
:101B0C00031C892D8A2D8C2D00308D2D0130080061
:101B1C00831203130E08F6000F08F700F801F90101
:101B2C00831603132A087604F2002B087704F300BB
:101B3C002C087804F4002D087904F5000800F8004E
:101B4C00831203138811780820380A128A15EA24A4
:101B5C000A128A15F7007708FB0076080A128A1514
:101B6C00EA240A128A1583120313881508008312BB
:101B7C0003130C1CC22DC32DD62D0030831603135A
:101B8C00AA07003003180130AB07013003180230EC
:101B9C00AC07003003180130AD07831203130C108F
:101BAC000800F40083120313881174080A128A15B2
:101BBC00EA240A128A15F3007308FB00FF300A129C
:101BCC008A15EA240A128A15F3007308F5008312A9
:101BDC00031388157508080083120313A00020084E
:101BEC000319F92DFA2D052E3F30F9007908F6006E
:101BFC0001300A128A15A5250A128A150C2EF60137
:101C0C0001300A128A15A5250A128A1508008312BA
:101C1C000313C5004508C2004208C4004108C200B5
:101C2C004208B4004408043E84008317000E0F39A8
:101C3C00C3004308B50045080A128A1135200A1260
:101C4C008A15080083120313A3000F307905A00036
:101C5C0023080F39A10003300310A10DFF3E031D13
:101C6C00322E0310210D2004A2002208F6000430AD
:101C7C000A128A15A5250A128A15080000300A12C4
:101C8C008A15D7250A128A15023883120313A0006D
:101C9C002008F60000300A128A15A5250A128A15AA
:101CAC001A3083120313A100F730A000A00B5C2E96
:101CBC00A10B5C2E612E080000300A128A15D72564
:101CCC000A128A150138F9007908F60000300A1258
:101CDC008A15A5250A128A157030F9007908F600C4
:101CEC0007300A128A15A5250A128A1583120313C6
:101CFC000815080083120313A1002108F30001301A
:101D0C00F4007908A0002008F50061300A128A1549
:101D1C00A4270A128A15403083120313A00020084E
:101D2C00F60007300A128A15A5250A128A15080032
:101D3C001D300A128A15D7250A128A150438F900A3
:101D4C007908F6001D300A128A15A5250A128A1583
:101D5C001C300A128A15D7250A128A153F38F90049
:101D6C007908F6001C300A128A15A5250A128A1564
:101D7C00080083120313A0007A08F339F9007908DC
:101D8C00FA002008031DCB2ECC2ECD2ED62E2003F0
:101D9C00031DD12ED22ED42EFA15D62EFA157A1565
:101DAC007A08F9007908F60000300A128A15A52580
:101DBC000A128A15080083120313AD002D08AC001B
:101DCC002C08AE002E08053EA5000130A6000A1214
:101DDC008A11D6220A128A15831203132E08043E86
:101DEC008400831700080A128A118D250A128A159D
:101DFC0083160313AE01AE0A080083120313AC0062
:101E0C002C08AA002A08AB002030AA002B0884005A
:101E1C002A088317800083160313200883120313E8
:101E2C00AA002B08023E84002A0880002908AA0078
:101E3C002A08A4002C080A128A117F210A128A157A
:101E4C00080060300A128A15D7250A128A158312E7
:101E5C000313A0002008A20021302202031C372FFC
:101E6C00382F4A2F0A128A15C8240A128A150B30E9
:101E7C0083120313A1006130A000A00B432FA10B10
:101E8C00432F482F00304B2F2208080083120313D6
:101E9C00A00006300A128A15D7250A128A15F900F5
:101EAC00790883120313A1002108D739F9007908A6
:101EBC00A10002302006031D642F652F672FA11689
:101ECC006D2F2003031D6B2F6C2F6D2FA115210877
:101EDC00F9007908F60006300A128A15A5250A12AF
:101EEC008A150800992F0A128A1527270A128A15B3
:101EFC0083120313CB004B08CC004C08CB004B08CF
:101F0C00F90090300A128A1580260A128A1583125B
:101F1C0003134C08CB004B08C60090300A128A11F0
:101F2C00EB250A128A150A128A1578250A128A15C7
:101F3C00003A031DA22FA32F792F0800F70083125C
:101F4C000313881177080A128A15EA240A128A15D3
:101F5C00F6007608FB00C62FFF300A128A15EA2419
:101F6C000A128A15F600730884008317741C8313F5
:101F7C00760880000130F3070318F40A0030F407E8
:101F8C000130F502750A031DCC2FCD2FB22F831211
:101F9C0003138815080083120313A40006300A12D9
:101FAC008A15D7250A128A15F83983120313A00053
:101FBC002008A200043024020318E52FE62FEB2F93
:101FCC002408A0002008A300EF2F0330A000200855
:101FDC00A3002308A0002007A1002108A2042208C6
:101FEC00A0002008F60006300A128A15A5250A1250
:041FFC008A1508003A
:02400E00723FFF
:00000001FF
