:060000000A128A110C280F
:10000800FE00030EF0000A08F1000A128A11FD2C06
:100018000A128A110F28FB018313383084004930F3
:100028000A128A1114250A128A11A0308400E030BD
:100038000A128A1114250A128A1183010A128A11D6
:10004800ED2983120313A7002708A4002408A6009B
:100058003808031D30283128322812292608033E83
:100068008400831300080A128A11D6240A128A11FE
:1000780083120313A4002408A500250839020318D5
:1000880046284728C2282608033E84008313000810
:100098000A128A11B6240A128A11003A031955283D
:1000A8005628C228831203132608033E84008313AC
:1000B80000083A0503196128622892283C08A40020
:1000C8002408C3004330F9000030FA0000300A1257
:1000D8008A11D5220A128A1143300A128A11C624BB
:1000E8000A128A110A128A11F2230A128A11831239
:1000F80003132308A4002408A00027080A128A1161
:100108008A220A128A111E30F9008030FA00003063
:100118000A128A11D5220A128A110D293B08A40055
:100128002408C3004330F9000030FA0000300A12F6
:100138008A11D5220A128A1143300A128A11C6245A
:100148000A128A110A128A11F2230A128A118312D8
:1001580003132308A4002408A00027080A128A1100
:100168008A220A128A111E30F9008030FA00003003
:100178000A128A11D5220A128A110D298312031331
:100188003808A4002408C3004330F9000030FA00FE
:1001980000300A128A11D5220A128A1143300A1233
:1001A8008A11C6240A128A110A128A11F2230A1223
:1001B8008A117130F3008030F4000A128A11C123C9
:1001C8000A128A11831203132708F3000030F4007F
:1001D8000A128A11C1230A128A110A300A128A11D4
:1001E800E5240A128A11831203132308A4002408A1
:1001F800A00027080A128A118A220A128A111E30C0
:10020800F9008030FA0000300A128A11D5220A1249
:100218008A110A128A113A240A128A110800FF1B4D
:100228001D2983137F1883170008840A0319FF0AFE
:10023800080001308A000408840A82070034303438
:100248003134323433343434353436343734383462
:1002580039344134423443344434453446344634E2
:10026800413449344C340034F9343634CD34AC3468
:10027800E7344F344B3400345934EC34AD34FC3467
:1002880084343D343D343D343D3445344E34443477
:1002980020344F34463420344434453454344134C3
:1002A80049344C3453343D343D343D343D340034CA
:1002B8003D343D343D345334543441345234543451
:1002C80020344F3446342034443445345434413493
:1002D80049344C3453343D343D343D340034533484
:1002E80045345434553450345F34523445345434DE
:1002F800523400344F344234533445345234563433
:1003080045345F3454345834003445344E345F3403
:100318005234583441344434443452340034703400
:10032800613479346C346F346134643420343D344E
:100338000034523446345F345334453454345534DD
:1003480050340034533445345434553450345F34C5
:1003580041345734003443344F344E3446344934EE
:1003680047340034533454344134543455345334BA
:100378000034523458345F345034303400345234FA
:1003880058345F34503431340034523458345F3484
:10039800503432340034523458345F3450343334A7
:1003A8000034523458345F345034343400345234C6
:1003B80058345F3450343534003445344E345F3467
:1003C800413441340034523446345F344334483481
:1003D8000034831603138614061588100811831237
:1003E80003138810081110300A128A111C250A12EA
:1003F8008A1183120313861C022A032A412AC10187
:10040800C10AC030B3003308B6003608033E840082
:10041800831380014108B3003608043E8400330882
:1004280080003608023E84008001800A0330B30051
:10043800360A8400330880002030B3003308AC004B
:10044800AD01AD0A0630B4003408AE000630B50080
:100458003508AF0036080A128A1190230A128A1149
:10046800831203134118392A3D2A8312031388146F
:10047800402A831203138810432AC101342A061D17
:10048800462A472A852AC201C20AC030B300330867
:10049800B7003708033E8400831380014208B30085
:1004A8003708043E8400330880003708023E840081
:1004B8008001800A0330B300370A840033088000C3
:1004C8002030B3003308AC00AD01AD0A0630B400EB
:1004D8003408AE000630B5003508AF0037080A12F8
:1004E8008A1190230A128A118312031342187D2A53
:1004F800812A831203130815842A8312031308110F
:10050800FD29C201782A0A128A110C2883120313C2
:10051800A1008811A0300A128A11F1240A128A1146
:10052800FA007A0883120313C200A92A210884005A
:10053800831300080A128A11F1240A128A11013061
:10054800FA007A0883120313A1070130A002200AD7
:10055800031DAF2AB02A9A2A881508150A128A118B
:10056800A5240A128A1130390319BB2ABC2AB22AD7
:100578008312031308117030FA007A08F600073066
:100588000A128A1175240A128A1183120313421E51
:10059800CE2ACF2AD42A0A128A1109250A128A11C8
:1005A800080083120313A200023022020318DD2A76
:1005B800DE2AEE2A7908F3007A08F4000530A00054
:1005C8002008F50022080A3E0A128A115E230A1240
:1005D8008A11012B7A08FF00790884000A128A110F
:1005E80013210A128A11A0002008F60022080A3EE8
:1005F8000A128A1175240A128A1101308312031310
:10060800A000220A092B0310A00DFF3E031D072B93
:1006180002300A128A1158240A128A11831203130B
:100628002004A1002108F60002300A128A1175245C
:100638000A128A110800F3000310F30C0310F30CDC
:10064800F4012C2B0130F2007208F4070310F30CAC
:1006580073080319302B312B352B731C342B352B96
:10066800262B0B178B17831603130C1483120313F3
:10067800901090157408F20001300310F20CFF3E40
:10068800031D412B7218492B4D2B8312031390160F
:10069800502B8312031390127418532B572B831269
:1006A800031310165A2B83120313101210148E0101
:1006B8008F010800F7008312031388117708203888
:1006C8000A128A11F1240A128A11F6007608831296
:1006D8000313C200872B740883120313FF007308E7
:1006E80084000A128A1113210A128A110A128A1125
:1006F800F1240A128A110130F3070318F40A0030B2
:10070800F4070130F5027508031D8B2B8C2B6F2B1A
:10071800831203138815080083120313B1003108EC
:10072800B0003008B200320A840083138001800AC6
:100738002D08B0003208033E8400300880003208DB
:10074800043E840000082E06F0392E0680002F088B
:10075800B0003208043E8400B00E000830060F399D
:10076800300680002C08B0003008A80031080A12B2
:100778008A111A240A128A1108006430F5007508D3
:10078800F600DA2B7408FF00730884000A128A1135
:1007980013210A128A110A128A11E5240A128A11EF
:1007A8000130F3070318F40A0030F40774088312C1
:1007B8000313FF00730884000A128A1113210A1216
:1007C8008A11003A0319E92BEA2BF12B0130F602C2
:1007D800760A031DF02BF12BC62B08008312031396
:1007E800081100300A128A1158240A128A11FE3997
:1007F800F9007908F60000300A128A1175240A12E5
:100808008A1102300A128A1158240A128A110138F0
:10081800F9007908F60002300A128A1175240A12C2
:100828008A11AD30F900F90B172C08008312031355
:10083800AB002B08A9002908AA002030A9002A0823
:1008480084002908831380003808A9002A08023E7A
:100858008400290880002808A9002908A3002B087B
:100868000A128A1125200A128A11080000300A1279
:100878008A1158240A128A110138F9007908F600F9
:1008880000300A128A1175240A128A117030F90090
:100898007908F60007300A128A1175240A128A119B
:1008A8008312031308150800F40083120313881138
:1008B80074080A128A11F1240A128A11F3007308C3
:1008C80083120313C200FF300A128A11F1240A129C
:1008D8008A11F3007308F50083120313881575084D
:1008E8000800F800831203138811780820380A12C8
:1008F8008A11F1240A128A11F70077088312031368
:10090800C20076080A128A11F1240A128A11831287
:10091800031388150800831203130C1C942C952CC0
:10092800A42C0030BD07003003180130BE07013089
:1009380003180230BF07003003180130C0070C103D
:100948000800831203138811FF300A128A11F12458
:100958000A128A11F300730883120313C200881560
:1009680042080800F3008312031338083905F2001F
:100978003908730572060319C22CC42C0130C52C22
:1009880000300800F9007908F3000030F400053061
:10099800F8007808F50010300A128A115E230A124E
:1009A8008A110800F200F301DD2C0314F30D031083
:1009B800F20C023072020318E22CE32CD92C7308D3
:1009C8000800F20083160313981CEB2CEC2CE62C81
:1009D80072088312031399000800F2007208831248
:1009E800031393008C1DF92CFA2CF62C8C11130888
:1009F80008000A128A118F240A128A1171088A00C3
:100A0800700E8300FE0E7E0E0900FF30F900790893
:100A1800F600E1300A128A1175240A128A110800B8
:100A280064008001840A0406031900340406152DA5
:100A3800F50075080A128A111F230A128A11080084
:02400E00723FFF
:00000001FF
