:08000000803102288731DF2F57
:1008280006308431C924843108000034FC34B034E3
:10083800E834F534F900790884313C24843108001F
:10084800640080010131890B252C0034FF30F7004A
:100858007708F400E23084318C2484310800FF30BA
:10086800F7007708F400E13084318C2484310800E3
:10087800F8007808F7007708F400053084318C24F4
:1008880084310800F8007808FE3E0339F70077083D
:10089800F400033084318C2484310800F00070089F
:1008A800240091002000911D5A2C5B2C562C91118C
:1008B80024001108080020008E12FF3084315224D1
:1008C8008431F10071082000A6008E162608080061
:1008D800F000F101732C0314F10D0310F00C023039
:1008E80070020318782C792C6F2C710808002400EA
:1008F80095124030940021000D168E130D1323001D
:100908008D0124001508F039023895009516080065
:10091800F60020008E127608203884315224843163
:10092800F50075082000A60074088431522484312B
:1009380020008E16080000308431C9248431023822
:10094800F7007708F400003084318C2484311A30A1
:10095800F700F830890BAE2CF70BAE2C00320800EC
:10096800F80078080319B92CBA2CC32C3F30F700CB
:100978007708F400013084318C248431C82CF401C8
:10098800013084318C2484310800F20020008E125A
:100998007208843152248431F10071082000A600C5
:1009A800FF30843152248431F1007108F3002000B3
:1009B8008E1673080800FB000F307705F8007B08D7
:1009C8000F39F9000330F935FF3E031DE72C79355F
:1009D8007804FA007A08F400043084318C248431D5
:1009E800080000308431C92484310138F7007708C1
:1009F800F400003084318C2484317030F70077089B
:100A0800F400073084318C24843120000E1708004C
:100A180003308431C92485310339F4007408F500A2
:100A280075080319182D192D212D04307502031886
:100A38001E2D1F2D212D0130222D003008001D30C4
:100A48008431C92485310438F7007708F4001D3053
:100A580084318C2485311C308431C92485313F3858
:100A6800F7007708F4001C3084318C2485310800A5
:100A7800FD007D08FC007C08F0000530F100003026
:100A8800F20047308531E225853120002008FC003E
:100A98007C08C7004730F7000030F8000130863185
:100AA800A02685310800F80020002508F339F70052
:100AB8007708A5007808031D622D632D642D6D2D20
:100AC8007803031D682D692D6B2DA5156D2DA515B2
:100AD80025152508F7007708F400003084318C24A8
:100AE80085310800F50020008E1275082038843101
:100AF80052248531F40074082000A600912D710855
:100B08008400720885000008843152248531013040
:100B1800F1070030F23D0130F3027308031D952DF3
:100B2800962D832D20008E160800F800063084319B
:100B3800C9248531F7007708F9007908D739F70013
:100B48007708F90002307806031DAB2DAC2DAE2DC9
:100B5800F916B42D7803031DB22DB32DB42DF91554
:100B68007908F7007708F400063084318C24853141
:100B78000800FA0006308431C9248531F839F700B5
:100B88007708F80004307A020318CB2DCC2DD12D2C
:100B98007A08F7007708F900D52D0330F7007708B1
:100BA800F9007935F7007708F8047808F70077082E
:100BB800F400063084318C2485310800F500700873
:100BC800F3007308F7007508F3007308F600022EA7
:100BD8007708860087010108F3007308F4000130E4
:100BE800F3007308F7077408F30076088600870196
:100BF800730881000130F3007308F6070130F10231
:100C08000030F23B710A031D0D2E720A031D0D2ED2
:100C18000E2EEC2D080087316D2786310530843182
:100C28004624863185312325863100308531992542
:100C3800863101308531572586310030F7008830FC
:100C4800F80000308631A026863101308431B42482
:100C5800863103302000D2005208F4008431142475
:100C68008631203086316E2686318431F5248631EE
:100C780008002000D4005408D2005208A0005408EC
:100C880084316C2486312000D2005208A10021084A
:100C9800013ED2005208A2002208D2000130D2350B
:100CA800890B532E210820055204D3005308A300B2
:100CB8002208D2000130D235890B5F2E2108200589
:100CC80052042204D3005308A400473085313C2540
:100CD80086310800F8007808F7007708F40011302A
:100CE80084318C2486317808F7007708F4001230B4
:100CF80084318C2486317808F7007708F4001330A3
:100D080084318C2486317808F7007708F400143091
:100D180084318C2486317808F7007708F400153080
:100D280084318C2486317808F7007708F40016306F
:100D380084318C2486310800FB0002307B020318C2
:100D4800A62EA72EB52E7808F2007708F1000530F8
:100D5800F9007908F3007B080A3E8531762586314B
:100D6800C22E77088400780885000008F900790801
:100D7800F4007B080A3E84318C2486310130F90066
:100D88007B0AC72EF935890BC62E02308431C92457
:100D980086317904FA007A08F400023084318C2410
:100DA8008631080020008E12A0308431522486310A
:100DB800FB007B082000A600ED2E78088400790847
:100DC800850000088431522486310130F80700304C
:100DD800F93D0130FA027A0A031DF32EF42EE12EB2
:100DE80020008E160E1784315F248631303903199E
:100DF800FE2EFF2EF72E20000E137030FB007B080E
:100E0800F400073084318C2486312000261E0D2FF3
:100E18000E2F112F84313324863108007A302100B7
:100E280099008E1120008E1584317B2487318631FC
:100E38000F268731733084311E2487314D30853138
:100E48003C258731003086313D268731472F2000E9
:100E58008E1503302000D6000830D5007730890B76
:100E6800332FD50B332FD60B332F20008E110330A1
:100E78002000D6000830D5007730890B412FD50BDC
:100E8800412FD60B412F85310C258731003A0319A4
:100E98004E2F4F2F2B2F20008E154330F80088300F
:100EA800F9000C302000D5005508FA008631D62606
:100EB800873115302000D6004B30D500BE30890B65
:100EC800632FD50B632FD60B632F0000512F803172
:100ED800022821000E138E1220000E138E160330E6
:100EE800FD000830FC007730890B782FFC0B782F39
:100EF800FD0B782F00001A30FC00F830890B822F88
:100F0800FC0B822F00320F30FC007C08F700053004
:100F18008431DF24873103308531BD2587310030A6
:100F2800853199258731F4011D3084318C2487312E
:100F3800F4011C3084318C2487313F30FC007C085C
:100F4800F400013084318C2487310330FC007C08A4
:100F5800F400023084318C248731203086316E26AB
:100F6800873105308431462487314C3084313C2424
:100F780087317030FC007C08F400073084318C2401
:100F8800873184312A2487318431332487310C30E6
:100F9800FC007C08F400003084318C2487318431D3
:100FA8009F24873100308431C9248731FC007C08B4
:100FB8002000A50008001930840084308500120044
:100FC800CD001200CE001200CF001200D000120097
:100FD800D10020308400003085002D308431242455
:100FE8008731A030840000308500203084312424EB
:100FF800873120008731122F5934EC34AD34FC345A
:1010080084343D343D343D343D3445344E344434E9
:1010180020344F3446342034443445345434413435
:1010280049344C3453343D343D343D343D3400343C
:101038003D343D343D3453345434413452345434C3
:1010480020344F3446342034443445345434413405
:1010580049344C3453343D343D343D340034303419
:101068003134323433343434353436343734383434
:1010780039344134423443344434453446344834B2
:1010880065346C346C346F34203457346F347234B4
:101098006C34643400345334453454345534503447
:1010A8005F34523445345434523400344F3442346B
:1010B800533445345234563445345F3454345834F8
:1010C800003445344E345F34523458344134443457
:1010D8004434523400347034613479346C346F34AD
:1010E8006134643420343D340034523446345F343F
:1010F800533445345434553450340034533445341F
:101108005434553450345F34413457340034433404
:101118004F344E344634493447340034533454340D
:10112800413454345534533400343034303430344A
:10113800303431340034523458345F34503430341D
:101148000034523458345F3450343134003452341B
:1011580058345F34503432340034523458345F34A5
:10116800503433340034523458345F3450343434C7
:101178000034523458345F345034353400344534F4
:101188004E345F34413441340034523446345F3491
:101198004334483400344634413449344C34003400
:1011A800F9343634CD34AC34E7344F344B3400346E
:020000040001F9
:02000E00C42903
:00000001FF
