:060000000A128A110C280F
:10000800FE00030EF0000A08F1000A128A11B62C4D
:100018000A128A110F28FB018313373084004830F5
:100028000A128A11CD240A128A11A0308400E03005
:100038000A128A11CD240A128A1183010A128A111E
:10004800ED2983120313A7002708A4002408A6009B
:100058003708031D30283128322812292608033E84
:100068008400831300080A128A118F240A128A1145
:1000780083120313A4002408A500250838020318D6
:1000880046284728C2282608033E84008313000810
:100098000A128A116F240A128A11003A0319552884
:1000A8005628C228831203132608033E84008313AC
:1000B8000008390503196128622892283B08A40022
:1000C8002408C2004230F9000030FA0000300A1259
:1000D8008A118E220A128A1142300A128A117F244A
:1000E8000A128A110A128A11AB230A128A11831280
:1000F80003132308A4002408A00027080A128A1161
:1001080043220A128A111E30F9008030FA000030AA
:100118000A128A118E220A128A110D293A08A4009D
:100128002408C2004230F9000030FA0000300A12F8
:100138008A118E220A128A1142300A128A117F24E9
:100148000A128A110A128A11AB230A128A1183121F
:1001580003132308A4002408A00027080A128A1100
:1001680043220A128A111E30F9008030FA0000304A
:100178000A128A118E220A128A110D298312031378
:100188003708A4002408C2004230F9000030FA0001
:1001980000300A128A118E220A128A1142300A127B
:1001A8008A117F240A128A110A128A11AB230A12B1
:1001B8008A117130F3008030F4000A128A117A2310
:1001C8000A128A11831203132708F3000030F4007F
:1001D8000A128A117A230A128A110A300A128A111B
:1001E8009E240A128A11831203132308A4002408E8
:1001F800A00027080A128A1143220A128A111E3007
:10020800F9008030FA0000300A128A118E220A1290
:100218008A110A128A11F3230A128A110800FF1B95
:100228001D2983137F1883170008840A0319FF0AFE
:10023800080001308A000408840A82070034303438
:100248003134323433343434353436343734383462
:1002580039344134423443344434453446344634E2
:10026800413449344C340034F9343634CD34AC3468
:10027800E7344F344B3400345934EC34AD34FC3467
:1002880084343D343D343D343D3445344E34443477
:1002980020344F34463420344434453454344134C3
:1002A80049344C3453343D343D343D343D340034CA
:1002B8003D343D343D345334543441345234543451
:1002C80020344F3446342034443445345434413493
:1002D80049344C3453343D343D343D340034533484
:1002E80045345434553450345F34523445345434DE
:1002F800523400344F344234533445345234563433
:1003080045345F3454345834003445344E345F3403
:100318005234583441344434443452340034703400
:10032800613479346C346F346134643420343D344E
:100338000034523446345F345334453454345534DD
:1003480050340034533445345434553450345F34C5
:1003580041345734003443344F344E3446344934EE
:1003680047340034533454344134543455345334BA
:100378000034523458345F345034303400345234FA
:1003880058345F34503431340034523458345F3484
:10039800503432340034523458345F3450343334A7
:1003A8000034523458345F345034343400345234C6
:1003B80058345F3450343534003445344E345F3467
:1003C800413441340034523446345F344334483481
:1003D80000348316031386108312031386108316C2
:1003E8000313081410300A128A11D5240A128A112C
:1003F80083120313081C012A022A3E2AC001C00ADC
:100408004018072A0B2A8312031386140E2A831214
:1004180003138610C030B3003308B6003608033E15
:100428008400831380014008B3003608043E84002A
:10043800330880003608023E84008001800A0330B9
:10044800B300360A8400330880002030B300330834
:10045800AC00AD01AD0A0630B4003408AE00063079
:10046800B5003508AF0036080A128A1149230A1266
:100478008A11FC29C001FC290A128A110C2883124E
:100488000313A1008811A0300A128A11AA240A12A3
:100498008A11FA007A0883120313C100622A21081C
:1004A8008400831300080A128A11AA240A128A11E6
:1004B8000130FA007A0883120313A1070130A00261
:1004C800200A031D682A692A532A881508150A1262
:1004D8008A115E240A128A1130390319742A752A7E
:1004E8006B2A8312031308117030FA007A08F60099
:1004F80007300A128A112E240A128A118312031352
:10050800411E872A882A8D2A0A128A11C2240A12B1
:100518008A11080083120313A20002302202031872
:10052800962A972AA72A7908F3007A08F400053052
:10053800A0002008F50022080A3E0A128A11172393
:100548000A128A11BA2A7A08FF00790884000A1266
:100558008A1113210A128A11A0002008F600220825
:100568000A3E0A128A112E240A128A1101308312B5
:100578000313A000220AC22A0310A00DFF3E031D88
:10058800C02A02300A128A1111240A128A1183120F
:1005980003132004A1002108F60002300A128A1170
:1005A8002E240A128A110800F3000310F30C03101A
:1005B800F30CF401E52A0130F2007208F407031085
:1005C800F30C73080319E92AEA2AEE2A731CED2AA8
:1005D800EE2ADF2A0B178B17831603130C148312CA
:1005E8000313901090157408F20001300310F20CF8
:1005F800FF3E031DFA2A7218022B062B83120313DF
:100608009016092B83120313901274180C2B102BBD
:10061800831203131016132B8312031310121014D2
:100628008E018F010800F7008312031388117708E1
:1006380020380A128A11AA240A128A11F6007608AA
:1006480083120313C100402B740883120313FF00A5
:10065800730884000A128A1113210A128A110A12D5
:100668008A11AA240A128A110130F3070318F40A1E
:100678000030F4070130F5027508031D442B452BA3
:10068800282B831203138815080083120313B10063
:100698003108B0003008B200320A840083138001A8
:1006A800800A2D08B0003208033E8400300880001C
:1006B8003208043E840000082E06F0392E06800019
:1006C8002F08B0003208043E8400B00E000830063F
:1006D8000F39300680002C08B0003008A800310817
:1006E8000A128A11D3230A128A1108006430F5000D
:1006F8007508F600932B7408FF00730884000A122B
:100708008A1113210A128A110A128A119E240A12C6
:100718008A110130F3070318F40A0030F40774084B
:1007280083120313FF00730884000A128A1113212D
:100738000A128A11003A0319A22BA32BAA2B013003
:10074800F602760A031DA92BAA2B7F2B0800831219
:100758000313081100300A128A1111240A128A118F
:10076800FE39F9007908F60000300A128A112E24A1
:100778000A128A1102300A128A1111240A128A11E5
:100788000138F9007908F60002300A128A112E247D
:100798000A128A11AD30F900F90BD02B0800831228
:1007A8000313AB002B08A9002908AA002030A900D0
:1007B8002A0884002908831380003708A9002A081A
:1007C800023E8400290880002808A9002908A300FF
:1007D8002B080A128A1125200A128A1108000030F3
:1007E8000A128A1111240A128A110138F9007908AB
:1007F800F60000300A128A112E240A128A1170306B
:10080800F9007908F60007300A128A112E240A1214
:100818008A118312031308150800F40083120313C6
:10082800881174080A128A11AA240A128A11F3007C
:10083800730883120313C100FF300A128A11AA2415
:100848000A128A11F3007308F5008312031388153E
:1008580075080800F80083120313881178082038F7
:100868000A128A11AA240A128A11F7007708831239
:100878000313C10076080A128A11AA240A128A11DF
:100888008312031388150800831203130C1C4D2CC4
:100898004E2C5D2C0030BC07003003180130BD071A
:1008A800013003180230BE07003003180130BF07BB
:1008B8000C100800831203138811FF300A128A11E2
:1008C800AA240A128A11F300730883120313C100C1
:1008D800881541080800F300831203133708380508
:1008E800F20038087305720603197B2C7D2C013041
:1008F8007E2C00300800F9007908F3000030F4007D
:100908000530F8007808F50010300A128A1117230C
:100918000A128A110800F200F301962C0314F30D51
:100928000310F20C0230720203189B2C9C2C922CA0
:1009380073080800F20083160313981CA42CA52C36
:100948009F2C72088312031399000800F2007208A2
:100958008312031393008C1DB22CB32CAF2C8C1173
:10096800130808000A128A1148240A128A11710809
:100978008A00700E8300FE0E7E0E0900FF30F9001B
:100988007908F600E1300A128A112E240A128A1117
:10099800080064008001840A040603190034040670
:1009A800CE2CF50075080A128A11D8220A128A116B
:0209B800080035
:02400E00723FFF
:00000001FF
