:060000000A128A110C280F
:10000800FE00030EF0000A08F1000A128A11C22C41
:100018000A128A110F28FB018313373084004830F5
:100028000A128A11D9240A128A11A0308400E030F9
:100038000A128A11D9240A128A1183010A128A1112
:10004800ED2983120313A7002708A4002408A6009B
:100058003708031D30283128322812292608033E84
:100068008400831300080A128A119B240A128A1139
:1000780083120313A4002408A500250838020318D6
:1000880046284728C2282608033E84008313000810
:100098000A128A117B240A128A11003A0319552878
:1000A8005628C228831203132608033E84008313AC
:1000B8000008390503196128622892283B08A40022
:1000C8002408C2004230F9000030FA0000300A1259
:1000D8008A119A220A128A1142300A128A118B2432
:1000E8000A128A110A128A11B7230A128A11831274
:1000F80003132308A4002408A00027080A128A1161
:100108004F220A128A111E30F9008030FA0000309E
:100118000A128A119A220A128A110D293A08A40091
:100128002408C2004230F9000030FA0000300A12F8
:100138008A119A220A128A1142300A128A118B24D1
:100148000A128A110A128A11B7230A128A11831213
:1001580003132308A4002408A00027080A128A1100
:100168004F220A128A111E30F9008030FA0000303E
:100178000A128A119A220A128A110D29831203136C
:100188003708A4002408C2004230F9000030FA0001
:1001980000300A128A119A220A128A1142300A126F
:1001A8008A118B240A128A110A128A11B7230A1299
:1001B8008A117130F3008030F4000A128A11862304
:1001C8000A128A11831203132708F3000030F4007F
:1001D8000A128A1186230A128A110A300A128A110F
:1001E800AA240A128A11831203132308A4002408DC
:1001F800A00027080A128A114F220A128A111E30FB
:10020800F9008030FA0000300A128A119A220A1284
:100218008A110A128A11FF230A128A110800FF1B89
:100228001D2983137F1883170008840A0319FF0AFE
:10023800080001308A000408840A82070034303438
:100248003134323433343434353436343734383462
:1002580039344134423443344434453446344634E2
:10026800413449344C340034F9343634CD34AC3468
:10027800E7344F344B3400345934EC34AD34FC3467
:1002880084343D343D343D343D3445344E34443477
:1002980020344F34463420344434453454344134C3
:1002A80049344C3453343D343D343D343D340034CA
:1002B8003D343D343D345334543441345234543451
:1002C80020344F3446342034443445345434413493
:1002D80049344C3453343D343D343D340034533484
:1002E80045345434553450345F34523445345434DE
:1002F800523400344F344234533445345234563433
:1003080045345F3454345834003445344E345F3403
:100318005234583441344434443452340034703400
:10032800613479346C346F346134643420343D344E
:100338000034523446345F345334453454345534DD
:1003480050340034533445345434553450345F34C5
:1003580041345734003443344F344E3446344934EE
:1003680047340034533454344134543455345334BA
:100378000034523458345F345034303400345234FA
:1003880058345F34503431340034523458345F3484
:10039800503432340034523458345F3450343334A7
:1003A8000034523458345F345034343400345234C6
:1003B80058345F3450343534003445344E345F3467
:1003C800413441340034523446345F344334483481
:1003D80000348316031388108312031388108316BE
:1003E8000313081410300A128A11E1240A128A1120
:1003F80083120313081C012A022A3E2AC001C00ADC
:100408004018072A0B2A8312031388140E2A831212
:1004180003138810C030B3003308B6003608033E13
:100428008400831380014008B3003608043E84002A
:10043800330880003608023E84008001800A0330B9
:10044800B300360A8400330880002030B300330834
:10045800AC00AD01AD0A0630B4003408AE00063079
:10046800B5003508AF0036080A128A1155230A125A
:100478008A113F2AC001831203134018442A482ACC
:100488008312031388144B2A831203138810FC2940
:100498000A128A110C2883120313A1008811A030B4
:1004A8000A128A11B6240A128A11FA007A088312EB
:1004B8000313C1006E2A21088400831300080A125E
:1004C8008A11B6240A128A110130FA007A088312B6
:1004D8000313A1070130A002200A031D742A752AFC
:1004E8005F2A881508150A128A116A240A128A11C5
:1004F80030390319802A812A772A831203130811B5
:100508007030FA007A08F60007300A128A113A2485
:100518000A128A1183120313411E932A942A992AD4
:100528000A128A11CE240A128A11080083120313B0
:10053800A200023022020318A22AA32AB32A7908A9
:10054800F3007A08F4000530A0002008F50022081E
:100558000A3E0A128A1123230A128A11C62A7A0825
:10056800FF00790884000A128A1113210A128A11DD
:10057800A0002008F60022080A3E0A128A113A242E
:100588000A128A11013083120313A000220ACE2A0C
:100598000310A00DFF3E031DCC2A02300A128A1157
:1005A8001D240A128A11831203132004A1002108B2
:1005B800F60002300A128A113A240A128A11080037
:1005C800F3000310F30C0310F30CF401F12A0130CB
:1005D800F2007208F4070310F30C73080319F52AE4
:1005E800F62AFA2A731CF92AFA2AEB2A0B178B1710
:1005F800831603130C1483120313901090157408B8
:10060800F20001300310F20CFF3E031D062B721896
:100618000E2B122B831203139016152B8312031320
:1006280090127418182B1C2B8312031310161F2BEF
:1006380083120313101210148E018F010800F700A3
:10064800831203138811770820380A128A11B624F6
:100658000A128A11F600760883120313C1004C2B84
:10066800740883120313FF00730884000A128A11A6
:1006780013210A128A110A128A11B6240A128A113F
:100688000130F3070318F40A0030F4070130F502CB
:100698007508031D502B512B342B83120313881517
:1006A800080083120313B1003108B0003008B2000B
:1006B800320A840083138001800A2D08B0003208B2
:1006C800033E8400300880003208043E840000089D
:1006D8002E06F0392E0680002F08B0003208043E9E
:1006E8008400B00E000830060F39300680002C0850
:1006F800B0003008A80031080A128A11DF230A1254
:100708008A1108006430F5007508F6009F2B7408FC
:10071800FF00730884000A128A1113210A128A1131
:100728000A128A11AA240A128A110130F30703183F
:10073800F40A0030F407740883120313FF007308E7
:1007480084000A128A1113210A128A11003A031925
:10075800AE2BAF2BB62B0130F602760A031DB52B54
:10076800B62B8B2B080083120313081100300A12D2
:100778008A111D240A128A11FE39F9007908F60037
:1007880000300A128A113A240A128A1102300A1217
:100798008A111D240A128A110138F9007908F60015
:1007A80002300A128A113A240A128A11AD30F9006D
:1007B800F90BDC2B080083120313AB002B08A900EC
:1007C8002908AA002030A9002A08840029088313D0
:1007D80080003708A9002A08023E84002908800002
:1007E8002808A9002908A3002B080A128A11252025
:1007F8000A128A11080000300A128A111D240A12EE
:100808008A110138F9007908F60000300A128A11B5
:100818003A240A128A117030F9007908F600073074
:100828000A128A113A240A128A118312031308152C
:100838000800F40083120313881174080A128A113D
:10084800B6240A128A11F300730883120313C10035
:10085800FF300A128A11B6240A128A11F3007308AB
:10086800F50083120313881575080800F800831231
:1008780003138811780820380A128A11B6240A123C
:100888008A11F700770883120313C10076080A1249
:100898008A11B6240A128A118312031388150800D4
:1008A800831203130C1C592C5A2C692C0030BC07DA
:1008B800003003180130BD07013003180230BE07AD
:1008C800003003180130BF070C100800831203130F
:1008D8008811FF300A128A11B6240A128A11F3000D
:1008E800730883120313C100881541080800F30038
:1008F8008312031337083805F200380873057206A7
:100908000319872C892C01308A2C00300800F90043
:100918007908F3000030F4000530F8007808F50095
:1009280010300A128A1123230A128A110800F200D1
:10093800F301A22C0314F30D0310F20C023072021F
:100948000318A72CA82C9E2C73080800F200831605
:100958000313981CB02CB12CAB2C72088312031310
:1009680099000800F20072088312031393008C1D8B
:10097800BE2CBF2CBB2C8C11130808000A128A113C
:1009880054240A128A1171088A00700E8300FE0E20
:100998007E0E0900FF30F9007908F600E1300A12EE
:1009A8008A113A240A128A11080064008001840A14
:1009B8000406031900340406DA2CF50075080A1237
:0A09C8008A11E4220A128A110800C5
:02400E00723FFF
:00000001FF
